Component: ARM Compiler 5.06 update 3 (build 300) Tool: armlink [4d35c9]

==============================================================================

Section Cross References

    startup_stm32f405xx.o(STACK) refers (Special) to heapauxi.o(.text) for __use_two_region_memory
    startup_stm32f405xx.o(HEAP) refers (Special) to heapauxi.o(.text) for __use_two_region_memory
    startup_stm32f405xx.o(RESET) refers (Special) to heapauxi.o(.text) for __use_two_region_memory
    startup_stm32f405xx.o(RESET) refers to startup_stm32f405xx.o(STACK) for __initial_sp
    startup_stm32f405xx.o(RESET) refers to startup_stm32f405xx.o(.text) for Reset_Handler
    startup_stm32f405xx.o(RESET) refers to stm32f4xx_it.o(i.NMI_Handler) for NMI_Handler
    startup_stm32f405xx.o(RESET) refers to stm32f4xx_it.o(i.HardFault_Handler) for HardFault_Handler
    startup_stm32f405xx.o(RESET) refers to stm32f4xx_it.o(i.MemManage_Handler) for MemManage_Handler
    startup_stm32f405xx.o(RESET) refers to stm32f4xx_it.o(i.BusFault_Handler) for BusFault_Handler
    startup_stm32f405xx.o(RESET) refers to stm32f4xx_it.o(i.UsageFault_Handler) for UsageFault_Handler
    startup_stm32f405xx.o(RESET) refers to stm32f4xx_it.o(i.SVC_Handler) for SVC_Handler
    startup_stm32f405xx.o(RESET) refers to stm32f4xx_it.o(i.DebugMon_Handler) for DebugMon_Handler
    startup_stm32f405xx.o(RESET) refers to stm32f4xx_it.o(i.PendSV_Handler) for PendSV_Handler
    startup_stm32f405xx.o(RESET) refers to stm32f4xx_it.o(i.SysTick_Handler) for SysTick_Handler
    startup_stm32f405xx.o(RESET) refers to stm32f4xx_it.o(i.DMA1_Stream2_IRQHandler) for DMA1_Stream2_IRQHandler
    startup_stm32f405xx.o(RESET) refers to stm32f4xx_it.o(i.DMA1_Stream4_IRQHandler) for DMA1_Stream4_IRQHandler
    startup_stm32f405xx.o(RESET) refers to stm32f4xx_it.o(i.USART1_IRQHandler) for USART1_IRQHandler
    startup_stm32f405xx.o(RESET) refers to stm32f4xx_it.o(i.UART4_IRQHandler) for UART4_IRQHandler
==============================================================================

Removing Unused input sections from the image.

    Removing scheduler.o(.rev16_text), (4 bytes).
    Removing scheduler.o(.revsh_text), (4 bytes).
    Removing scheduler.o(.rrx_text), (6 bytes).
    Removing led.o(.rev16_text), (4 bytes).
    Removing led.o(.revsh_text), (4 bytes).
    Removing led.o(.rrx_text), (6 bytes).
    Removing voltage.o(.rev16_text), (4 bytes).
    Removing voltage.o(.revsh_text), (4 bytes).
    Removing voltage.o(.rrx_text), (6 bytes).
    Removing motor.o(.rev16_text), (4 bytes).
    Removing motor.o(.revsh_text), (4 bytes).
    Removing motor.o(.rrx_text), (6 bytes).
    Removing sbus.o(.rev16_text), (4 bytes).
    Removing sbus.o(.revsh_text), (4 bytes).
    Removing sbus.o(.rrx_text), (6 bytes).
    Removing icm20602.o(.rev16_text), (4 bytes).
    Removing icm20602.o(.revsh_text), (4 bytes).
    Removing icm20602.o(.rrx_text), (6 bytes).
==============================================================================

Image Symbol Table

    Local Symbols

    Symbol Name                              Value     Ov Type        Size  Object(Section)

    ../Core/Src/adc.c                        0x00000000   Number         0  adc.o ABSOLUTE
    ../Core/Src/dma.c                        0x00000000   Number         0  dma.o ABSOLUTE
    ../Core/Src/gpio.c                       0x00000000   Number         0  gpio.o ABSOLUTE
    ../Core/Src/i2c.c                        0x00000000   Number         0  i2c.o ABSOLUTE
    ../Core/Src/main.c                       0x00000000   Number         0  main.o ABSOLUTE
    ../Core/Src/spi.c                        0x00000000   Number         0  spi.o ABSOLUTE
    ../Core/Src/stm32f4xx_hal_msp.c          0x00000000   Number         0  stm32f4xx_hal_msp.o ABSOLUTE
    ../Core/Src/stm32f4xx_it.c               0x00000000   Number         0  stm32f4xx_it.o ABSOLUTE
    ../Core/Src/system_stm32f4xx.c           0x00000000   Number         0  system_stm32f4xx.o ABSOLUTE
    ../Core/Src/tim.c                        0x00000000   Number         0  tim.o ABSOLUTE
    ../Core/Src/usart.c                      0x00000000   Number         0  usart.o ABSOLUTE
    ../Drivers/STM32F4xx_HAL_Driver/Src/stm32f4xx_hal.c 0x00000000   Number         0  stm32f4xx_hal.o ABSOLUTE
    ../Drivers/STM32F4xx_HAL_Driver/Src/stm32f4xx_hal_adc.c 0x00000000   Number         0  stm32f4xx_hal_adc.o ABSOLUTE
    ../Drivers/STM32F4xx_HAL_Driver/Src/stm32f4xx_hal_adc_ex.c 0x00000000   Number         0  stm32f4xx_hal_adc_ex.o ABSOLUTE
    ../Drivers/STM32F4xx_HAL_Driver/Src/stm32f4xx_hal_cortex.c 0x00000000   Number         0  stm32f4xx_hal_cortex.o ABSOLUTE
    ../Drivers/STM32F4xx_HAL_Driver/Src/stm32f4xx_hal_dma.c 0x00000000   Number         0  stm32f4xx_hal_dma.o ABSOLUTE
    ../Drivers/STM32F4xx_HAL_Driver/Src/stm32f4xx_hal_dma_ex.c 0x00000000   Number         0  stm32f4xx_hal_dma_ex.o ABSOLUTE
    ../Drivers/STM32F4xx_HAL_Driver/Src/stm32f4xx_hal_exti.c 0x00000000   Number         0  stm32f4xx_hal_exti.o ABSOLUTE
    ../Drivers/STM32F4xx_HAL_Driver/Src/stm32f4xx_hal_flash.c 0x00000000   Number         0  stm32f4xx_hal_flash.o ABSOLUTE
    ../Drivers/STM32F4xx_HAL_Driver/Src/stm32f4xx_hal_flash_ex.c 0x00000000   Number         0  stm32f4xx_hal_flash_ex.o ABSOLUTE
    ../Drivers/STM32F4xx_HAL_Driver/Src/stm32f4xx_hal_flash_ramfunc.c 0x00000000   Number         0  stm32f4xx_hal_flash_ramfunc.o ABSOLUTE
    ../Drivers/STM32F4xx_HAL_Driver/Src/stm32f4xx_hal_gpio.c 0x00000000   Number         0  stm32f4xx_hal_gpio.o ABSOLUTE
    ../Drivers/STM32F4xx_HAL_Driver/Src/stm32f4xx_hal_i2c.c 0x00000000   Number         0  stm32f4xx_hal_i2c.o ABSOLUTE
    ../Drivers/STM32F4xx_HAL_Driver/Src/stm32f4xx_hal_i2c_ex.c 0x00000000   Number         0  stm32f4xx_hal_i2c_ex.o ABSOLUTE
    ../Drivers/STM32F4xx_HAL_Driver/Src/stm32f4xx_hal_pwr.c 0x00000000   Number         0  stm32f4xx_hal_pwr.o ABSOLUTE
    ../Drivers/STM32F4xx_HAL_Driver/Src/stm32f4xx_hal_pwr_ex.c 0x00000000   Number         0  stm32f4xx_hal_pwr_ex.o ABSOLUTE
    ../Drivers/STM32F4xx_HAL_Driver/Src/stm32f4xx_hal_rcc.c 0x00000000   Number         0  stm32f4xx_hal_rcc.o ABSOLUTE
    ../Drivers/STM32F4xx_HAL_Driver/Src/stm32f4xx_hal_rcc_ex.c 0x00000000   Number         0  stm32f4xx_hal_rcc_ex.o ABSOLUTE
    ../Drivers/STM32F4xx_HAL_Driver/Src/stm32f4xx_hal_spi.c 0x00000000   Number         0  stm32f4xx_hal_spi.o ABSOLUTE
    ../Drivers/STM32F4xx_HAL_Driver/Src/stm32f4xx_hal_tim.c 0x00000000   Number         0  stm32f4xx_hal_tim.o ABSOLUTE
    ../Drivers/STM32F4xx_HAL_Driver/Src/stm32f4xx_hal_tim_ex.c 0x00000000   Number         0  stm32f4xx_hal_tim_ex.o ABSOLUTE
    ../Drivers/STM32F4xx_HAL_Driver/Src/stm32f4xx_hal_uart.c 0x00000000   Number         0  stm32f4xx_hal_uart.o ABSOLUTE
    ../Drivers/STM32F4xx_HAL_Driver/Src/stm32f4xx_ll_adc.c 0x00000000   Number         0  stm32f4xx_ll_adc.o ABSOLUTE
    ../clib/angel/boardlib.s                 0x00000000   Number         0  boardinit2.o ABSOLUTE
    ../clib/angel/boardlib.s                 0x00000000   Number         0  boardshut.o ABSOLUTE
    ../clib/angel/boardlib.s                 0x00000000   Number         0  boardinit1.o ABSOLUTE
    ../clib/angel/boardlib.s                 0x00000000   Number         0  boardinit3.o ABSOLUTE
    ../clib/angel/dczerorl2.s                0x00000000   Number         0  __dczerorl2.o ABSOLUTE
    ../clib/angel/handlers.s                 0x00000000   Number         0  __scatter_zi.o ABSOLUTE
    ../clib/angel/kernel.s                   0x00000000   Number         0  __rtentry.o ABSOLUTE
    ../clib/angel/kernel.s                   0x00000000   Number         0  rtexit2.o ABSOLUTE
    ../clib/angel/kernel.s                   0x00000000   Number         0  __rtentry2.o ABSOLUTE
    ../clib/angel/kernel.s                   0x00000000   Number         0  __rtentry4.o ABSOLUTE
    ../clib/angel/kernel.s                   0x00000000   Number         0  rtexit.o ABSOLUTE
    ../clib/angel/rt.s                       0x00000000   Number         0  aeabi_ldiv0.o ABSOLUTE
    ../clib/angel/rt.s                       0x00000000   Number         0  aeabi_ldiv0_sigfpe.o ABSOLUTE
    ../clib/angel/rt.s                       0x00000000   Number         0  rt_errno_addr_intlibspace.o ABSOLUTE
    ../clib/angel/rt.s                       0x00000000   Number         0  rt_errno_addr.o ABSOLUTE
    ../clib/angel/rt.s                       0x00000000   Number         0  rt_raise.o ABSOLUTE
    ../clib/angel/rt.s                       0x00000000   Number         0  rt_div0.o ABSOLUTE
    ../clib/angel/scatter.s                  0x00000000   Number         0  __scatter.o ABSOLUTE
    ../clib/angel/startup.s                  0x00000000   Number         0  __main.o ABSOLUTE
    ../clib/angel/sys.s                      0x00000000   Number         0  sys_stackheap_outer.o ABSOLUTE
    ../clib/angel/sys.s                      0x00000000   Number         0  libspace.o ABSOLUTE
    ../clib/angel/sys.s                      0x00000000   Number         0  indicate_semi.o ABSOLUTE
    ../clib/angel/sys.s                      0x00000000   Number         0  use_no_semi.o ABSOLUTE
    ../clib/angel/sysapp.c                   0x00000000   Number         0  sys_wrch.o ABSOLUTE
    ../clib/angel/sysapp.c                   0x00000000   Number         0  sys_command.o ABSOLUTE
    ../clib/angel/sysapp.c                   0x00000000   Number         0  sys_exit.o ABSOLUTE
    ../clib/armsys.c                         0x00000000   Number         0  argv_veneer.o ABSOLUTE
    ../clib/armsys.c                         0x00000000   Number         0  argv_veneer.o ABSOLUTE
    ../clib/armsys.c                         0x00000000   Number         0  _get_argv_nomalloc.o ABSOLUTE
    ../clib/armsys.c                         0x00000000   Number         0  no_argv.o ABSOLUTE
    ../clib/fenv.c                           0x00000000   Number         0  _rserrno.o ABSOLUTE
    ../clib/heapalloc.c                      0x00000000   Number         0  hrguard.o ABSOLUTE
    ../clib/heapaux.c                        0x00000000   Number         0  heapauxi.o ABSOLUTE
    ../clib/libinit.s                        0x00000000   Number         0  libinit.o ABSOLUTE
    ../clib/libinit.s                        0x00000000   Number         0  libinit2.o ABSOLUTE
    ../clib/libinit.s                        0x00000000   Number         0  libshutdown2.o ABSOLUTE
    ../clib/libinit.s                        0x00000000   Number         0  libshutdown.o ABSOLUTE
    ../clib/longlong.s                       0x00000000   Number         0  lludivv7m.o ABSOLUTE
    ../clib/memcpset.s                       0x00000000   Number         0  rt_memcpy_v6.o ABSOLUTE
    ../clib/memcpset.s                       0x00000000   Number         0  rt_memcpy_w.o ABSOLUTE
    ../clib/memcpset.s                       0x00000000   Number         0  rt_memclr.o ABSOLUTE
    ../clib/memcpset.s                       0x00000000   Number         0  rt_memclr_w.o ABSOLUTE
    ../clib/memcpset.s                       0x00000000   Number         0  strcmpv7m.o ABSOLUTE
    ../clib/signal.c                         0x00000000   Number         0  defsig_fpe_outer.o ABSOLUTE
    ../clib/signal.c                         0x00000000   Number         0  __raise.o ABSOLUTE
    ../clib/signal.c                         0x00000000   Number         0  defsig_other.o ABSOLUTE
    ../clib/signal.c                         0x00000000   Number         0  defsig_segv_inner.o ABSOLUTE
    ../clib/signal.c                         0x00000000   Number         0  defsig_cppl_inner.o ABSOLUTE
    ../clib/signal.c                         0x00000000   Number         0  defsig_pvfn_inner.o ABSOLUTE
    ../clib/signal.c                         0x00000000   Number         0  defsig_stak_inner.o ABSOLUTE
    ../clib/signal.c                         0x00000000   Number         0  defsig_rtmem_formal.o ABSOLUTE
    ../clib/signal.c                         0x00000000   Number         0  defsig_rtmem_outer.o ABSOLUTE
    ../clib/signal.c                         0x00000000   Number         0  defsig_rtmem_inner.o ABSOLUTE
    ../clib/signal.c                         0x00000000   Number         0  defsig_rtred_inner.o ABSOLUTE
    ../clib/signal.c                         0x00000000   Number         0  defsig_abrt_inner.o ABSOLUTE
    ../clib/signal.c                         0x00000000   Number         0  defsig_general.o ABSOLUTE
    ../clib/signal.c                         0x00000000   Number         0  defsig_fpe_inner.o ABSOLUTE
    ../clib/signal.c                         0x00000000   Number         0  defsig_exit.o ABSOLUTE
    ../clib/signal.c                         0x00000000   Number         0  defsig_fpe_formal.o ABSOLUTE
    ../clib/signal.s                         0x00000000   Number         0  defsig.o ABSOLUTE
    ../clib/stdlib.c                         0x00000000   Number         0  exit.o ABSOLUTE
    ../clib/string.c                         0x00000000   Number         0  memcmp.o ABSOLUTE
    ../fplib/basic.s                         0x00000000   Number         0  basic.o ABSOLUTE
    ../fplib/d2f.s                           0x00000000   Number         0  d2f.o ABSOLUTE
    ../fplib/daddsub.s                       0x00000000   Number         0  daddsub_clz.o ABSOLUTE
    ../fplib/dcmpi.s                         0x00000000   Number         0  dcmpi.o ABSOLUTE
    ../fplib/ddiv.s                          0x00000000   Number         0  ddiv.o ABSOLUTE
    ../fplib/dflt.s                          0x00000000   Number         0  dflt_clz.o ABSOLUTE
    ../fplib/dleqf.s                         0x00000000   Number         0  dleqf.o ABSOLUTE
    ../fplib/dmul.s                          0x00000000   Number         0  dmul.o ABSOLUTE
    ../fplib/dnaninf.s                       0x00000000   Number         0  dnaninf.o ABSOLUTE
    ../fplib/dretinf.s                       0x00000000   Number         0  dretinf.o ABSOLUTE
    ../fplib/dsqrt.s                         0x00000000   Number         0  dsqrt_umaal.o ABSOLUTE
    ../fplib/f2d.s                           0x00000000   Number         0  f2d.o ABSOLUTE
    ../fplib/fnaninf.s                       0x00000000   Number         0  fnaninf.o ABSOLUTE
    ../fplib/fpinit.s                        0x00000000   Number         0  fpinit.o ABSOLUTE
    ../fplib/fretinf.s                       0x00000000   Number         0  fretinf.o ABSOLUTE
    ../fplib/usenofp.s                       0x00000000   Number         0  usenofp.o ABSOLUTE
    ../mathlib/asin.c                        0x00000000   Number         0  asin_x.o ABSOLUTE
    ../mathlib/asin.c                        0x00000000   Number         0  asin.o ABSOLUTE
    ../mathlib/atan.c                        0x00000000   Number         0  atan_x.o ABSOLUTE
    ../mathlib/atan.c                        0x00000000   Number         0  atan.o ABSOLUTE
    ../mathlib/atan2.c                       0x00000000   Number         0  atan2_x.o ABSOLUTE
    ../mathlib/atan2.c                       0x00000000   Number         0  atan2.o ABSOLUTE
    ../mathlib/dunder.c                      0x00000000   Number         0  dunder.o ABSOLUTE
    ../mathlib/fabs.c                        0x00000000   Number         0  fabs.o ABSOLUTE
    ../mathlib/fpclassify.c                  0x00000000   Number         0  fpclassify.o ABSOLUTE
    ../mathlib/poly.c                        0x00000000   Number         0  poly.o ABSOLUTE
    ../mathlib/qnan.c                        0x00000000   Number         0  qnan.o ABSOLUTE
    ../mathlib/sqrt.c                        0x00000000   Number         0  sqrt.o ABSOLUTE
    ../mathlib/sqrt.c                        0x00000000   Number         0  sqrt_x.o ABSOLUTE
    ..\Core\Src\adc.c                        0x00000000   Number         0  adc.o ABSOLUTE
    ..\Core\Src\cmavlink.c                   0x00000000   Number         0  cmavlink.o ABSOLUTE
    ..\Core\Src\dma.c                        0x00000000   Number         0  dma.o ABSOLUTE
    ..\Core\Src\flightcontrol.c              0x00000000   Number         0  flightcontrol.o ABSOLUTE
    ..\Core\Src\gpio.c                       0x00000000   Number         0  gpio.o ABSOLUTE
    ..\Core\Src\i2c.c                        0x00000000   Number         0  i2c.o ABSOLUTE
    ..\Core\Src\icm20602.c                   0x00000000   Number         0  icm20602.o ABSOLUTE
    ..\Core\Src\led.c                        0x00000000   Number         0  led.o ABSOLUTE
    ..\Core\Src\main.c                       0x00000000   Number         0  main.o ABSOLUTE
    ..\Core\Src\motor.c                      0x00000000   Number         0  motor.o ABSOLUTE
    ..\Core\Src\pid.c                        0x00000000   Number         0  pid.o ABSOLUTE
    ..\Core\Src\sbus.c                       0x00000000   Number         0  sbus.o ABSOLUTE
    ..\Core\Src\scheduler.c                  0x00000000   Number         0  scheduler.o ABSOLUTE
    ..\Core\Src\spi.c                        0x00000000   Number         0  spi.o ABSOLUTE
    ..\Core\Src\stm32f4xx_hal_msp.c          0x00000000   Number         0  stm32f4xx_hal_msp.o ABSOLUTE
    ..\Core\Src\stm32f4xx_it.c               0x00000000   Number         0  stm32f4xx_it.o ABSOLUTE
    ..\Core\Src\system_stm32f4xx.c           0x00000000   Number         0  system_stm32f4xx.o ABSOLUTE
    ..\Core\Src\tim.c                        0x00000000   Number         0  tim.o ABSOLUTE
    ..\Core\Src\usart.c                      0x00000000   Number         0  usart.o ABSOLUTE
    ..\Core\Src\voltage.c                    0x00000000   Number         0  voltage.o ABSOLUTE
    ..\Drivers\STM32F4xx_HAL_Driver\Src\stm32f4xx_hal.c 0x00000000   Number         0  stm32f4xx_hal.o ABSOLUTE
    ..\Drivers\STM32F4xx_HAL_Driver\Src\stm32f4xx_hal_adc.c 0x00000000   Number         0  stm32f4xx_hal_adc.o ABSOLUTE
    ..\Drivers\STM32F4xx_HAL_Driver\Src\stm32f4xx_hal_adc_ex.c 0x00000000   Number         0  stm32f4xx_hal_adc_ex.o ABSOLUTE
    ..\Drivers\STM32F4xx_HAL_Driver\Src\stm32f4xx_hal_cortex.c 0x00000000   Number         0  stm32f4xx_hal_cortex.o ABSOLUTE
    ..\Drivers\STM32F4xx_HAL_Driver\Src\stm32f4xx_hal_dma.c 0x00000000   Number         0  stm32f4xx_hal_dma.o ABSOLUTE
    ..\Drivers\STM32F4xx_HAL_Driver\Src\stm32f4xx_hal_dma_ex.c 0x00000000   Number         0  stm32f4xx_hal_dma_ex.o ABSOLUTE
    ..\Drivers\STM32F4xx_HAL_Driver\Src\stm32f4xx_hal_exti.c 0x00000000   Number         0  stm32f4xx_hal_exti.o ABSOLUTE
    ..\Drivers\STM32F4xx_HAL_Driver\Src\stm32f4xx_hal_flash.c 0x00000000   Number         0  stm32f4xx_hal_flash.o ABSOLUTE
    ..\Drivers\STM32F4xx_HAL_Driver\Src\stm32f4xx_hal_flash_ex.c 0x00000000   Number         0  stm32f4xx_hal_flash_ex.o ABSOLUTE
    ..\Drivers\STM32F4xx_HAL_Driver\Src\stm32f4xx_hal_flash_ramfunc.c 0x00000000   Number         0  stm32f4xx_hal_flash_ramfunc.o ABSOLUTE
    ..\Drivers\STM32F4xx_HAL_Driver\Src\stm32f4xx_hal_gpio.c 0x00000000   Number         0  stm32f4xx_hal_gpio.o ABSOLUTE
    ..\Drivers\STM32F4xx_HAL_Driver\Src\stm32f4xx_hal_i2c.c 0x00000000   Number         0  stm32f4xx_hal_i2c.o ABSOLUTE
    ..\Drivers\STM32F4xx_HAL_Driver\Src\stm32f4xx_hal_i2c_ex.c 0x00000000   Number         0  stm32f4xx_hal_i2c_ex.o ABSOLUTE
    ..\Drivers\STM32F4xx_HAL_Driver\Src\stm32f4xx_hal_pwr.c 0x00000000   Number         0  stm32f4xx_hal_pwr.o ABSOLUTE
    ..\Drivers\STM32F4xx_HAL_Driver\Src\stm32f4xx_hal_pwr_ex.c 0x00000000   Number         0  stm32f4xx_hal_pwr_ex.o ABSOLUTE
    ..\Drivers\STM32F4xx_HAL_Driver\Src\stm32f4xx_hal_rcc.c 0x00000000   Number         0  stm32f4xx_hal_rcc.o ABSOLUTE
    ..\Drivers\STM32F4xx_HAL_Driver\Src\stm32f4xx_hal_rcc_ex.c 0x00000000   Number         0  stm32f4xx_hal_rcc_ex.o ABSOLUTE
    ..\Drivers\STM32F4xx_HAL_Driver\Src\stm32f4xx_hal_spi.c 0x00000000   Number         0  stm32f4xx_hal_spi.o ABSOLUTE
    ..\Drivers\STM32F4xx_HAL_Driver\Src\stm32f4xx_hal_tim.c 0x00000000   Number         0  stm32f4xx_hal_tim.o ABSOLUTE
    ..\Drivers\STM32F4xx_HAL_Driver\Src\stm32f4xx_hal_tim_ex.c 0x00000000   Number         0  stm32f4xx_hal_tim_ex.o ABSOLUTE
    ..\Drivers\STM32F4xx_HAL_Driver\Src\stm32f4xx_hal_uart.c 0x00000000   Number         0  stm32f4xx_hal_uart.o ABSOLUTE
    ..\\Core\\Src\\cmavlink.c                0x00000000   Number         0  cmavlink.o ABSOLUTE
    ..\\Core\\Src\\flightcontrol.c           0x00000000   Number         0  flightcontrol.o ABSOLUTE
    ..\\Core\\Src\\icm20602.c                0x00000000   Number         0  icm20602.o ABSOLUTE
    ..\\Core\\Src\\led.c                     0x00000000   Number         0  led.o ABSOLUTE
    ..\\Core\\Src\\motor.c                   0x00000000   Number         0  motor.o ABSOLUTE
    ..\\Core\\Src\\sbus.c                    0x00000000   Number         0  sbus.o ABSOLUTE
    ..\\Core\\Src\\scheduler.c               0x00000000   Number         0  scheduler.o ABSOLUTE
    ..\\Core\\Src\\voltage.c                 0x00000000   Number         0  voltage.o ABSOLUTE
    dc.s                                     0x00000000   Number         0  dc.o ABSOLUTE
    startup_stm32f405xx.s                    0x00000000   Number         0  startup_stm32f405xx.o ABSOLUTE
    RESET                                    0x08000000   Section      392  startup_stm32f405xx.o(RESET)
    !!!main                                  0x08000188   Section        8  __main.o(!!!main)
    !!!scatter                               0x08000190   Section       52  __scatter.o(!!!scatter)
    !!dczerorl2                              0x080001c4   Section       90  __dczerorl2.o(!!dczerorl2)
    !!handler_zi                             0x08000220   Section       28  __scatter_zi.o(!!handler_zi)
    .ARM.Collect$$libinit$$00000000          0x0800023c   Section        2  libinit.o(.ARM.Collect$$libinit$$00000000)
    .ARM.Collect$$libinit$$00000001          0x0800023e   Section        4  libinit2.o(.ARM.Collect$$libinit$$00000001)
    .ARM.Collect$$libinit$$00000004          0x08000242   Section        0  libinit2.o(.ARM.Collect$$libinit$$00000004)
    .ARM.Collect$$libinit$$0000000A          0x08000242   Section        0  libinit2.o(.ARM.Collect$$libinit$$0000000A)
    .ARM.Collect$$libinit$$0000000C          0x08000242   Section        0  libinit2.o(.ARM.Collect$$libinit$$0000000C)
    .ARM.Collect$$libinit$$0000000E          0x08000242   Section        0  libinit2.o(.ARM.Collect$$libinit$$0000000E)
    .ARM.Collect$$libinit$$00000011          0x08000242   Section        0  libinit2.o(.ARM.Collect$$libinit$$00000011)
    .ARM.Collect$$libinit$$00000013          0x08000242   Section        0  libinit2.o(.ARM.Collect$$libinit$$00000013)
    .ARM.Collect$$libinit$$00000015          0x08000242   Section        0  libinit2.o(.ARM.Collect$$libinit$$00000015)
    .ARM.Collect$$libinit$$00000017          0x08000242   Section        0  libinit2.o(.ARM.Collect$$libinit$$00000017)
    .ARM.Collect$$libinit$$00000019          0x08000242   Section        0  libinit2.o(.ARM.Collect$$libinit$$00000019)
    .ARM.Collect$$libinit$$0000001B          0x08000242   Section        0  libinit2.o(.ARM.Collect$$libinit$$0000001B)
    .ARM.Collect$$libinit$$0000001D          0x08000242   Section        0  libinit2.o(.ARM.Collect$$libinit$$0000001D)
    .ARM.Collect$$libinit$$0000001F          0x08000242   Section        0  libinit2.o(.ARM.Collect$$libinit$$0000001F)
    .ARM.Collect$$libinit$$00000021          0x08000242   Section        0  libinit2.o(.ARM.Collect$$libinit$$00000021)
    .ARM.Collect$$libinit$$00000023          0x08000242   Section        0  libinit2.o(.ARM.Collect$$libinit$$00000023)
    .ARM.Collect$$libinit$$00000025          0x08000242   Section        0  libinit2.o(.ARM.Collect$$libinit$$00000025)
    .ARM.Collect$$libinit$$0000002C          0x08000242   Section        0  libinit2.o(.ARM.Collect$$libinit$$0000002C)
    .ARM.Collect$$libinit$$0000002E          0x08000242   Section        0  libinit2.o(.ARM.Collect$$libinit$$0000002E)
    .ARM.Collect$$libinit$$00000030          0x08000242   Section        0  libinit2.o(.ARM.Collect$$libinit$$00000030)
    .ARM.Collect$$libinit$$00000032          0x08000242   Section        0  libinit2.o(.ARM.Collect$$libinit$$00000032)
    .ARM.Collect$$libinit$$00000033          0x08000242   Section        2  libinit2.o(.ARM.Collect$$libinit$$00000033)
    .ARM.Collect$$libshutdown$$00000000      0x08000244   Section        2  libshutdown.o(.ARM.Collect$$libshutdown$$00000000)
    .ARM.Collect$$libshutdown$$00000002      0x08000246   Section        0  libshutdown2.o(.ARM.Collect$$libshutdown$$00000002)
    .ARM.Collect$$libshutdown$$00000004      0x08000246   Section        0  libshutdown2.o(.ARM.Collect$$libshutdown$$00000004)
    .ARM.Collect$$libshutdown$$00000007      0x08000246   Section        0  libshutdown2.o(.ARM.Collect$$libshutdown$$00000007)
    .ARM.Collect$$libshutdown$$0000000A      0x08000246   Section        0  libshutdown2.o(.ARM.Collect$$libshutdown$$0000000A)
    .ARM.Collect$$libshutdown$$0000000C      0x08000246   Section        0  libshutdown2.o(.ARM.Collect$$libshutdown$$0000000C)
    .ARM.Collect$$libshutdown$$0000000F      0x08000246   Section        0  libshutdown2.o(.ARM.Collect$$libshutdown$$0000000F)
    .ARM.Collect$$libshutdown$$00000010      0x08000246   Section        2  libshutdown2.o(.ARM.Collect$$libshutdown$$00000010)
    .ARM.Collect$$rtentry$$00000000          0x08000248   Section        0  __rtentry.o(.ARM.Collect$$rtentry$$00000000)
    .ARM.Collect$$rtentry$$00000002          0x08000248   Section        0  __rtentry2.o(.ARM.Collect$$rtentry$$00000002)
    .ARM.Collect$$rtentry$$00000004          0x08000248   Section        6  __rtentry4.o(.ARM.Collect$$rtentry$$00000004)
    .ARM.Collect$$rtentry$$00000009          0x0800024e   Section        0  __rtentry2.o(.ARM.Collect$$rtentry$$00000009)
    .ARM.Collect$$rtentry$$0000000A          0x0800024e   Section        4  __rtentry2.o(.ARM.Collect$$rtentry$$0000000A)
    .ARM.Collect$$rtentry$$0000000C          0x08000252   Section        0  __rtentry2.o(.ARM.Collect$$rtentry$$0000000C)
    .ARM.Collect$$rtentry$$0000000D          0x08000252   Section        8  __rtentry2.o(.ARM.Collect$$rtentry$$0000000D)
    .ARM.Collect$$rtexit$$00000000           0x0800025a   Section        2  rtexit.o(.ARM.Collect$$rtexit$$00000000)
    .ARM.Collect$$rtexit$$00000002           0x0800025c   Section        0  rtexit2.o(.ARM.Collect$$rtexit$$00000002)
    .ARM.Collect$$rtexit$$00000003           0x0800025c   Section        4  rtexit2.o(.ARM.Collect$$rtexit$$00000003)
    .ARM.Collect$$rtexit$$00000004           0x08000260   Section        6  rtexit2.o(.ARM.Collect$$rtexit$$00000004)
    .text                                    0x08000268   Section       64  startup_stm32f405xx.o(.text)
    $v0                                      0x08000268   Number         0  startup_stm32f405xx.o(.text)
    .text                                    0x080002a8   Section      238  lludivv7m.o(.text)
    .text                                    0x08000396   Section        0  memcmp.o(.text)
    .text                                    0x080003ee   Section      138  rt_memcpy_v6.o(.text)
    .text                                    0x08000478   Section      100  rt_memcpy_w.o(.text)
    .text                                    0x080004dc   Section       68  rt_memclr.o(.text)
    .text                                    0x08000520   Section       78  rt_memclr_w.o(.text)
    .text                                    0x08000570   Section      128  strcmpv7m.o(.text)
    .text                                    0x080005f0   Section        0  heapauxi.o(.text)
    .text                                    0x080005f6   Section        0  _rserrno.o(.text)
    .text                                    0x0800060c   Section        8  rt_errno_addr_intlibspace.o(.text)
    .text                                    0x08000614   Section        8  libspace.o(.text)
    .text                                    0x0800061c   Section       74  sys_stackheap_outer.o(.text)
    .text                                    0x08000666   Section        0  exit.o(.text)
    .text                                    0x08000678   Section        0  sys_exit.o(.text)
    .text                                    0x08000684   Section        2  use_no_semi.o(.text)
    .text                                    0x08000686   Section        0  indicate_semi.o(.text)
    i.ADC_Init                               0x08000688   Section        0  stm32f4xx_hal_adc.o(i.ADC_Init)
    ADC_Init                                 0x08000689   Thumb Code   284  stm32f4xx_hal_adc.o(i.ADC_Init)
    i.BusFault_Handler                       0x080007b0   Section        0  stm32f4xx_it.o(i.BusFault_Handler)
    i.DMA1_Stream2_IRQHandler                0x080007b4   Section        0  stm32f4xx_it.o(i.DMA1_Stream2_IRQHandler)
    i.DMA1_Stream4_IRQHandler                0x080007c0   Section        0  stm32f4xx_it.o(i.DMA1_Stream4_IRQHandler)
    i.DMA2_Stream2_IRQHandler                0x080007cc   Section        0  stm32f4xx_it.o(i.DMA2_Stream2_IRQHandler)
    i.DMA2_Stream7_IRQHandler                0x080007d8   Section        0  stm32f4xx_it.o(i.DMA2_Stream7_IRQHandler)
    i.DMA_CalcBaseAndBitshift                0x080007e4   Section        0  stm32f4xx_hal_dma.o(i.DMA_CalcBaseAndBitshift)
    DMA_CalcBaseAndBitshift                  0x080007e5   Thumb Code    34  stm32f4xx_hal_dma.o(i.DMA_CalcBaseAndBitshift)
    i.DMA_CheckFifoParam                     0x0800080c   Section        0  stm32f4xx_hal_dma.o(i.DMA_CheckFifoParam)
    DMA_CheckFifoParam                       0x0800080d   Thumb Code    84  stm32f4xx_hal_dma.o(i.DMA_CheckFifoParam)
    i.DMA_SetConfig                          0x08000860   Section        0  stm32f4xx_hal_dma.o(i.DMA_SetConfig)
    DMA_SetConfig                            0x08000861   Thumb Code    40  stm32f4xx_hal_dma.o(i.DMA_SetConfig)
    i.DebugMon_Handler                       0x08000888   Section        0  stm32f4xx_it.o(i.DebugMon_Handler)
    i.Error_Handler                          0x0800088a   Section        0  main.o(i.Error_Handler)
    i.HAL_ADC_ConfigChannel                  0x08000890   Section        0  stm32f4xx_hal_adc.o(i.HAL_ADC_ConfigChannel)
    i.HAL_ADC_GetValue                       0x080009dc   Section        0  stm32f4xx_hal_adc.o(i.HAL_ADC_GetValue)
    i.HAL_ADC_Init                           0x080009e2   Section        0  stm32f4xx_hal_adc.o(i.HAL_ADC_Init)
    i.HAL_ADC_MspInit                        0x08000a38   Section        0  adc.o(i.HAL_ADC_MspInit)
    i.HAL_ADC_PollForConversion              0x08000a98   Section        0  stm32f4xx_hal_adc.o(i.HAL_ADC_PollForConversion)
    i.HAL_ADC_Start                          0x08000b44   Section        0  stm32f4xx_hal_adc.o(i.HAL_ADC_Start)
    i.HAL_ADC_Stop                           0x08000c40   Section        0  stm32f4xx_hal_adc.o(i.HAL_ADC_Stop)
    i.HAL_DMA_Abort                          0x08000c7c   Section        0  stm32f4xx_hal_dma.o(i.HAL_DMA_Abort)
    i.HAL_DMA_Abort_IT                       0x08000d0e   Section        0  stm32f4xx_hal_dma.o(i.HAL_DMA_Abort_IT)
    i.HAL_DMA_IRQHandler                     0x08000d34   Section        0  stm32f4xx_hal_dma.o(i.HAL_DMA_IRQHandler)
    i.HAL_DMA_Init                           0x08000ed4   Section        0  stm32f4xx_hal_dma.o(i.HAL_DMA_Init)
    i.HAL_DMA_Start_IT                       0x08000fa8   Section        0  stm32f4xx_hal_dma.o(i.HAL_DMA_Start_IT)
    i.HAL_Delay                              0x08001018   Section        0  stm32f4xx_hal.o(i.HAL_Delay)
    i.HAL_GPIO_Init                          0x0800103c   Section        0  stm32f4xx_hal_gpio.o(i.HAL_GPIO_Init)
    i.HAL_GPIO_ReadPin                       0x0800122c   Section        0  stm32f4xx_hal_gpio.o(i.HAL_GPIO_ReadPin)
    i.HAL_GPIO_WritePin                      0x08001236   Section        0  stm32f4xx_hal_gpio.o(i.HAL_GPIO_WritePin)
    i.HAL_GetTick                            0x08001240   Section        0  stm32f4xx_hal.o(i.HAL_GetTick)
    i.HAL_I2C_Init                           0x0800124c   Section        0  stm32f4xx_hal_i2c.o(i.HAL_I2C_Init)
    i.HAL_I2C_MspInit                        0x080013d4   Section        0  i2c.o(i.HAL_I2C_MspInit)
    i.HAL_IncTick                            0x08001480   Section        0  stm32f4xx_hal.o(i.HAL_IncTick)
    i.HAL_Init                               0x08001490   Section        0  stm32f4xx_hal.o(i.HAL_Init)
    i.HAL_InitTick                           0x080014c4   Section        0  stm32f4xx_hal.o(i.HAL_InitTick)
    i.HAL_MspInit                            0x08001504   Section        0  stm32f4xx_hal_msp.o(i.HAL_MspInit)
    i.HAL_NVIC_EnableIRQ                     0x08001534   Section        0  stm32f4xx_hal_cortex.o(i.HAL_NVIC_EnableIRQ)
    i.HAL_NVIC_SetPriority                   0x08001550   Section        0  stm32f4xx_hal_cortex.o(i.HAL_NVIC_SetPriority)
    i.HAL_NVIC_SetPriorityGrouping           0x08001590   Section        0  stm32f4xx_hal_cortex.o(i.HAL_NVIC_SetPriorityGrouping)
    i.HAL_RCC_ClockConfig                    0x080015b4   Section        0  stm32f4xx_hal_rcc.o(i.HAL_RCC_ClockConfig)
    i.HAL_RCC_GetPCLK1Freq                   0x080016e8   Section        0  stm32f4xx_hal_rcc.o(i.HAL_RCC_GetPCLK1Freq)
    i.HAL_RCC_GetPCLK2Freq                   0x08001708   Section        0  stm32f4xx_hal_rcc.o(i.HAL_RCC_GetPCLK2Freq)
    i.HAL_RCC_GetSysClockFreq                0x08001728   Section        0  stm32f4xx_hal_rcc.o(i.HAL_RCC_GetSysClockFreq)
    i.HAL_RCC_OscConfig                      0x08001788   Section        0  stm32f4xx_hal_rcc.o(i.HAL_RCC_OscConfig)
    i.HAL_SPI_Init                           0x08001af4   Section        0  stm32f4xx_hal_spi.o(i.HAL_SPI_Init)
    i.HAL_SPI_MspInit                        0x08001bb0   Section        0  spi.o(i.HAL_SPI_MspInit)
    i.HAL_SPI_Transmit                       0x08001c18   Section        0  stm32f4xx_hal_spi.o(i.HAL_SPI_Transmit)
    i.HAL_SPI_TransmitReceive                0x08001d7e   Section        0  stm32f4xx_hal_spi.o(i.HAL_SPI_TransmitReceive)
    i.HAL_SYSTICK_Config                     0x08001f60   Section        0  stm32f4xx_hal_cortex.o(i.HAL_SYSTICK_Config)
    i.HAL_TIMEx_ConfigBreakDeadTime          0x08001f88   Section        0  stm32f4xx_hal_tim_ex.o(i.HAL_TIMEx_ConfigBreakDeadTime)
    i.HAL_TIMEx_MasterConfigSynchronization  0x08001fdc   Section        0  stm32f4xx_hal_tim_ex.o(i.HAL_TIMEx_MasterConfigSynchronization)
    i.HAL_TIM_Base_Init                      0x0800206c   Section        0  stm32f4xx_hal_tim.o(i.HAL_TIM_Base_Init)
    i.HAL_TIM_Base_MspInit                   0x080020c8   Section        0  tim.o(i.HAL_TIM_Base_MspInit)
    i.HAL_TIM_ConfigClockSource              0x080020f0   Section        0  stm32f4xx_hal_tim.o(i.HAL_TIM_ConfigClockSource)
    i.HAL_TIM_MspPostInit                    0x080021cc   Section        0  tim.o(i.HAL_TIM_MspPostInit)
    i.HAL_TIM_PWM_ConfigChannel              0x08002220   Section        0  stm32f4xx_hal_tim.o(i.HAL_TIM_PWM_ConfigChannel)
    i.HAL_TIM_PWM_Init                       0x080022ec   Section        0  stm32f4xx_hal_tim.o(i.HAL_TIM_PWM_Init)
    i.HAL_TIM_PWM_MspInit                    0x08002346   Section        0  stm32f4xx_hal_tim.o(i.HAL_TIM_PWM_MspInit)
    i.HAL_TIM_PWM_Start                      0x08002348   Section        0  stm32f4xx_hal_tim.o(i.HAL_TIM_PWM_Start)
    i.HAL_UARTEx_ReceiveToIdle_DMA           0x08002410   Section        0  stm32f4xx_hal_uart.o(i.HAL_UARTEx_ReceiveToIdle_DMA)
    i.HAL_UARTEx_RxEventCallback             0x08002468   Section        0  main.o(i.HAL_UARTEx_RxEventCallback)
    i.HAL_UART_DMAStop                       0x080024e0   Section        0  stm32f4xx_hal_uart.o(i.HAL_UART_DMAStop)
    i.HAL_UART_ErrorCallback                 0x08002550   Section        0  stm32f4xx_hal_uart.o(i.HAL_UART_ErrorCallback)
    i.HAL_UART_IRQHandler                    0x08002554   Section        0  stm32f4xx_hal_uart.o(i.HAL_UART_IRQHandler)
    i.HAL_UART_Init                          0x080027bc   Section        0  stm32f4xx_hal_uart.o(i.HAL_UART_Init)
    i.HAL_UART_MspInit                       0x08002820   Section        0  usart.o(i.HAL_UART_MspInit)
    i.HAL_UART_RxCpltCallback                0x080029e0   Section        0  stm32f4xx_hal_uart.o(i.HAL_UART_RxCpltCallback)
    i.HAL_UART_RxHalfCpltCallback            0x080029e2   Section        0  stm32f4xx_hal_uart.o(i.HAL_UART_RxHalfCpltCallback)
    i.HAL_UART_Transmit_DMA                  0x080029e4   Section        0  stm32f4xx_hal_uart.o(i.HAL_UART_Transmit_DMA)
    i.HAL_UART_TxCpltCallback                0x08002a70   Section        0  stm32f4xx_hal_uart.o(i.HAL_UART_TxCpltCallback)
    i.HAL_UART_TxHalfCpltCallback            0x08002a72   Section        0  stm32f4xx_hal_uart.o(i.HAL_UART_TxHalfCpltCallback)
    i.HardFault_Handler                      0x08002a74   Section        0  stm32f4xx_it.o(i.HardFault_Handler)
    i.MX_ADC1_Init                           0x08002a78   Section        0  adc.o(i.MX_ADC1_Init)
    i.MX_DMA_Init                            0x08002adc   Section        0  dma.o(i.MX_DMA_Init)
    i.MX_GPIO_Init                           0x08002b48   Section        0  gpio.o(i.MX_GPIO_Init)
    i.MX_I2C1_Init                           0x08002be8   Section        0  i2c.o(i.MX_I2C1_Init)
    i.MX_I2C2_Init                           0x08002c28   Section        0  i2c.o(i.MX_I2C2_Init)
    i.MX_SPI1_Init                           0x08002c68   Section        0  spi.o(i.MX_SPI1_Init)
    i.MX_TIM8_Init                           0x08002cb0   Section        0  tim.o(i.MX_TIM8_Init)
    i.MX_UART4_Init                          0x08002da8   Section        0  usart.o(i.MX_UART4_Init)
    i.MX_USART1_UART_Init                    0x08002dec   Section        0  usart.o(i.MX_USART1_UART_Init)
    i.MemManage_Handler                      0x08002e24   Section        0  stm32f4xx_it.o(i.MemManage_Handler)
    i.NMI_Handler                            0x08002e26   Section        0  stm32f4xx_it.o(i.NMI_Handler)
    i.PendSV_Handler                         0x08002e28   Section        0  stm32f4xx_it.o(i.PendSV_Handler)
    i.SPI_EndRxTxTransaction                 0x08002e2c   Section        0  stm32f4xx_hal_spi.o(i.SPI_EndRxTxTransaction)
    SPI_EndRxTxTransaction                   0x08002e2d   Thumb Code    80  stm32f4xx_hal_spi.o(i.SPI_EndRxTxTransaction)
    i.SPI_WaitFlagStateUntilTimeout          0x08002e84   Section        0  stm32f4xx_hal_spi.o(i.SPI_WaitFlagStateUntilTimeout)
    SPI_WaitFlagStateUntilTimeout            0x08002e85   Thumb Code   180  stm32f4xx_hal_spi.o(i.SPI_WaitFlagStateUntilTimeout)
    i.SVC_Handler                            0x08002f3c   Section        0  stm32f4xx_it.o(i.SVC_Handler)
    i.Scheduler_init                         0x08002f40   Section        0  scheduler.o(i.Scheduler_init)
    i.Scheduler_run                          0x08002f4c   Section        0  scheduler.o(i.Scheduler_run)
    i.SysTick_Handler                        0x08002f88   Section        0  stm32f4xx_it.o(i.SysTick_Handler)
    i.SystemClock_Config                     0x08002f8c   Section        0  main.o(i.SystemClock_Config)
    i.SystemInit                             0x08003020   Section        0  system_stm32f4xx.o(i.SystemInit)
    i.TIM_Base_SetConfig                     0x08003030   Section        0  stm32f4xx_hal_tim.o(i.TIM_Base_SetConfig)
    i.TIM_CCxChannelCmd                      0x080030f8   Section        0  stm32f4xx_hal_tim.o(i.TIM_CCxChannelCmd)
    i.TIM_ETR_SetConfig                      0x08003112   Section        0  stm32f4xx_hal_tim.o(i.TIM_ETR_SetConfig)
    i.TIM_ITRx_SetConfig                     0x08003126   Section        0  stm32f4xx_hal_tim.o(i.TIM_ITRx_SetConfig)
    TIM_ITRx_SetConfig                       0x08003127   Thumb Code    16  stm32f4xx_hal_tim.o(i.TIM_ITRx_SetConfig)
    i.TIM_OC1_SetConfig                      0x08003138   Section        0  stm32f4xx_hal_tim.o(i.TIM_OC1_SetConfig)
    TIM_OC1_SetConfig                        0x08003139   Thumb Code    88  stm32f4xx_hal_tim.o(i.TIM_OC1_SetConfig)
    i.TIM_OC2_SetConfig                      0x08003198   Section        0  stm32f4xx_hal_tim.o(i.TIM_OC2_SetConfig)
    i.TIM_OC3_SetConfig                      0x08003204   Section        0  stm32f4xx_hal_tim.o(i.TIM_OC3_SetConfig)
    TIM_OC3_SetConfig                        0x08003205   Thumb Code    96  stm32f4xx_hal_tim.o(i.TIM_OC3_SetConfig)
    i.TIM_OC4_SetConfig                      0x0800326c   Section        0  stm32f4xx_hal_tim.o(i.TIM_OC4_SetConfig)
    TIM_OC4_SetConfig                        0x0800326d   Thumb Code    70  stm32f4xx_hal_tim.o(i.TIM_OC4_SetConfig)
    i.TIM_TI1_ConfigInputStage               0x080032bc   Section        0  stm32f4xx_hal_tim.o(i.TIM_TI1_ConfigInputStage)
    TIM_TI1_ConfigInputStage                 0x080032bd   Thumb Code    34  stm32f4xx_hal_tim.o(i.TIM_TI1_ConfigInputStage)
    i.TIM_TI2_ConfigInputStage               0x080032de   Section        0  stm32f4xx_hal_tim.o(i.TIM_TI2_ConfigInputStage)
    TIM_TI2_ConfigInputStage                 0x080032df   Thumb Code    36  stm32f4xx_hal_tim.o(i.TIM_TI2_ConfigInputStage)
    i.UART4_IRQHandler                       0x08003304   Section        0  stm32f4xx_it.o(i.UART4_IRQHandler)
    i.UART_DMAAbortOnError                   0x08003310   Section        0  stm32f4xx_hal_uart.o(i.UART_DMAAbortOnError)
    UART_DMAAbortOnError                     0x08003311   Thumb Code    16  stm32f4xx_hal_uart.o(i.UART_DMAAbortOnError)
    i.UART_DMAError                          0x08003320   Section        0  stm32f4xx_hal_uart.o(i.UART_DMAError)
    UART_DMAError                            0x08003321   Thumb Code    74  stm32f4xx_hal_uart.o(i.UART_DMAError)
    i.UART_DMAReceiveCplt                    0x0800336a   Section        0  stm32f4xx_hal_uart.o(i.UART_DMAReceiveCplt)
    UART_DMAReceiveCplt                      0x0800336b   Thumb Code   130  stm32f4xx_hal_uart.o(i.UART_DMAReceiveCplt)
    i.UART_DMARxHalfCplt                     0x080033ec   Section        0  stm32f4xx_hal_uart.o(i.UART_DMARxHalfCplt)
    UART_DMARxHalfCplt                       0x080033ed   Thumb Code    26  stm32f4xx_hal_uart.o(i.UART_DMARxHalfCplt)
    i.UART_DMATransmitCplt                   0x08003406   Section        0  stm32f4xx_hal_uart.o(i.UART_DMATransmitCplt)
    UART_DMATransmitCplt                     0x08003407   Thumb Code    66  stm32f4xx_hal_uart.o(i.UART_DMATransmitCplt)
    i.UART_DMATxHalfCplt                     0x08003448   Section        0  stm32f4xx_hal_uart.o(i.UART_DMATxHalfCplt)
    UART_DMATxHalfCplt                       0x08003449   Thumb Code    10  stm32f4xx_hal_uart.o(i.UART_DMATxHalfCplt)
    i.UART_EndRxTransfer                     0x08003452   Section        0  stm32f4xx_hal_uart.o(i.UART_EndRxTransfer)
    UART_EndRxTransfer                       0x08003453   Thumb Code    78  stm32f4xx_hal_uart.o(i.UART_EndRxTransfer)
    i.UART_EndTxTransfer                     0x080034a0   Section        0  stm32f4xx_hal_uart.o(i.UART_EndTxTransfer)
    UART_EndTxTransfer                       0x080034a1   Thumb Code    28  stm32f4xx_hal_uart.o(i.UART_EndTxTransfer)
    i.UART_Receive_IT                        0x080034bc   Section        0  stm32f4xx_hal_uart.o(i.UART_Receive_IT)
    UART_Receive_IT                          0x080034bd   Thumb Code   192  stm32f4xx_hal_uart.o(i.UART_Receive_IT)
    i.UART_SetConfig                         0x0800357c   Section        0  stm32f4xx_hal_uart.o(i.UART_SetConfig)
    UART_SetConfig                           0x0800357d   Thumb Code   258  stm32f4xx_hal_uart.o(i.UART_SetConfig)
    i.UART_Start_Receive_DMA                 0x08003688   Section        0  stm32f4xx_hal_uart.o(i.UART_Start_Receive_DMA)
    i.USART1_IRQHandler                      0x08003718   Section        0  stm32f4xx_it.o(i.USART1_IRQHandler)
    i.UsageFault_Handler                     0x08003724   Section        0  stm32f4xx_it.o(i.UsageFault_Handler)
    i.__ARM_fpclassify                       0x08003726   Section        0  fpclassify.o(i.__ARM_fpclassify)
    i.__NVIC_SetPriority                     0x08003756   Section        0  stm32f4xx_hal_cortex.o(i.__NVIC_SetPriority)
    __NVIC_SetPriority                       0x08003757   Thumb Code    32  stm32f4xx_hal_cortex.o(i.__NVIC_SetPriority)
    i.__hardfp_asin                          0x08003778   Section        0  asin.o(i.__hardfp_asin)
    i.__hardfp_atan                          0x08003ad8   Section        0  atan.o(i.__hardfp_atan)
    i.__hardfp_atan2                         0x08003db0   Section        0  atan2.o(i.__hardfp_atan2)
    i.__kernel_poly                          0x08003fa0   Section        0  poly.o(i.__kernel_poly)
    i.__mathlib_dbl_infnan                   0x08004098   Section        0  dunder.o(i.__mathlib_dbl_infnan)
    i.__mathlib_dbl_infnan2                  0x080040ac   Section        0  dunder.o(i.__mathlib_dbl_infnan2)
    i.__mathlib_dbl_invalid                  0x080040c0   Section        0  dunder.o(i.__mathlib_dbl_invalid)
    i.__mathlib_dbl_underflow                0x080040e0   Section        0  dunder.o(i.__mathlib_dbl_underflow)
    i._mav_trim_payload                      0x08004100   Section        0  cmavlink.o(i._mav_trim_payload)
    _mav_trim_payload                        0x08004101   Thumb Code    24  cmavlink.o(i._mav_trim_payload)
    i.atan                                   0x08004118   Section        0  atan.o(i.atan)
    i.crc_accumulate                         0x08004128   Section        0  cmavlink.o(i.crc_accumulate)
    crc_accumulate                           0x08004129   Thumb Code    28  cmavlink.o(i.crc_accumulate)
    i.fabs                                   0x08004144   Section        0  fabs.o(i.fabs)
    i.get_eulerAngle                         0x0800415c   Section        0  icm20602.o(i.get_eulerAngle)
    i.get_icm20602_accdata_spi               0x080042ac   Section        0  icm20602.o(i.get_icm20602_accdata_spi)
    i.get_icm20602_gyro_spi                  0x080042dc   Section        0  icm20602.o(i.get_icm20602_gyro_spi)
    i.gyroOffsetInit                         0x0800430c   Section        0  icm20602.o(i.gyroOffsetInit)
    i.icm20602_init_spi                      0x080043b8   Section        0  icm20602.o(i.icm20602_init_spi)
    i.icm20602_self_check                    0x08004422   Section        0  icm20602.o(i.icm20602_self_check)
    i.icm20602_update                        0x08004444   Section        0  icm20602.o(i.icm20602_update)
    i.icmAHRSupdate                          0x080044dc   Section        0  icm20602.o(i.icmAHRSupdate)
    i.icmGetValues                           0x0800469c   Section        0  icm20602.o(i.icmGetValues)
    i.icm_spi_r_reg_byte                     0x0800481c   Section        0  icm20602.o(i.icm_spi_r_reg_byte)
    i.icm_spi_r_reg_bytes                    0x08004868   Section        0  icm20602.o(i.icm_spi_r_reg_bytes)
    i.icm_spi_w_reg_byte                     0x080048a4   Section        0  icm20602.o(i.icm_spi_w_reg_byte)
    i.init_flightcontrol                     0x080048e0   Section        0  flightcontrol.o(i.init_flightcontrol)
    i.led_blink                              0x08004990   Section        0  led.o(i.led_blink)
    i.main                                   0x080049b4   Section        0  main.o(i.main)
    i.mavlink_finalize_message_buffer        0x08004a24   Section        0  cmavlink.o(i.mavlink_finalize_message_buffer)
    mavlink_finalize_message_buffer          0x08004a25   Thumb Code   472  cmavlink.o(i.mavlink_finalize_message_buffer)
    i.mavlink_finalize_message_chan          0x08004bfc   Section        0  cmavlink.o(i.mavlink_finalize_message_chan)
    mavlink_finalize_message_chan            0x08004bfd   Thumb Code    28  cmavlink.o(i.mavlink_finalize_message_chan)
    i.mavlink_frame_char_buffer              0x08004c1c   Section        0  cmavlink.o(i.mavlink_frame_char_buffer)
    mavlink_frame_char_buffer                0x08004c1d   Thumb Code   720  cmavlink.o(i.mavlink_frame_char_buffer)
    i.mavlink_msg_to_send_buffer             0x08004ef0   Section        0  cmavlink.o(i.mavlink_msg_to_send_buffer)
    mavlink_msg_to_send_buffer               0x08004ef1   Thumb Code   190  cmavlink.o(i.mavlink_msg_to_send_buffer)
    i.mavlink_sha256_calc                    0x08004fb0   Section        0  cmavlink.o(i.mavlink_sha256_calc)
    mavlink_sha256_calc                      0x08004fb1   Thumb Code   286  cmavlink.o(i.mavlink_sha256_calc)
    i.mavlink_sha256_final_48                0x080050d4   Section        0  cmavlink.o(i.mavlink_sha256_final_48)
    mavlink_sha256_final_48                  0x080050d5   Thumb Code   140  cmavlink.o(i.mavlink_sha256_final_48)
    i.mavlink_sha256_init                    0x08005160   Section        0  cmavlink.o(i.mavlink_sha256_init)
    mavlink_sha256_init                      0x08005161   Thumb Code    40  cmavlink.o(i.mavlink_sha256_init)
    i.mavlink_sha256_update                  0x080051a8   Section        0  cmavlink.o(i.mavlink_sha256_update)
    mavlink_sha256_update                    0x080051a9   Thumb Code   126  cmavlink.o(i.mavlink_sha256_update)
    i.mavlink_signature_check                0x08005228   Section        0  cmavlink.o(i.mavlink_signature_check)
    mavlink_signature_check                  0x08005229   Thumb Code   362  cmavlink.o(i.mavlink_signature_check)
    i.mavlink_start_checksum                 0x08005398   Section        0  cmavlink.o(i.mavlink_start_checksum)
    mavlink_start_checksum                   0x08005399   Thumb Code     8  cmavlink.o(i.mavlink_start_checksum)
    i.mavlink_update_checksum                0x080053a0   Section        0  cmavlink.o(i.mavlink_update_checksum)
    mavlink_update_checksum                  0x080053a1   Thumb Code    28  cmavlink.o(i.mavlink_update_checksum)
    i.motor_init                             0x080053bc   Section        0  motor.o(i.motor_init)
    i.motor_speed_update                     0x08005428   Section        0  motor.o(i.motor_speed_update)
    i.myRsqrt                                0x08005450   Section        0  icm20602.o(i.myRsqrt)
    i.receive_mavlink_data                   0x0800548c   Section        0  cmavlink.o(i.receive_mavlink_data)
    i.sbus_update                            0x0800558c   Section        0  sbus.o(i.sbus_update)
    i.send_channels                          0x080056e0   Section        0  sbus.o(i.send_channels)
    i.send_mavlink                           0x080056e4   Section        0  cmavlink.o(i.send_mavlink)
    i.sqrt                                   0x08005904   Section        0  sqrt.o(i.sqrt)
    i.update_flightcontrol                   0x08005974   Section        0  flightcontrol.o(i.update_flightcontrol)
    i.update_pid                             0x08005bb4   Section        0  pid.o(i.update_pid)
    i.voltage_read                           0x08005c28   Section        0  voltage.o(i.voltage_read)
    x$fpl$basic                              0x08005cb8   Section       24  basic.o(x$fpl$basic)
    $v0                                      0x08005cb8   Number         0  basic.o(x$fpl$basic)
    x$fpl$d2f                                0x08005cd0   Section       98  d2f.o(x$fpl$d2f)
    $v0                                      0x08005cd0   Number         0  d2f.o(x$fpl$d2f)
    x$fpl$dadd                               0x08005d34   Section      336  daddsub_clz.o(x$fpl$dadd)
    $v0                                      0x08005d34   Number         0  daddsub_clz.o(x$fpl$dadd)
    _dadd1                                   0x08005d45   Thumb Code     0  daddsub_clz.o(x$fpl$dadd)
    x$fpl$ddiv                               0x08005e84   Section      688  ddiv.o(x$fpl$ddiv)
    $v0                                      0x08005e84   Number         0  ddiv.o(x$fpl$ddiv)
    ddiv_entry                               0x08005e8b   Thumb Code     0  ddiv.o(x$fpl$ddiv)
    x$fpl$dfltu                              0x08006134   Section       38  dflt_clz.o(x$fpl$dfltu)
    $v0                                      0x08006134   Number         0  dflt_clz.o(x$fpl$dfltu)
    x$fpl$dmul                               0x0800615c   Section      340  dmul.o(x$fpl$dmul)
    $v0                                      0x0800615c   Number         0  dmul.o(x$fpl$dmul)
    x$fpl$dnaninf                            0x080062b0   Section      156  dnaninf.o(x$fpl$dnaninf)
    $v0                                      0x080062b0   Number         0  dnaninf.o(x$fpl$dnaninf)
    x$fpl$dretinf                            0x0800634c   Section       12  dretinf.o(x$fpl$dretinf)
    $v0                                      0x0800634c   Number         0  dretinf.o(x$fpl$dretinf)
    x$fpl$drsb                               0x08006358   Section       22  daddsub_clz.o(x$fpl$drsb)
    $v0                                      0x08006358   Number         0  daddsub_clz.o(x$fpl$drsb)
    x$fpl$dsqrt                              0x08006370   Section      408  dsqrt_umaal.o(x$fpl$dsqrt)
    $v0                                      0x08006370   Number         0  dsqrt_umaal.o(x$fpl$dsqrt)
    x$fpl$dsub                               0x08006508   Section      468  daddsub_clz.o(x$fpl$dsub)
    $v0                                      0x08006508   Number         0  daddsub_clz.o(x$fpl$dsub)
    _dsub1                                   0x08006519   Thumb Code     0  daddsub_clz.o(x$fpl$dsub)
    x$fpl$f2d                                0x080066dc   Section       86  f2d.o(x$fpl$f2d)
    $v0                                      0x080066dc   Number         0  f2d.o(x$fpl$f2d)
    x$fpl$fnaninf                            0x08006732   Section      140  fnaninf.o(x$fpl$fnaninf)
    $v0                                      0x08006732   Number         0  fnaninf.o(x$fpl$fnaninf)
    x$fpl$fpinit                             0x080067be   Section       10  fpinit.o(x$fpl$fpinit)
    $v0                                      0x080067be   Number         0  fpinit.o(x$fpl$fpinit)
    x$fpl$fretinf                            0x080067c8   Section       10  fretinf.o(x$fpl$fretinf)
    $v0                                      0x080067c8   Number         0  fretinf.o(x$fpl$fretinf)
    x$fpl$usenofp                            0x080067d2   Section        0  usenofp.o(x$fpl$usenofp)
    .constdata                               0x080067d4   Section     3004  cmavlink.o(.constdata)
    mavlink_sha256_constant_256              0x080067d4   Data         256  cmavlink.o(.constdata)
    mavlink_message_crcs                     0x080068d4   Data        2748  cmavlink.o(.constdata)
    .constdata                               0x08007390   Section        8  stm32f4xx_hal_dma.o(.constdata)
    flagBitshiftOffset                       0x08007390   Data           8  stm32f4xx_hal_dma.o(.constdata)
    .constdata                               0x08007398   Section       16  system_stm32f4xx.o(.constdata)
    .constdata                               0x080073a8   Section        8  system_stm32f4xx.o(.constdata)
    .constdata                               0x080073b0   Section       80  asin.o(.constdata)
    pS                                       0x080073b0   Data          48  asin.o(.constdata)
    qS                                       0x080073e0   Data          32  asin.o(.constdata)
    .constdata                               0x08007400   Section      152  atan.o(.constdata)
    atanhi                                   0x08007400   Data          32  atan.o(.constdata)
    atanlo                                   0x08007420   Data          32  atan.o(.constdata)
    aTodd                                    0x08007440   Data          40  atan.o(.constdata)
    aTeven                                   0x08007468   Data          48  atan.o(.constdata)
    .constdata                               0x08007498   Section        8  qnan.o(.constdata)
    .data                                    0x20000000   Section      100  scheduler.o(.data)
    scheduler_task                           0x20000004   Data          96  scheduler.o(.data)
    .data                                    0x20000064   Section       12  voltage.o(.data)
    .data                                    0x20000070   Section        8  motor.o(.data)
    .data                                    0x20000078   Section       21  sbus.o(.data)
    .data                                    0x20000090   Section       92  icm20602.o(.data)
    .data                                    0x200000ec   Section      104  flightcontrol.o(.data)
    .data                                    0x20000154   Section      268  cmavlink.o(.data)
    .data                                    0x20000260   Section       12  stm32f4xx_hal.o(.data)
    .data                                    0x2000026c   Section        4  system_stm32f4xx.o(.data)
    .bss                                     0x20000270   Section       58  sbus.o(.bss)
    .bss                                     0x200002ac   Section       48  icm20602.o(.bss)
    .bss                                     0x200002dc   Section      384  main.o(.bss)
    .bss                                     0x2000045c   Section       72  adc.o(.bss)
    .bss                                     0x200004a4   Section      168  i2c.o(.bss)
    .bss                                     0x2000054c   Section       88  spi.o(.bss)
    .bss                                     0x200005a4   Section       72  tim.o(.bss)
    .bss                                     0x200005ec   Section      520  usart.o(.bss)
    .bss                                     0x200007f8   Section     2424  cmavlink.o(.bss)
    m_mavlink_status                         0x200009f8   Data          96  cmavlink.o(.bss)
    m_mavlink_buffer                         0x20000a58   Data        1184  cmavlink.o(.bss)
    .bss                                     0x20001170   Section       96  libspace.o(.bss)
    HEAP                                     0x200011d0   Section      512  startup_stm32f405xx.o(HEAP)
    Heap_Mem                                 0x200011d0   Data         512  startup_stm32f405xx.o(HEAP)
    STACK                                    0x200013d0   Section     1024  startup_stm32f405xx.o(STACK)
    Stack_Mem                                0x200013d0   Data        1024  startup_stm32f405xx.o(STACK)
    __initial_sp                             0x200017d0   Data           0  startup_stm32f405xx.o(STACK)

    Global Symbols

    Symbol Name                              Value     Ov Type        Size  Object(Section)

    BuildAttributes$$THM_ISAv4$E$P$D$K$B$S$7EM$VFPi3$EXTD16$VFPS$VFMA$PE$A:L22UL41UL21$X:L11$S22US41US21$IEEE1$IW$USESV6$~STKCKD$USESV7$~SHL$OTIME$ROPI$IEEEX$EBA8$UX$STANDARDLIB$REQ8$PRES8$EABIv2 0x00000000   Number         0  anon$$obj.o ABSOLUTE
    __ARM_use_no_argv                        0x00000000   Number         0  main.o ABSOLUTE
    __ARM_exceptions_init                     - Undefined Weak Reference
    __alloca_initialize                       - Undefined Weak Reference
    __arm_preinit_                            - Undefined Weak Reference
    __cpp_initialize__aeabi_                  - Undefined Weak Reference
    __cxa_finalize                            - Undefined Weak Reference
    __rt_locale                               - Undefined Weak Reference
    __sigvec_lookup                           - Undefined Weak Reference
    _atexit_init                              - Undefined Weak Reference
    _call_atexit_fns                          - Undefined Weak Reference
    _clock_init                               - Undefined Weak Reference
    _fp_trap_init                             - Undefined Weak Reference
    _fp_trap_shutdown                         - Undefined Weak Reference
    _get_lc_collate                           - Undefined Weak Reference
    _get_lc_ctype                             - Undefined Weak Reference
    _get_lc_monetary                          - Undefined Weak Reference
    _get_lc_numeric                           - Undefined Weak Reference
    _get_lc_time                              - Undefined Weak Reference
    _getenv_init                              - Undefined Weak Reference
    _handle_redirection                       - Undefined Weak Reference
    _init_alloc                               - Undefined Weak Reference
    _init_user_alloc                          - Undefined Weak Reference
    _initio                                   - Undefined Weak Reference
    _rand_init                                - Undefined Weak Reference
    _signal_finish                            - Undefined Weak Reference
    _signal_init                              - Undefined Weak Reference
    _terminate_alloc                          - Undefined Weak Reference
    _terminate_user_alloc                     - Undefined Weak Reference
    _terminateio                              - Undefined Weak Reference
    __Vectors_Size                           0x00000188   Number         0  startup_stm32f405xx.o ABSOLUTE
    __Vectors                                0x08000000   Data           4  startup_stm32f405xx.o(RESET)
    __Vectors_End                            0x08000188   Data           0  startup_stm32f405xx.o(RESET)
    __main                                   0x08000189   Thumb Code     8  __main.o(!!!main)
    __scatterload                            0x08000191   Thumb Code     0  __scatter.o(!!!scatter)
    __scatterload_rt2                        0x08000191   Thumb Code    44  __scatter.o(!!!scatter)
    __scatterload_rt2_thumb_only             0x08000191   Thumb Code     0  __scatter.o(!!!scatter)
    __scatterload_null                       0x0800019f   Thumb Code     0  __scatter.o(!!!scatter)
    __decompress                             0x080001c5   Thumb Code    90  __dczerorl2.o(!!dczerorl2)
    __decompress1                            0x080001c5   Thumb Code     0  __dczerorl2.o(!!dczerorl2)
    __scatterload_zeroinit                   0x08000221   Thumb Code    28  __scatter_zi.o(!!handler_zi)
    __rt_lib_init                            0x0800023d   Thumb Code     0  libinit.o(.ARM.Collect$$libinit$$00000000)
    __rt_lib_init_fp_1                       0x0800023f   Thumb Code     0  libinit2.o(.ARM.Collect$$libinit$$00000001)
    __rt_lib_init_alloca_1                   0x08000243   Thumb Code     0  libinit2.o(.ARM.Collect$$libinit$$0000002E)
    __rt_lib_init_argv_1                     0x08000243   Thumb Code     0  libinit2.o(.ARM.Collect$$libinit$$0000002C)
    __rt_lib_init_atexit_1                   0x08000243   Thumb Code     0  libinit2.o(.ARM.Collect$$libinit$$0000001B)
    __rt_lib_init_clock_1                    0x08000243   Thumb Code     0  libinit2.o(.ARM.Collect$$libinit$$00000021)
    __rt_lib_init_cpp_1                      0x08000243   Thumb Code     0  libinit2.o(.ARM.Collect$$libinit$$00000032)
    __rt_lib_init_exceptions_1               0x08000243   Thumb Code     0  libinit2.o(.ARM.Collect$$libinit$$00000030)
    __rt_lib_init_fp_trap_1                  0x08000243   Thumb Code     0  libinit2.o(.ARM.Collect$$libinit$$0000001F)
    __rt_lib_init_getenv_1                   0x08000243   Thumb Code     0  libinit2.o(.ARM.Collect$$libinit$$00000023)
    __rt_lib_init_heap_1                     0x08000243   Thumb Code     0  libinit2.o(.ARM.Collect$$libinit$$0000000A)
    __rt_lib_init_lc_collate_1               0x08000243   Thumb Code     0  libinit2.o(.ARM.Collect$$libinit$$00000011)
    __rt_lib_init_lc_ctype_1                 0x08000243   Thumb Code     0  libinit2.o(.ARM.Collect$$libinit$$00000013)
    __rt_lib_init_lc_monetary_1              0x08000243   Thumb Code     0  libinit2.o(.ARM.Collect$$libinit$$00000015)
    __rt_lib_init_lc_numeric_1               0x08000243   Thumb Code     0  libinit2.o(.ARM.Collect$$libinit$$00000017)
    __rt_lib_init_lc_time_1                  0x08000243   Thumb Code     0  libinit2.o(.ARM.Collect$$libinit$$00000019)
    __rt_lib_init_preinit_1                  0x08000243   Thumb Code     0  libinit2.o(.ARM.Collect$$libinit$$00000004)
    __rt_lib_init_rand_1                     0x08000243   Thumb Code     0  libinit2.o(.ARM.Collect$$libinit$$0000000E)
    __rt_lib_init_return                     0x08000243   Thumb Code     0  libinit2.o(.ARM.Collect$$libinit$$00000033)
    __rt_lib_init_signal_1                   0x08000243   Thumb Code     0  libinit2.o(.ARM.Collect$$libinit$$0000001D)
    __rt_lib_init_stdio_1                    0x08000243   Thumb Code     0  libinit2.o(.ARM.Collect$$libinit$$00000025)
    __rt_lib_init_user_alloc_1               0x08000243   Thumb Code     0  libinit2.o(.ARM.Collect$$libinit$$0000000C)
    __rt_lib_shutdown                        0x08000245   Thumb Code     0  libshutdown.o(.ARM.Collect$$libshutdown$$00000000)
    __rt_lib_shutdown_cpp_1                  0x08000247   Thumb Code     0  libshutdown2.o(.ARM.Collect$$libshutdown$$00000002)
    __rt_lib_shutdown_fp_trap_1              0x08000247   Thumb Code     0  libshutdown2.o(.ARM.Collect$$libshutdown$$00000007)
    __rt_lib_shutdown_heap_1                 0x08000247   Thumb Code     0  libshutdown2.o(.ARM.Collect$$libshutdown$$0000000F)
    __rt_lib_shutdown_return                 0x08000247   Thumb Code     0  libshutdown2.o(.ARM.Collect$$libshutdown$$00000010)
    __rt_lib_shutdown_signal_1               0x08000247   Thumb Code     0  libshutdown2.o(.ARM.Collect$$libshutdown$$0000000A)
    __rt_lib_shutdown_stdio_1                0x08000247   Thumb Code     0  libshutdown2.o(.ARM.Collect$$libshutdown$$00000004)
    __rt_lib_shutdown_user_alloc_1           0x08000247   Thumb Code     0  libshutdown2.o(.ARM.Collect$$libshutdown$$0000000C)
    __rt_entry                               0x08000249   Thumb Code     0  __rtentry.o(.ARM.Collect$$rtentry$$00000000)
    __rt_entry_presh_1                       0x08000249   Thumb Code     0  __rtentry2.o(.ARM.Collect$$rtentry$$00000002)
    __rt_entry_sh                            0x08000249   Thumb Code     0  __rtentry4.o(.ARM.Collect$$rtentry$$00000004)
    __rt_entry_li                            0x0800024f   Thumb Code     0  __rtentry2.o(.ARM.Collect$$rtentry$$0000000A)
    __rt_entry_postsh_1                      0x0800024f   Thumb Code     0  __rtentry2.o(.ARM.Collect$$rtentry$$00000009)
    __rt_entry_main                          0x08000253   Thumb Code     0  __rtentry2.o(.ARM.Collect$$rtentry$$0000000D)
    __rt_entry_postli_1                      0x08000253   Thumb Code     0  __rtentry2.o(.ARM.Collect$$rtentry$$0000000C)
    __rt_exit                                0x0800025b   Thumb Code     0  rtexit.o(.ARM.Collect$$rtexit$$00000000)
    __rt_exit_ls                             0x0800025d   Thumb Code     0  rtexit2.o(.ARM.Collect$$rtexit$$00000003)
    __rt_exit_prels_1                        0x0800025d   Thumb Code     0  rtexit2.o(.ARM.Collect$$rtexit$$00000002)
    __rt_exit_exit                           0x08000261   Thumb Code     0  rtexit2.o(.ARM.Collect$$rtexit$$00000004)
    Reset_Handler                            0x08000269   Thumb Code     8  startup_stm32f405xx.o(.text)
    ADC_IRQHandler                           0x08000283   Thumb Code     0  startup_stm32f405xx.o(.text)
    CAN1_RX0_IRQHandler                      0x08000283   Thumb Code     0  startup_stm32f405xx.o(.text)
    CAN1_RX1_IRQHandler                      0x08000283   Thumb Code     0  startup_stm32f405xx.o(.text)
    CAN1_SCE_IRQHandler                      0x08000283   Thumb Code     0  startup_stm32f405xx.o(.text)
    CAN1_TX_IRQHandler                       0x08000283   Thumb Code     0  startup_stm32f405xx.o(.text)
    CAN2_RX0_IRQHandler                      0x08000283   Thumb Code     0  startup_stm32f405xx.o(.text)
    CAN2_RX1_IRQHandler                      0x08000283   Thumb Code     0  startup_stm32f405xx.o(.text)
    CAN2_SCE_IRQHandler                      0x08000283   Thumb Code     0  startup_stm32f405xx.o(.text)
    CAN2_TX_IRQHandler                       0x08000283   Thumb Code     0  startup_stm32f405xx.o(.text)
    DMA1_Stream0_IRQHandler                  0x08000283   Thumb Code     0  startup_stm32f405xx.o(.text)
    DMA1_Stream1_IRQHandler                  0x08000283   Thumb Code     0  startup_stm32f405xx.o(.text)
    DMA1_Stream3_IRQHandler                  0x08000283   Thumb Code     0  startup_stm32f405xx.o(.text)
    DMA1_Stream5_IRQHandler                  0x08000283   Thumb Code     0  startup_stm32f405xx.o(.text)
    DMA1_Stream6_IRQHandler                  0x08000283   Thumb Code     0  startup_stm32f405xx.o(.text)
    DMA1_Stream7_IRQHandler                  0x08000283   Thumb Code     0  startup_stm32f405xx.o(.text)
    DMA2_Stream0_IRQHandler                  0x08000283   Thumb Code     0  startup_stm32f405xx.o(.text)
    DMA2_Stream1_IRQHandler                  0x08000283   Thumb Code     0  startup_stm32f405xx.o(.text)
    DMA2_Stream3_IRQHandler                  0x08000283   Thumb Code     0  startup_stm32f405xx.o(.text)
    DMA2_Stream4_IRQHandler                  0x08000283   Thumb Code     0  startup_stm32f405xx.o(.text)
    DMA2_Stream5_IRQHandler                  0x08000283   Thumb Code     0  startup_stm32f405xx.o(.text)
    DMA2_Stream6_IRQHandler                  0x08000283   Thumb Code     0  startup_stm32f405xx.o(.text)
    EXTI0_IRQHandler                         0x08000283   Thumb Code     0  startup_stm32f405xx.o(.text)
    EXTI15_10_IRQHandler                     0x08000283   Thumb Code     0  startup_stm32f405xx.o(.text)
    EXTI1_IRQHandler                         0x08000283   Thumb Code     0  startup_stm32f405xx.o(.text)
    EXTI2_IRQHandler                         0x08000283   Thumb Code     0  startup_stm32f405xx.o(.text)
    EXTI3_IRQHandler                         0x08000283   Thumb Code     0  startup_stm32f405xx.o(.text)
    EXTI4_IRQHandler                         0x08000283   Thumb Code     0  startup_stm32f405xx.o(.text)
    EXTI9_5_IRQHandler                       0x08000283   Thumb Code     0  startup_stm32f405xx.o(.text)
    FLASH_IRQHandler                         0x08000283   Thumb Code     0  startup_stm32f405xx.o(.text)
    FMC_IRQHandler                           0x08000283   Thumb Code     0  startup_stm32f405xx.o(.text)
    FPU_IRQHandler                           0x08000283   Thumb Code     0  startup_stm32f405xx.o(.text)
    HASH_RNG_IRQHandler                      0x08000283   Thumb Code     0  startup_stm32f405xx.o(.text)
    I2C1_ER_IRQHandler                       0x08000283   Thumb Code     0  startup_stm32f405xx.o(.text)
    I2C1_EV_IRQHandler                       0x08000283   Thumb Code     0  startup_stm32f405xx.o(.text)
    I2C2_ER_IRQHandler                       0x08000283   Thumb Code     0  startup_stm32f405xx.o(.text)
    I2C2_EV_IRQHandler                       0x08000283   Thumb Code     0  startup_stm32f405xx.o(.text)
    I2C3_ER_IRQHandler                       0x08000283   Thumb Code     0  startup_stm32f405xx.o(.text)
    I2C3_EV_IRQHandler                       0x08000283   Thumb Code     0  startup_stm32f405xx.o(.text)
    OTG_FS_IRQHandler                        0x08000283   Thumb Code     0  startup_stm32f405xx.o(.text)
    OTG_FS_WKUP_IRQHandler                   0x08000283   Thumb Code     0  startup_stm32f405xx.o(.text)
    OTG_HS_EP1_IN_IRQHandler                 0x08000283   Thumb Code     0  startup_stm32f405xx.o(.text)
    OTG_HS_EP1_OUT_IRQHandler                0x08000283   Thumb Code     0  startup_stm32f405xx.o(.text)
    OTG_HS_IRQHandler                        0x08000283   Thumb Code     0  startup_stm32f405xx.o(.text)
    OTG_HS_WKUP_IRQHandler                   0x08000283   Thumb Code     0  startup_stm32f405xx.o(.text)
    PVD_IRQHandler                           0x08000283   Thumb Code     0  startup_stm32f405xx.o(.text)
    RCC_IRQHandler                           0x08000283   Thumb Code     0  startup_stm32f405xx.o(.text)
    RTC_Alarm_IRQHandler                     0x08000283   Thumb Code     0  startup_stm32f405xx.o(.text)
    RTC_WKUP_IRQHandler                      0x08000283   Thumb Code     0  startup_stm32f405xx.o(.text)
    SDIO_IRQHandler                          0x08000283   Thumb Code     0  startup_stm32f405xx.o(.text)
    SPI1_IRQHandler                          0x08000283   Thumb Code     0  startup_stm32f405xx.o(.text)
    SPI2_IRQHandler                          0x08000283   Thumb Code     0  startup_stm32f405xx.o(.text)
    SPI3_IRQHandler                          0x08000283   Thumb Code     0  startup_stm32f405xx.o(.text)
    TAMP_STAMP_IRQHandler                    0x08000283   Thumb Code     0  startup_stm32f405xx.o(.text)
    TIM1_BRK_TIM9_IRQHandler                 0x08000283   Thumb Code     0  startup_stm32f405xx.o(.text)
    TIM1_CC_IRQHandler                       0x08000283   Thumb Code     0  startup_stm32f405xx.o(.text)
    TIM1_TRG_COM_TIM11_IRQHandler            0x08000283   Thumb Code     0  startup_stm32f405xx.o(.text)
    TIM1_UP_TIM10_IRQHandler                 0x08000283   Thumb Code     0  startup_stm32f405xx.o(.text)
    TIM2_IRQHandler                          0x08000283   Thumb Code     0  startup_stm32f405xx.o(.text)
    TIM3_IRQHandler                          0x08000283   Thumb Code     0  startup_stm32f405xx.o(.text)
    TIM4_IRQHandler                          0x08000283   Thumb Code     0  startup_stm32f405xx.o(.text)
    TIM5_IRQHandler                          0x08000283   Thumb Code     0  startup_stm32f405xx.o(.text)
    TIM6_DAC_IRQHandler                      0x08000283   Thumb Code     0  startup_stm32f405xx.o(.text)
    TIM7_IRQHandler                          0x08000283   Thumb Code     0  startup_stm32f405xx.o(.text)
    TIM8_BRK_TIM12_IRQHandler                0x08000283   Thumb Code     0  startup_stm32f405xx.o(.text)
    TIM8_CC_IRQHandler                       0x08000283   Thumb Code     0  startup_stm32f405xx.o(.text)
    TIM8_TRG_COM_TIM14_IRQHandler            0x08000283   Thumb Code     0  startup_stm32f405xx.o(.text)
    TIM8_UP_TIM13_IRQHandler                 0x08000283   Thumb Code     0  startup_stm32f405xx.o(.text)
    UART5_IRQHandler                         0x08000283   Thumb Code     0  startup_stm32f405xx.o(.text)
    USART2_IRQHandler                        0x08000283   Thumb Code     0  startup_stm32f405xx.o(.text)
    USART3_IRQHandler                        0x08000283   Thumb Code     0  startup_stm32f405xx.o(.text)
    USART6_IRQHandler                        0x08000283   Thumb Code     0  startup_stm32f405xx.o(.text)
    WWDG_IRQHandler                          0x08000283   Thumb Code     0  startup_stm32f405xx.o(.text)
    __user_initial_stackheap                 0x08000285   Thumb Code     0  startup_stm32f405xx.o(.text)
    __aeabi_uldivmod                         0x080002a9   Thumb Code     0  lludivv7m.o(.text)
    _ll_udiv                                 0x080002a9   Thumb Code   238  lludivv7m.o(.text)
    memcmp                                   0x08000397   Thumb Code    88  memcmp.o(.text)
    __aeabi_memcpy                           0x080003ef   Thumb Code     0  rt_memcpy_v6.o(.text)
    __rt_memcpy                              0x080003ef   Thumb Code   138  rt_memcpy_v6.o(.text)
    _memcpy_lastbytes                        0x08000455   Thumb Code     0  rt_memcpy_v6.o(.text)
    __aeabi_memcpy4                          0x08000479   Thumb Code     0  rt_memcpy_w.o(.text)
    __aeabi_memcpy8                          0x08000479   Thumb Code     0  rt_memcpy_w.o(.text)
    __rt_memcpy_w                            0x08000479   Thumb Code   100  rt_memcpy_w.o(.text)
    _memcpy_lastbytes_aligned                0x080004c1   Thumb Code     0  rt_memcpy_w.o(.text)
    __aeabi_memclr                           0x080004dd   Thumb Code     0  rt_memclr.o(.text)
    __rt_memclr                              0x080004dd   Thumb Code    68  rt_memclr.o(.text)
    _memset                                  0x080004e1   Thumb Code     0  rt_memclr.o(.text)
    __aeabi_memclr4                          0x08000521   Thumb Code     0  rt_memclr_w.o(.text)
    __aeabi_memclr8                          0x08000521   Thumb Code     0  rt_memclr_w.o(.text)
    __rt_memclr_w                            0x08000521   Thumb Code    78  rt_memclr_w.o(.text)
    _memset_w                                0x08000525   Thumb Code     0  rt_memclr_w.o(.text)
    strcmp                                   0x08000571   Thumb Code   128  strcmpv7m.o(.text)
    __use_two_region_memory                  0x080005f1   Thumb Code     2  heapauxi.o(.text)
    __rt_heap_escrow$2region                 0x080005f3   Thumb Code     2  heapauxi.o(.text)
    __rt_heap_expand$2region                 0x080005f5   Thumb Code     2  heapauxi.o(.text)
    __read_errno                             0x080005f7   Thumb Code    10  _rserrno.o(.text)
    __set_errno                              0x08000601   Thumb Code    12  _rserrno.o(.text)
    __aeabi_errno_addr                       0x0800060d   Thumb Code     8  rt_errno_addr_intlibspace.o(.text)
    __errno$intlibspace                      0x0800060d   Thumb Code     0  rt_errno_addr_intlibspace.o(.text)
    __rt_errno_addr$intlibspace              0x0800060d   Thumb Code     0  rt_errno_addr_intlibspace.o(.text)
    __user_libspace                          0x08000615   Thumb Code     8  libspace.o(.text)
    __user_perproc_libspace                  0x08000615   Thumb Code     0  libspace.o(.text)
    __user_perthread_libspace                0x08000615   Thumb Code     0  libspace.o(.text)
    __user_setup_stackheap                   0x0800061d   Thumb Code    74  sys_stackheap_outer.o(.text)
    exit                                     0x08000667   Thumb Code    18  exit.o(.text)
    _sys_exit                                0x08000679   Thumb Code     8  sys_exit.o(.text)
    __I$use$semihosting                      0x08000685   Thumb Code     0  use_no_semi.o(.text)
    __use_no_semihosting_swi                 0x08000685   Thumb Code     2  use_no_semi.o(.text)
    __semihosting_library_function           0x08000687   Thumb Code     0  indicate_semi.o(.text)
    BusFault_Handler                         0x080007b1   Thumb Code     2  stm32f4xx_it.o(i.BusFault_Handler)
    DMA1_Stream2_IRQHandler                  0x080007b5   Thumb Code     6  stm32f4xx_it.o(i.DMA1_Stream2_IRQHandler)
    DMA1_Stream4_IRQHandler                  0x080007c1   Thumb Code     6  stm32f4xx_it.o(i.DMA1_Stream4_IRQHandler)
    DMA2_Stream2_IRQHandler                  0x080007cd   Thumb Code     6  stm32f4xx_it.o(i.DMA2_Stream2_IRQHandler)
    DMA2_Stream7_IRQHandler                  0x080007d9   Thumb Code     6  stm32f4xx_it.o(i.DMA2_Stream7_IRQHandler)
    DebugMon_Handler                         0x08000889   Thumb Code     2  stm32f4xx_it.o(i.DebugMon_Handler)
    Error_Handler                            0x0800088b   Thumb Code     4  main.o(i.Error_Handler)
    HAL_ADC_ConfigChannel                    0x08000891   Thumb Code   316  stm32f4xx_hal_adc.o(i.HAL_ADC_ConfigChannel)
    HAL_ADC_GetValue                         0x080009dd   Thumb Code     6  stm32f4xx_hal_adc.o(i.HAL_ADC_GetValue)
    HAL_ADC_Init                             0x080009e3   Thumb Code    84  stm32f4xx_hal_adc.o(i.HAL_ADC_Init)
    HAL_ADC_MspInit                          0x08000a39   Thumb Code    84  adc.o(i.HAL_ADC_MspInit)
    HAL_ADC_PollForConversion                0x08000a99   Thumb Code   170  stm32f4xx_hal_adc.o(i.HAL_ADC_PollForConversion)
    HAL_ADC_Start                            0x08000b45   Thumb Code   228  stm32f4xx_hal_adc.o(i.HAL_ADC_Start)
    HAL_ADC_Stop                             0x08000c41   Thumb Code    60  stm32f4xx_hal_adc.o(i.HAL_ADC_Stop)
    HAL_DMA_Abort                            0x08000c7d   Thumb Code   146  stm32f4xx_hal_dma.o(i.HAL_DMA_Abort)
    HAL_DMA_Abort_IT                         0x08000d0f   Thumb Code    36  stm32f4xx_hal_dma.o(i.HAL_DMA_Abort_IT)
    HAL_DMA_IRQHandler                       0x08000d35   Thumb Code   412  stm32f4xx_hal_dma.o(i.HAL_DMA_IRQHandler)
    HAL_DMA_Init                             0x08000ed5   Thumb Code   206  stm32f4xx_hal_dma.o(i.HAL_DMA_Init)
    HAL_DMA_Start_IT                         0x08000fa9   Thumb Code   110  stm32f4xx_hal_dma.o(i.HAL_DMA_Start_IT)
    HAL_Delay                                0x08001019   Thumb Code    32  stm32f4xx_hal.o(i.HAL_Delay)
    HAL_GPIO_Init                            0x0800103d   Thumb Code   450  stm32f4xx_hal_gpio.o(i.HAL_GPIO_Init)
    HAL_GPIO_ReadPin                         0x0800122d   Thumb Code    10  stm32f4xx_hal_gpio.o(i.HAL_GPIO_ReadPin)
    HAL_GPIO_WritePin                        0x08001237   Thumb Code    10  stm32f4xx_hal_gpio.o(i.HAL_GPIO_WritePin)
    HAL_GetTick                              0x08001241   Thumb Code     6  stm32f4xx_hal.o(i.HAL_GetTick)
    HAL_I2C_Init                             0x0800124d   Thumb Code   376  stm32f4xx_hal_i2c.o(i.HAL_I2C_Init)
    HAL_I2C_MspInit                          0x080013d5   Thumb Code   154  i2c.o(i.HAL_I2C_MspInit)
    HAL_IncTick                              0x08001481   Thumb Code    12  stm32f4xx_hal.o(i.HAL_IncTick)
    HAL_Init                                 0x08001491   Thumb Code    48  stm32f4xx_hal.o(i.HAL_Init)
    HAL_InitTick                             0x080014c5   Thumb Code    54  stm32f4xx_hal.o(i.HAL_InitTick)
    HAL_MspInit                              0x08001505   Thumb Code    42  stm32f4xx_hal_msp.o(i.HAL_MspInit)
    HAL_NVIC_EnableIRQ                       0x08001535   Thumb Code    26  stm32f4xx_hal_cortex.o(i.HAL_NVIC_EnableIRQ)
    HAL_NVIC_SetPriority                     0x08001551   Thumb Code    60  stm32f4xx_hal_cortex.o(i.HAL_NVIC_SetPriority)
    HAL_NVIC_SetPriorityGrouping             0x08001591   Thumb Code    26  stm32f4xx_hal_cortex.o(i.HAL_NVIC_SetPriorityGrouping)
    HAL_RCC_ClockConfig                      0x080015b5   Thumb Code   288  stm32f4xx_hal_rcc.o(i.HAL_RCC_ClockConfig)
    HAL_RCC_GetPCLK1Freq                     0x080016e9   Thumb Code    20  stm32f4xx_hal_rcc.o(i.HAL_RCC_GetPCLK1Freq)
    HAL_RCC_GetPCLK2Freq                     0x08001709   Thumb Code    20  stm32f4xx_hal_rcc.o(i.HAL_RCC_GetPCLK2Freq)
    HAL_RCC_GetSysClockFreq                  0x08001729   Thumb Code    88  stm32f4xx_hal_rcc.o(i.HAL_RCC_GetSysClockFreq)
    HAL_RCC_OscConfig                        0x08001789   Thumb Code   856  stm32f4xx_hal_rcc.o(i.HAL_RCC_OscConfig)
    HAL_SPI_Init                             0x08001af5   Thumb Code   188  stm32f4xx_hal_spi.o(i.HAL_SPI_Init)
    HAL_SPI_MspInit                          0x08001bb1   Thumb Code    92  spi.o(i.HAL_SPI_MspInit)
    HAL_SPI_Transmit                         0x08001c19   Thumb Code   358  stm32f4xx_hal_spi.o(i.HAL_SPI_Transmit)
    HAL_SPI_TransmitReceive                  0x08001d7f   Thumb Code   482  stm32f4xx_hal_spi.o(i.HAL_SPI_TransmitReceive)
    HAL_SYSTICK_Config                       0x08001f61   Thumb Code    40  stm32f4xx_hal_cortex.o(i.HAL_SYSTICK_Config)
    HAL_TIMEx_ConfigBreakDeadTime            0x08001f89   Thumb Code    84  stm32f4xx_hal_tim_ex.o(i.HAL_TIMEx_ConfigBreakDeadTime)
    HAL_TIMEx_MasterConfigSynchronization    0x08001fdd   Thumb Code   116  stm32f4xx_hal_tim_ex.o(i.HAL_TIMEx_MasterConfigSynchronization)
    HAL_TIM_Base_Init                        0x0800206d   Thumb Code    90  stm32f4xx_hal_tim.o(i.HAL_TIM_Base_Init)
    HAL_TIM_Base_MspInit                     0x080020c9   Thumb Code    30  tim.o(i.HAL_TIM_Base_MspInit)
    HAL_TIM_ConfigClockSource                0x080020f1   Thumb Code   220  stm32f4xx_hal_tim.o(i.HAL_TIM_ConfigClockSource)
    HAL_TIM_MspPostInit                      0x080021cd   Thumb Code    72  tim.o(i.HAL_TIM_MspPostInit)
    HAL_TIM_PWM_ConfigChannel                0x08002221   Thumb Code   204  stm32f4xx_hal_tim.o(i.HAL_TIM_PWM_ConfigChannel)
    HAL_TIM_PWM_Init                         0x080022ed   Thumb Code    90  stm32f4xx_hal_tim.o(i.HAL_TIM_PWM_Init)
    HAL_TIM_PWM_MspInit                      0x08002347   Thumb Code     2  stm32f4xx_hal_tim.o(i.HAL_TIM_PWM_MspInit)
    HAL_TIM_PWM_Start                        0x08002349   Thumb Code   172  stm32f4xx_hal_tim.o(i.HAL_TIM_PWM_Start)
    HAL_UARTEx_ReceiveToIdle_DMA             0x08002411   Thumb Code    86  stm32f4xx_hal_uart.o(i.HAL_UARTEx_ReceiveToIdle_DMA)
    HAL_UARTEx_RxEventCallback               0x08002469   Thumb Code    92  main.o(i.HAL_UARTEx_RxEventCallback)
    HAL_UART_DMAStop                         0x080024e1   Thumb Code   112  stm32f4xx_hal_uart.o(i.HAL_UART_DMAStop)
    HAL_UART_ErrorCallback                   0x08002551   Thumb Code     2  stm32f4xx_hal_uart.o(i.HAL_UART_ErrorCallback)
    HAL_UART_IRQHandler                      0x08002555   Thumb Code   610  stm32f4xx_hal_uart.o(i.HAL_UART_IRQHandler)
    HAL_UART_Init                            0x080027bd   Thumb Code    98  stm32f4xx_hal_uart.o(i.HAL_UART_Init)
    HAL_UART_MspInit                         0x08002821   Thumb Code   414  usart.o(i.HAL_UART_MspInit)
    HAL_UART_RxCpltCallback                  0x080029e1   Thumb Code     2  stm32f4xx_hal_uart.o(i.HAL_UART_RxCpltCallback)
    HAL_UART_RxHalfCpltCallback              0x080029e3   Thumb Code     2  stm32f4xx_hal_uart.o(i.HAL_UART_RxHalfCpltCallback)
    HAL_UART_Transmit_DMA                    0x080029e5   Thumb Code   126  stm32f4xx_hal_uart.o(i.HAL_UART_Transmit_DMA)
    HAL_UART_TxCpltCallback                  0x08002a71   Thumb Code     2  stm32f4xx_hal_uart.o(i.HAL_UART_TxCpltCallback)
    HAL_UART_TxHalfCpltCallback              0x08002a73   Thumb Code     2  stm32f4xx_hal_uart.o(i.HAL_UART_TxHalfCpltCallback)
    HardFault_Handler                        0x08002a75   Thumb Code     2  stm32f4xx_it.o(i.HardFault_Handler)
    MX_ADC1_Init                             0x08002a79   Thumb Code    88  adc.o(i.MX_ADC1_Init)
    MX_DMA_Init                              0x08002add   Thumb Code   104  dma.o(i.MX_DMA_Init)
    MX_GPIO_Init                             0x08002b49   Thumb Code   146  gpio.o(i.MX_GPIO_Init)
    MX_I2C1_Init                             0x08002be9   Thumb Code    50  i2c.o(i.MX_I2C1_Init)
    MX_I2C2_Init                             0x08002c29   Thumb Code    50  i2c.o(i.MX_I2C2_Init)
    MX_SPI1_Init                             0x08002c69   Thumb Code    62  spi.o(i.MX_SPI1_Init)
    MX_TIM8_Init                             0x08002cb1   Thumb Code   240  tim.o(i.MX_TIM8_Init)
    MX_UART4_Init                            0x08002da9   Thumb Code    54  usart.o(i.MX_UART4_Init)
    MX_USART1_UART_Init                      0x08002ded   Thumb Code    48  usart.o(i.MX_USART1_UART_Init)
    MemManage_Handler                        0x08002e25   Thumb Code     2  stm32f4xx_it.o(i.MemManage_Handler)
    NMI_Handler                              0x08002e27   Thumb Code     2  stm32f4xx_it.o(i.NMI_Handler)
    PendSV_Handler                           0x08002e29   Thumb Code     2  stm32f4xx_it.o(i.PendSV_Handler)
    SVC_Handler                              0x08002f3d   Thumb Code     2  stm32f4xx_it.o(i.SVC_Handler)
    Scheduler_init                           0x08002f41   Thumb Code     8  scheduler.o(i.Scheduler_init)
    Scheduler_run                            0x08002f4d   Thumb Code    54  scheduler.o(i.Scheduler_run)
    SysTick_Handler                          0x08002f89   Thumb Code     4  stm32f4xx_it.o(i.SysTick_Handler)
    SystemClock_Config                       0x08002f8d   Thumb Code   138  main.o(i.SystemClock_Config)
    SystemInit                               0x08003021   Thumb Code    12  system_stm32f4xx.o(i.SystemInit)
    TIM_Base_SetConfig                       0x08003031   Thumb Code   156  stm32f4xx_hal_tim.o(i.TIM_Base_SetConfig)
    TIM_CCxChannelCmd                        0x080030f9   Thumb Code    26  stm32f4xx_hal_tim.o(i.TIM_CCxChannelCmd)
    TIM_ETR_SetConfig                        0x08003113   Thumb Code    20  stm32f4xx_hal_tim.o(i.TIM_ETR_SetConfig)
    TIM_OC2_SetConfig                        0x08003199   Thumb Code    98  stm32f4xx_hal_tim.o(i.TIM_OC2_SetConfig)
    UART4_IRQHandler                         0x08003305   Thumb Code     6  stm32f4xx_it.o(i.UART4_IRQHandler)
    UART_Start_Receive_DMA                   0x08003689   Thumb Code   130  stm32f4xx_hal_uart.o(i.UART_Start_Receive_DMA)
    USART1_IRQHandler                        0x08003719   Thumb Code     6  stm32f4xx_it.o(i.USART1_IRQHandler)
    UsageFault_Handler                       0x08003725   Thumb Code     2  stm32f4xx_it.o(i.UsageFault_Handler)
    __ARM_fpclassify                         0x08003727   Thumb Code    48  fpclassify.o(i.__ARM_fpclassify)
    __hardfp_asin                            0x08003779   Thumb Code   770  asin.o(i.__hardfp_asin)
    __hardfp_atan                            0x08003ad9   Thumb Code   622  atan.o(i.__hardfp_atan)
    __hardfp_atan2                           0x08003db1   Thumb Code   432  atan2.o(i.__hardfp_atan2)
    __kernel_poly                            0x08003fa1   Thumb Code   248  poly.o(i.__kernel_poly)
    __mathlib_dbl_infnan                     0x08004099   Thumb Code    20  dunder.o(i.__mathlib_dbl_infnan)
    __mathlib_dbl_infnan2                    0x080040ad   Thumb Code    20  dunder.o(i.__mathlib_dbl_infnan2)
    __mathlib_dbl_invalid                    0x080040c1   Thumb Code    24  dunder.o(i.__mathlib_dbl_invalid)
    __mathlib_dbl_underflow                  0x080040e1   Thumb Code    24  dunder.o(i.__mathlib_dbl_underflow)
    atan                                     0x08004119   Thumb Code    16  atan.o(i.atan)
    fabs                                     0x08004145   Thumb Code    24  fabs.o(i.fabs)
    get_eulerAngle                           0x0800415d   Thumb Code   312  icm20602.o(i.get_eulerAngle)
    get_icm20602_accdata_spi                 0x080042ad   Thumb Code    44  icm20602.o(i.get_icm20602_accdata_spi)
    get_icm20602_gyro_spi                    0x080042dd   Thumb Code    44  icm20602.o(i.get_icm20602_gyro_spi)
    gyroOffsetInit                           0x0800430d   Thumb Code   156  icm20602.o(i.gyroOffsetInit)
    icm20602_init_spi                        0x080043b9   Thumb Code   106  icm20602.o(i.icm20602_init_spi)
    icm20602_self_check                      0x08004423   Thumb Code    32  icm20602.o(i.icm20602_self_check)
    icm20602_update                          0x08004445   Thumb Code   142  icm20602.o(i.icm20602_update)
    icmAHRSupdate                            0x080044dd   Thumb Code   438  icm20602.o(i.icmAHRSupdate)
    icmGetValues                             0x0800469d   Thumb Code   344  icm20602.o(i.icmGetValues)
    icm_spi_r_reg_byte                       0x0800481d   Thumb Code    68  icm20602.o(i.icm_spi_r_reg_byte)
    icm_spi_r_reg_bytes                      0x08004869   Thumb Code    50  icm20602.o(i.icm_spi_r_reg_bytes)
    icm_spi_w_reg_byte                       0x080048a5   Thumb Code    52  icm20602.o(i.icm_spi_w_reg_byte)
    init_flightcontrol                       0x080048e1   Thumb Code   150  flightcontrol.o(i.init_flightcontrol)
    led_blink                                0x08004991   Thumb Code    32  led.o(i.led_blink)
    main                                     0x080049b5   Thumb Code    94  main.o(i.main)
    motor_init                               0x080053bd   Thumb Code    98  motor.o(i.motor_init)
    motor_speed_update                       0x08005429   Thumb Code    30  motor.o(i.motor_speed_update)
    myRsqrt                                  0x08005451   Thumb Code    56  icm20602.o(i.myRsqrt)
    receive_mavlink_data                     0x0800548d   Thumb Code   238  cmavlink.o(i.receive_mavlink_data)
    sbus_update                              0x0800558d   Thumb Code   330  sbus.o(i.sbus_update)
    send_channels                            0x080056e1   Thumb Code     2  sbus.o(i.send_channels)
    send_mavlink                             0x080056e5   Thumb Code   504  cmavlink.o(i.send_mavlink)
    sqrt                                     0x08005905   Thumb Code   110  sqrt.o(i.sqrt)
    update_flightcontrol                     0x08005975   Thumb Code   500  flightcontrol.o(i.update_flightcontrol)
    update_pid                               0x08005bb5   Thumb Code   114  pid.o(i.update_pid)
    voltage_read                             0x08005c29   Thumb Code   120  voltage.o(i.voltage_read)
    __aeabi_dneg                             0x08005cb9   Thumb Code     0  basic.o(x$fpl$basic)
    _dneg                                    0x08005cb9   Thumb Code     6  basic.o(x$fpl$basic)
    __aeabi_fneg                             0x08005cbf   Thumb Code     0  basic.o(x$fpl$basic)
    _fneg                                    0x08005cbf   Thumb Code     6  basic.o(x$fpl$basic)
    _dabs                                    0x08005cc5   Thumb Code     6  basic.o(x$fpl$basic)
    _fabs                                    0x08005ccb   Thumb Code     6  basic.o(x$fpl$basic)
    __aeabi_d2f                              0x08005cd1   Thumb Code     0  d2f.o(x$fpl$d2f)
    _d2f                                     0x08005cd1   Thumb Code    98  d2f.o(x$fpl$d2f)
    __aeabi_dadd                             0x08005d35   Thumb Code     0  daddsub_clz.o(x$fpl$dadd)
    _dadd                                    0x08005d35   Thumb Code   332  daddsub_clz.o(x$fpl$dadd)
    __aeabi_ddiv                             0x08005e85   Thumb Code     0  ddiv.o(x$fpl$ddiv)
    _ddiv                                    0x08005e85   Thumb Code   552  ddiv.o(x$fpl$ddiv)
    __aeabi_ui2d                             0x08006135   Thumb Code     0  dflt_clz.o(x$fpl$dfltu)
    _dfltu                                   0x08006135   Thumb Code    38  dflt_clz.o(x$fpl$dfltu)
    __aeabi_dmul                             0x0800615d   Thumb Code     0  dmul.o(x$fpl$dmul)
    _dmul                                    0x0800615d   Thumb Code   332  dmul.o(x$fpl$dmul)
    __fpl_dnaninf                            0x080062b1   Thumb Code   156  dnaninf.o(x$fpl$dnaninf)
    __fpl_dretinf                            0x0800634d   Thumb Code    12  dretinf.o(x$fpl$dretinf)
    __aeabi_drsub                            0x08006359   Thumb Code     0  daddsub_clz.o(x$fpl$drsb)
    _drsb                                    0x08006359   Thumb Code    22  daddsub_clz.o(x$fpl$drsb)
    _dsqrt                                   0x08006371   Thumb Code   404  dsqrt_umaal.o(x$fpl$dsqrt)
    __aeabi_dsub                             0x08006509   Thumb Code     0  daddsub_clz.o(x$fpl$dsub)
    _dsub                                    0x08006509   Thumb Code   464  daddsub_clz.o(x$fpl$dsub)
    __aeabi_f2d                              0x080066dd   Thumb Code     0  f2d.o(x$fpl$f2d)
    _f2d                                     0x080066dd   Thumb Code    86  f2d.o(x$fpl$f2d)
    __fpl_fnaninf                            0x08006733   Thumb Code   140  fnaninf.o(x$fpl$fnaninf)
    _fp_init                                 0x080067bf   Thumb Code    10  fpinit.o(x$fpl$fpinit)
    __fplib_config_fpu_vfp                   0x080067c7   Thumb Code     0  fpinit.o(x$fpl$fpinit)
    __fplib_config_pureend_doubles           0x080067c7   Thumb Code     0  fpinit.o(x$fpl$fpinit)
    __fpl_fretinf                            0x080067c9   Thumb Code    10  fretinf.o(x$fpl$fretinf)
    __I$use$fp                               0x080067d2   Number         0  usenofp.o(x$fpl$usenofp)
    AHBPrescTable                            0x08007398   Data          16  system_stm32f4xx.o(.constdata)
    APBPrescTable                            0x080073a8   Data           8  system_stm32f4xx.o(.constdata)
    __mathlib_zero                           0x08007498   Data           8  qnan.o(.constdata)
    Region$$Table$$Base                      0x080074a0   Number         0  anon$$obj.o(Region$$Table)
    Region$$Table$$Limit                     0x080074c0   Number         0  anon$$obj.o(Region$$Table)
    task_num                                 0x20000000   Data           1  scheduler.o(.data)
    voltage_10                               0x20000064   Data           1  voltage.o(.data)
    adcData                                  0x20000066   Data           2  voltage.o(.data)
    voltage_ratio                            0x20000068   Data           4  voltage.o(.data)
    voltage                                  0x2000006c   Data           4  voltage.o(.data)
    motorA_speed                             0x20000070   Data           2  motor.o(.data)
    motorB_speed                             0x20000072   Data           2  motor.o(.data)
    motorC_speed                             0x20000074   Data           2  motor.o(.data)
    motorD_speed                             0x20000076   Data           2  motor.o(.data)
    send_channels_data                       0x20000078   Data          21  sbus.o(.data)
    sendflag                                 0x20000090   Data           1  icm20602.o(.data)
    rollint16                                0x20000092   Data           2  icm20602.o(.data)
    pitchint16                               0x20000094   Data           2  icm20602.o(.data)
    yawint16                                 0x20000096   Data           2  icm20602.o(.data)
    icm_gyro_x                               0x20000098   Data           2  icm20602.o(.data)
    icm_gyro_y                               0x2000009a   Data           2  icm20602.o(.data)
    icm_gyro_z                               0x2000009c   Data           2  icm20602.o(.data)
    icm_acc_x                                0x2000009e   Data           2  icm20602.o(.data)
    icm_acc_y                                0x200000a0   Data           2  icm20602.o(.data)
    icm_acc_z                                0x200000a2   Data           2  icm20602.o(.data)
    icm_kp                                   0x200000a4   Data           4  icm20602.o(.data)
    icm_ki                                   0x200000a8   Data           4  icm20602.o(.data)
    I_ex                                     0x200000ac   Data           4  icm20602.o(.data)
    I_ey                                     0x200000b0   Data           4  icm20602.o(.data)
    I_ez                                     0x200000b4   Data           4  icm20602.o(.data)
    roll                                     0x200000b8   Data           4  icm20602.o(.data)
    pitch                                    0x200000bc   Data           4  icm20602.o(.data)
    yaw                                      0x200000c0   Data           4  icm20602.o(.data)
    roll_rate                                0x200000c4   Data           4  icm20602.o(.data)
    pitch_rate                               0x200000c8   Data           4  icm20602.o(.data)
    yaw_rate                                 0x200000cc   Data           4  icm20602.o(.data)
    send_attitude                            0x200000d0   Data          11  icm20602.o(.data)
    Q_info                                   0x200000dc   Data          16  icm20602.o(.data)
    motorstop_flag                           0x200000ec   Data           1  flightcontrol.o(.data)
    pidoutthrottle                           0x200000f0   Data           4  flightcontrol.o(.data)
    pidoutroll                               0x200000f4   Data           4  flightcontrol.o(.data)
    pidoutpitch                              0x200000f8   Data           4  flightcontrol.o(.data)
    pidoutyaw                                0x200000fc   Data           4  flightcontrol.o(.data)
    integral_roll                            0x20000100   Data           4  flightcontrol.o(.data)
    integral_pitch                           0x20000104   Data           4  flightcontrol.o(.data)
    integral_yaw                             0x20000108   Data           4  flightcontrol.o(.data)
    roll_P                                   0x2000010c   Data           4  flightcontrol.o(.data)
    roll_I                                   0x20000110   Data           4  flightcontrol.o(.data)
    roll_D                                   0x20000114   Data           4  flightcontrol.o(.data)
    pitch_P                                  0x20000118   Data           4  flightcontrol.o(.data)
    pitch_I                                  0x2000011c   Data           4  flightcontrol.o(.data)
    pitch_D                                  0x20000120   Data           4  flightcontrol.o(.data)
    yaw_P                                    0x20000124   Data           4  flightcontrol.o(.data)
    yaw_I                                    0x20000128   Data           4  flightcontrol.o(.data)
    yaw_D                                    0x2000012c   Data           4  flightcontrol.o(.data)
    lasterr_roll_rate                        0x20000130   Data           4  flightcontrol.o(.data)
    lasterr_pitch_rate                       0x20000134   Data           4  flightcontrol.o(.data)
    lasterr_yaw_rate                         0x20000138   Data           4  flightcontrol.o(.data)
    desire_roll_rate                         0x2000013c   Data           4  flightcontrol.o(.data)
    desire_pitch_rate                        0x20000140   Data           4  flightcontrol.o(.data)
    desire_yaw_rate                          0x20000144   Data           4  flightcontrol.o(.data)
    desire_roll_angle                        0x20000148   Data           4  flightcontrol.o(.data)
    desire_pitch_angle                       0x2000014c   Data           4  flightcontrol.o(.data)
    desire_yaw_angle                         0x20000150   Data           4  flightcontrol.o(.data)
    chan                                     0x20000154   Data           1  cmavlink.o(.data)
    system_id                                0x20000155   Data           1  cmavlink.o(.data)
    component_id                             0x20000156   Data           1  cmavlink.o(.data)
    target_system_id                         0x20000157   Data           1  cmavlink.o(.data)
    target_component_id                      0x20000158   Data           1  cmavlink.o(.data)
    type                                     0x20000159   Data           1  cmavlink.o(.data)
    autopilot                                0x2000015a   Data           1  cmavlink.o(.data)
    base_mode                                0x2000015b   Data           1  cmavlink.o(.data)
    system_status                            0x2000015c   Data           1  cmavlink.o(.data)
    send_flag                                0x2000015d   Data           1  cmavlink.o(.data)
    send_param_flag                          0x2000015e   Data           1  cmavlink.o(.data)
    send_param_index                         0x2000015f   Data           1  cmavlink.o(.data)
    set_param_index                          0x20000160   Data           1  cmavlink.o(.data)
    len                                      0x20000162   Data           2  cmavlink.o(.data)
    param                                    0x20000164   Data         252  cmavlink.o(.data)
    uwTickFreq                               0x20000260   Data           1  stm32f4xx_hal.o(.data)
    uwTickPrio                               0x20000264   Data           4  stm32f4xx_hal.o(.data)
    uwTick                                   0x20000268   Data           4  stm32f4xx_hal.o(.data)
    SystemCoreClock                          0x2000026c   Data           4  system_stm32f4xx.o(.data)
    sbus_original_data                       0x20000270   Data          25  sbus.o(.bss)
    sbus_ch                                  0x2000028a   Data          32  sbus.o(.bss)
    eulerAngle                               0x200002ac   Data          12  icm20602.o(.bss)
    icm_data                                 0x200002b8   Data          24  icm20602.o(.bss)
    GyroOffset                               0x200002d0   Data          12  icm20602.o(.bss)
    rx_data1                                 0x200002dc   Data         256  main.o(.bss)
    rx_data4                                 0x200003dc   Data         128  main.o(.bss)
    hadc1                                    0x2000045c   Data          72  adc.o(.bss)
    hi2c1                                    0x200004a4   Data          84  i2c.o(.bss)
    hi2c2                                    0x200004f8   Data          84  i2c.o(.bss)
    hspi1                                    0x2000054c   Data          88  spi.o(.bss)
    htim8                                    0x200005a4   Data          72  tim.o(.bss)
    huart4                                   0x200005ec   Data          68  usart.o(.bss)
    huart1                                   0x20000630   Data          68  usart.o(.bss)
    hdma_uart4_rx                            0x20000674   Data          96  usart.o(.bss)
    hdma_uart4_tx                            0x200006d4   Data          96  usart.o(.bss)
    hdma_usart1_rx                           0x20000734   Data          96  usart.o(.bss)
    hdma_usart1_tx                           0x20000794   Data          96  usart.o(.bss)
    pbuf                                     0x200007f8   Data         512  cmavlink.o(.bss)
    status                                   0x20000ef8   Data          24  cmavlink.o(.bss)
    rec_mav_msg                              0x20000f10   Data         296  cmavlink.o(.bss)
    msg                                      0x20001038   Data         296  cmavlink.o(.bss)
    rec_msg_id                               0x20001160   Data          16  cmavlink.o(.bss)
    __libspace_start                         0x20001170   Data          96  libspace.o(.bss)
    __temporary_stack_top$libspace           0x200011d0   Data           0  libspace.o(.bss)



==============================================================================

Memory Map of the image

  Image Entry point : 0x08000189

  Load Region LR_IROM1 (Base: 0x08000000, Size: 0x00007730, Max: 0x00100000, ABSOLUTE, COMPRESSED[0x00007568])

    Execution Region ER_IROM1 (Base: 0x08000000, Size: 0x000074c0, Max: 0x00100000, ABSOLUTE)

    Base Addr    Size         Type   Attr      Idx    E Section Name        Object

    0x08000000   0x00000188   Data   RO            3    RESET               startup_stm32f405xx.o
    0x08000188   0x00000008   Code   RO         5358  * !!!main             c_w.l(__main.o)
    0x08000190   0x00000034   Code   RO         5650    !!!scatter          c_w.l(__scatter.o)
    0x080001c4   0x0000005a   Code   RO         5648    !!dczerorl2         c_w.l(__dczerorl2.o)
    0x0800021e   0x00000002   PAD
    0x08000220   0x0000001c   Code   RO         5652    !!handler_zi        c_w.l(__scatter_zi.o)
    0x0800023c   0x00000002   Code   RO         5519    .ARM.Collect$$libinit$$00000000  c_w.l(libinit.o)
    0x0800023e   0x00000004   Code   RO         5530    .ARM.Collect$$libinit$$00000001  c_w.l(libinit2.o)
    0x08000242   0x00000000   Code   RO         5533    .ARM.Collect$$libinit$$00000004  c_w.l(libinit2.o)
    0x08000242   0x00000000   Code   RO         5536    .ARM.Collect$$libinit$$0000000A  c_w.l(libinit2.o)
    0x08000242   0x00000000   Code   RO         5538    .ARM.Collect$$libinit$$0000000C  c_w.l(libinit2.o)
    0x08000242   0x00000000   Code   RO         5540    .ARM.Collect$$libinit$$0000000E  c_w.l(libinit2.o)
    0x08000242   0x00000000   Code   RO         5543    .ARM.Collect$$libinit$$00000011  c_w.l(libinit2.o)
    0x08000242   0x00000000   Code   RO         5545    .ARM.Collect$$libinit$$00000013  c_w.l(libinit2.o)
    0x08000242   0x00000000   Code   RO         5547    .ARM.Collect$$libinit$$00000015  c_w.l(libinit2.o)
    0x08000242   0x00000000   Code   RO         5549    .ARM.Collect$$libinit$$00000017  c_w.l(libinit2.o)
    0x08000242   0x00000000   Code   RO         5551    .ARM.Collect$$libinit$$00000019  c_w.l(libinit2.o)
    0x08000242   0x00000000   Code   RO         5553    .ARM.Collect$$libinit$$0000001B  c_w.l(libinit2.o)
    0x08000242   0x00000000   Code   RO         5555    .ARM.Collect$$libinit$$0000001D  c_w.l(libinit2.o)
    0x08000242   0x00000000   Code   RO         5557    .ARM.Collect$$libinit$$0000001F  c_w.l(libinit2.o)
    0x08000242   0x00000000   Code   RO         5559    .ARM.Collect$$libinit$$00000021  c_w.l(libinit2.o)
    0x08000242   0x00000000   Code   RO         5561    .ARM.Collect$$libinit$$00000023  c_w.l(libinit2.o)
    0x08000242   0x00000000   Code   RO         5563    .ARM.Collect$$libinit$$00000025  c_w.l(libinit2.o)
    0x08000242   0x00000000   Code   RO         5567    .ARM.Collect$$libinit$$0000002C  c_w.l(libinit2.o)
    0x08000242   0x00000000   Code   RO         5569    .ARM.Collect$$libinit$$0000002E  c_w.l(libinit2.o)
    0x08000242   0x00000000   Code   RO         5571    .ARM.Collect$$libinit$$00000030  c_w.l(libinit2.o)
    0x08000242   0x00000000   Code   RO         5573    .ARM.Collect$$libinit$$00000032  c_w.l(libinit2.o)
    0x08000242   0x00000002   Code   RO         5574    .ARM.Collect$$libinit$$00000033  c_w.l(libinit2.o)
    0x08000244   0x00000002   Code   RO         5605    .ARM.Collect$$libshutdown$$00000000  c_w.l(libshutdown.o)
    0x08000246   0x00000000   Code   RO         5631    .ARM.Collect$$libshutdown$$00000002  c_w.l(libshutdown2.o)
    0x08000246   0x00000000   Code   RO         5633    .ARM.Collect$$libshutdown$$00000004  c_w.l(libshutdown2.o)
    0x08000246   0x00000000   Code   RO         5636    .ARM.Collect$$libshutdown$$00000007  c_w.l(libshutdown2.o)
    0x08000246   0x00000000   Code   RO         5639    .ARM.Collect$$libshutdown$$0000000A  c_w.l(libshutdown2.o)
    0x08000246   0x00000000   Code   RO         5641    .ARM.Collect$$libshutdown$$0000000C  c_w.l(libshutdown2.o)
    0x08000246   0x00000000   Code   RO         5644    .ARM.Collect$$libshutdown$$0000000F  c_w.l(libshutdown2.o)
    0x08000246   0x00000002   Code   RO         5645    .ARM.Collect$$libshutdown$$00000010  c_w.l(libshutdown2.o)
    0x08000248   0x00000000   Code   RO         5402    .ARM.Collect$$rtentry$$00000000  c_w.l(__rtentry.o)
    0x08000248   0x00000000   Code   RO         5478    .ARM.Collect$$rtentry$$00000002  c_w.l(__rtentry2.o)
    0x08000248   0x00000006   Code   RO         5490    .ARM.Collect$$rtentry$$00000004  c_w.l(__rtentry4.o)
    0x0800024e   0x00000000   Code   RO         5480    .ARM.Collect$$rtentry$$00000009  c_w.l(__rtentry2.o)
    0x0800024e   0x00000004   Code   RO         5481    .ARM.Collect$$rtentry$$0000000A  c_w.l(__rtentry2.o)
    0x08000252   0x00000000   Code   RO         5483    .ARM.Collect$$rtentry$$0000000C  c_w.l(__rtentry2.o)
    0x08000252   0x00000008   Code   RO         5484    .ARM.Collect$$rtentry$$0000000D  c_w.l(__rtentry2.o)
    0x0800025a   0x00000002   Code   RO         5522    .ARM.Collect$$rtexit$$00000000  c_w.l(rtexit.o)
    0x0800025c   0x00000000   Code   RO         5578    .ARM.Collect$$rtexit$$00000002  c_w.l(rtexit2.o)
    0x0800025c   0x00000004   Code   RO         5579    .ARM.Collect$$rtexit$$00000003  c_w.l(rtexit2.o)
    0x08000260   0x00000006   Code   RO         5580    .ARM.Collect$$rtexit$$00000004  c_w.l(rtexit2.o)
    0x08000266   0x00000002   PAD
    0x08000268   0x00000040   Code   RO            4    .text               startup_stm32f405xx.o
    0x080002a8   0x000000ee   Code   RO         5342    .text               c_w.l(lludivv7m.o)
    0x08000396   0x00000058   Code   RO         5344    .text               c_w.l(memcmp.o)
    0x080003ee   0x0000008a   Code   RO         5346    .text               c_w.l(rt_memcpy_v6.o)
    0x08000478   0x00000064   Code   RO         5348    .text               c_w.l(rt_memcpy_w.o)
    0x080004dc   0x00000044   Code   RO         5350    .text               c_w.l(rt_memclr.o)
    0x08000520   0x0000004e   Code   RO         5352    .text               c_w.l(rt_memclr_w.o)
    0x0800056e   0x00000002   PAD
    0x08000570   0x00000080   Code   RO         5354    .text               c_w.l(strcmpv7m.o)
    0x080005f0   0x00000006   Code   RO         5356    .text               c_w.l(heapauxi.o)
    0x080005f6   0x00000016   Code   RO         5407    .text               c_w.l(_rserrno.o)
    0x0800060c   0x00000008   Code   RO         5497    .text               c_w.l(rt_errno_addr_intlibspace.o)
    0x08000614   0x00000008   Code   RO         5503    .text               c_w.l(libspace.o)
    0x0800061c   0x0000004a   Code   RO         5506    .text               c_w.l(sys_stackheap_outer.o)
    0x08000666   0x00000012   Code   RO         5508    .text               c_w.l(exit.o)
    0x08000678   0x0000000c   Code   RO         5575    .text               c_w.l(sys_exit.o)
    0x08000684   0x00000002   Code   RO         5594    .text               c_w.l(use_no_semi.o)
    0x08000686   0x00000000   Code   RO         5596    .text               c_w.l(indicate_semi.o)
    0x08000686   0x00000002   PAD
    0x08000688   0x00000128   Code   RO         1796    i.ADC_Init          stm32f4xx_hal_adc.o
    0x080007b0   0x00000002   Code   RO         1532    i.BusFault_Handler  stm32f4xx_it.o
    0x080007b2   0x00000002   PAD
    0x080007b4   0x0000000c   Code   RO         1533    i.DMA1_Stream2_IRQHandler  stm32f4xx_it.o
    0x080007c0   0x0000000c   Code   RO         1534    i.DMA1_Stream4_IRQHandler  stm32f4xx_it.o
    0x080007cc   0x0000000c   Code   RO         1535    i.DMA2_Stream2_IRQHandler  stm32f4xx_it.o
    0x080007d8   0x0000000c   Code   RO         1536    i.DMA2_Stream7_IRQHandler  stm32f4xx_it.o
    0x080007e4   0x00000028   Code   RO         2530    i.DMA_CalcBaseAndBitshift  stm32f4xx_hal_dma.o
    0x0800080c   0x00000054   Code   RO         2531    i.DMA_CheckFifoParam  stm32f4xx_hal_dma.o
    0x08000860   0x00000028   Code   RO         2532    i.DMA_SetConfig     stm32f4xx_hal_dma.o
    0x08000888   0x00000002   Code   RO         1537    i.DebugMon_Handler  stm32f4xx_it.o
    0x0800088a   0x00000004   Code   RO         1203    i.Error_Handler     main.o
    0x0800088e   0x00000002   PAD
    0x08000890   0x0000014c   Code   RO         1798    i.HAL_ADC_ConfigChannel  stm32f4xx_hal_adc.o
    0x080009dc   0x00000006   Code   RO         1805    i.HAL_ADC_GetValue  stm32f4xx_hal_adc.o
    0x080009e2   0x00000054   Code   RO         1807    i.HAL_ADC_Init      stm32f4xx_hal_adc.o
    0x08000a36   0x00000002   PAD
    0x08000a38   0x00000060   Code   RO         1281    i.HAL_ADC_MspInit   adc.o
    0x08000a98   0x000000aa   Code   RO         1811    i.HAL_ADC_PollForConversion  stm32f4xx_hal_adc.o
    0x08000b42   0x00000002   PAD
    0x08000b44   0x000000fc   Code   RO         1813    i.HAL_ADC_Start     stm32f4xx_hal_adc.o
    0x08000c40   0x0000003c   Code   RO         1816    i.HAL_ADC_Stop      stm32f4xx_hal_adc.o
    0x08000c7c   0x00000092   Code   RO         2533    i.HAL_DMA_Abort     stm32f4xx_hal_dma.o
    0x08000d0e   0x00000024   Code   RO         2534    i.HAL_DMA_Abort_IT  stm32f4xx_hal_dma.o
    0x08000d32   0x00000002   PAD
    0x08000d34   0x000001a0   Code   RO         2538    i.HAL_DMA_IRQHandler  stm32f4xx_hal_dma.o
    0x08000ed4   0x000000d4   Code   RO         2539    i.HAL_DMA_Init      stm32f4xx_hal_dma.o
    0x08000fa8   0x0000006e   Code   RO         2543    i.HAL_DMA_Start_IT  stm32f4xx_hal_dma.o
    0x08001016   0x00000002   PAD
    0x08001018   0x00000024   Code   RO         2952    i.HAL_Delay         stm32f4xx_hal.o
    0x0800103c   0x000001f0   Code   RO         2426    i.HAL_GPIO_Init     stm32f4xx_hal_gpio.o
    0x0800122c   0x0000000a   Code   RO         2428    i.HAL_GPIO_ReadPin  stm32f4xx_hal_gpio.o
    0x08001236   0x0000000a   Code   RO         2430    i.HAL_GPIO_WritePin  stm32f4xx_hal_gpio.o
    0x08001240   0x0000000c   Code   RO         2958    i.HAL_GetTick       stm32f4xx_hal.o
    0x0800124c   0x00000188   Code   RO         3214    i.HAL_I2C_Init      stm32f4xx_hal_i2c.o
    0x080013d4   0x000000ac   Code   RO         1347    i.HAL_I2C_MspInit   i2c.o
    0x08001480   0x00000010   Code   RO         2964    i.HAL_IncTick       stm32f4xx_hal.o
    0x08001490   0x00000034   Code   RO         2965    i.HAL_Init          stm32f4xx_hal.o
    0x080014c4   0x00000040   Code   RO         2966    i.HAL_InitTick      stm32f4xx_hal.o
    0x08001504   0x00000030   Code   RO         1644    i.HAL_MspInit       stm32f4xx_hal_msp.o
    0x08001534   0x0000001a   Code   RO         2815    i.HAL_NVIC_EnableIRQ  stm32f4xx_hal_cortex.o
    0x0800154e   0x00000002   PAD
    0x08001550   0x00000040   Code   RO         2821    i.HAL_NVIC_SetPriority  stm32f4xx_hal_cortex.o
    0x08001590   0x00000024   Code   RO         2822    i.HAL_NVIC_SetPriorityGrouping  stm32f4xx_hal_cortex.o
    0x080015b4   0x00000134   Code   RO         2072    i.HAL_RCC_ClockConfig  stm32f4xx_hal_rcc.o
    0x080016e8   0x00000020   Code   RO         2079    i.HAL_RCC_GetPCLK1Freq  stm32f4xx_hal_rcc.o
    0x08001708   0x00000020   Code   RO         2080    i.HAL_RCC_GetPCLK2Freq  stm32f4xx_hal_rcc.o
    0x08001728   0x00000060   Code   RO         2081    i.HAL_RCC_GetSysClockFreq  stm32f4xx_hal_rcc.o
    0x08001788   0x0000036c   Code   RO         2084    i.HAL_RCC_OscConfig  stm32f4xx_hal_rcc.o
    0x08001af4   0x000000bc   Code   RO         3664    i.HAL_SPI_Init      stm32f4xx_hal_spi.o
    0x08001bb0   0x00000068   Code   RO         1395    i.HAL_SPI_MspInit   spi.o
    0x08001c18   0x00000166   Code   RO         3672    i.HAL_SPI_Transmit  stm32f4xx_hal_spi.o
    0x08001d7e   0x000001e2   Code   RO         3673    i.HAL_SPI_TransmitReceive  stm32f4xx_hal_spi.o
    0x08001f60   0x00000028   Code   RO         2826    i.HAL_SYSTICK_Config  stm32f4xx_hal_cortex.o
    0x08001f88   0x00000054   Code   RO         4684    i.HAL_TIMEx_ConfigBreakDeadTime  stm32f4xx_hal_tim_ex.o
    0x08001fdc   0x00000090   Code   RO         4700    i.HAL_TIMEx_MasterConfigSynchronization  stm32f4xx_hal_tim_ex.o
    0x0800206c   0x0000005a   Code   RO         3977    i.HAL_TIM_Base_Init  stm32f4xx_hal_tim.o
    0x080020c6   0x00000002   PAD
    0x080020c8   0x00000028   Code   RO         1437    i.HAL_TIM_Base_MspInit  tim.o
    0x080020f0   0x000000dc   Code   RO         3986    i.HAL_TIM_ConfigClockSource  stm32f4xx_hal_tim.o
    0x080021cc   0x00000054   Code   RO         1438    i.HAL_TIM_MspPostInit  tim.o
    0x08002220   0x000000cc   Code   RO         4049    i.HAL_TIM_PWM_ConfigChannel  stm32f4xx_hal_tim.o
    0x080022ec   0x0000005a   Code   RO         4052    i.HAL_TIM_PWM_Init  stm32f4xx_hal_tim.o
    0x08002346   0x00000002   Code   RO         4054    i.HAL_TIM_PWM_MspInit  stm32f4xx_hal_tim.o
    0x08002348   0x000000c8   Code   RO         4057    i.HAL_TIM_PWM_Start  stm32f4xx_hal_tim.o
    0x08002410   0x00000056   Code   RO         4957    i.HAL_UARTEx_ReceiveToIdle_DMA  stm32f4xx_hal_uart.o
    0x08002466   0x00000002   PAD
    0x08002468   0x00000078   Code   RO         1204    i.HAL_UARTEx_RxEventCallback  main.o
    0x080024e0   0x00000070   Code   RO         4971    i.HAL_UART_DMAStop  stm32f4xx_hal_uart.o
    0x08002550   0x00000002   Code   RO         4973    i.HAL_UART_ErrorCallback  stm32f4xx_hal_uart.o
    0x08002552   0x00000002   PAD
    0x08002554   0x00000268   Code   RO         4976    i.HAL_UART_IRQHandler  stm32f4xx_hal_uart.o
    0x080027bc   0x00000062   Code   RO         4977    i.HAL_UART_Init     stm32f4xx_hal_uart.o
    0x0800281e   0x00000002   PAD
    0x08002820   0x000001c0   Code   RO         1485    i.HAL_UART_MspInit  usart.o
    0x080029e0   0x00000002   Code   RO         4983    i.HAL_UART_RxCpltCallback  stm32f4xx_hal_uart.o
    0x080029e2   0x00000002   Code   RO         4984    i.HAL_UART_RxHalfCpltCallback  stm32f4xx_hal_uart.o
    0x080029e4   0x0000008c   Code   RO         4986    i.HAL_UART_Transmit_DMA  stm32f4xx_hal_uart.o
    0x08002a70   0x00000002   Code   RO         4988    i.HAL_UART_TxCpltCallback  stm32f4xx_hal_uart.o
    0x08002a72   0x00000002   Code   RO         4989    i.HAL_UART_TxHalfCpltCallback  stm32f4xx_hal_uart.o
    0x08002a74   0x00000002   Code   RO         1538    i.HardFault_Handler  stm32f4xx_it.o
    0x08002a76   0x00000002   PAD
    0x08002a78   0x00000064   Code   RO         1282    i.MX_ADC1_Init      adc.o
    0x08002adc   0x0000006c   Code   RO         1322    i.MX_DMA_Init       dma.o
    0x08002b48   0x000000a0   Code   RO         1256    i.MX_GPIO_Init      gpio.o
    0x08002be8   0x00000040   Code   RO         1348    i.MX_I2C1_Init      i2c.o
    0x08002c28   0x00000040   Code   RO         1349    i.MX_I2C2_Init      i2c.o
    0x08002c68   0x00000048   Code   RO         1396    i.MX_SPI1_Init      spi.o
    0x08002cb0   0x000000f8   Code   RO         1439    i.MX_TIM8_Init      tim.o
    0x08002da8   0x00000044   Code   RO         1486    i.MX_UART4_Init     usart.o
    0x08002dec   0x00000038   Code   RO         1487    i.MX_USART1_UART_Init  usart.o
    0x08002e24   0x00000002   Code   RO         1539    i.MemManage_Handler  stm32f4xx_it.o
    0x08002e26   0x00000002   Code   RO         1540    i.NMI_Handler       stm32f4xx_it.o
    0x08002e28   0x00000002   Code   RO         1541    i.PendSV_Handler    stm32f4xx_it.o
    0x08002e2a   0x00000002   PAD
    0x08002e2c   0x00000058   Code   RO         3702    i.SPI_EndRxTxTransaction  stm32f4xx_hal_spi.o
    0x08002e84   0x000000b8   Code   RO         3707    i.SPI_WaitFlagStateUntilTimeout  stm32f4xx_hal_spi.o
    0x08002f3c   0x00000002   Code   RO         1542    i.SVC_Handler       stm32f4xx_it.o
    0x08002f3e   0x00000002   PAD
    0x08002f40   0x0000000c   Code   RO           13    i.Scheduler_init    scheduler.o
    0x08002f4c   0x0000003c   Code   RO           14    i.Scheduler_run     scheduler.o
    0x08002f88   0x00000004   Code   RO         1543    i.SysTick_Handler   stm32f4xx_it.o
    0x08002f8c   0x00000094   Code   RO         1205    i.SystemClock_Config  main.o
    0x08003020   0x00000010   Code   RO         5306    i.SystemInit        system_stm32f4xx.o
    0x08003030   0x000000c8   Code   RO         4070    i.TIM_Base_SetConfig  stm32f4xx_hal_tim.o
    0x080030f8   0x0000001a   Code   RO         4071    i.TIM_CCxChannelCmd  stm32f4xx_hal_tim.o
    0x08003112   0x00000014   Code   RO         4081    i.TIM_ETR_SetConfig  stm32f4xx_hal_tim.o
    0x08003126   0x00000010   Code   RO         4082    i.TIM_ITRx_SetConfig  stm32f4xx_hal_tim.o
    0x08003136   0x00000002   PAD
    0x08003138   0x00000060   Code   RO         4083    i.TIM_OC1_SetConfig  stm32f4xx_hal_tim.o
    0x08003198   0x0000006c   Code   RO         4084    i.TIM_OC2_SetConfig  stm32f4xx_hal_tim.o
    0x08003204   0x00000068   Code   RO         4085    i.TIM_OC3_SetConfig  stm32f4xx_hal_tim.o
    0x0800326c   0x00000050   Code   RO         4086    i.TIM_OC4_SetConfig  stm32f4xx_hal_tim.o
    0x080032bc   0x00000022   Code   RO         4088    i.TIM_TI1_ConfigInputStage  stm32f4xx_hal_tim.o
    0x080032de   0x00000024   Code   RO         4090    i.TIM_TI2_ConfigInputStage  stm32f4xx_hal_tim.o
    0x08003302   0x00000002   PAD
    0x08003304   0x0000000c   Code   RO         1544    i.UART4_IRQHandler  stm32f4xx_it.o
    0x08003310   0x00000010   Code   RO         4990    i.UART_DMAAbortOnError  stm32f4xx_hal_uart.o
    0x08003320   0x0000004a   Code   RO         4991    i.UART_DMAError     stm32f4xx_hal_uart.o
    0x0800336a   0x00000082   Code   RO         4992    i.UART_DMAReceiveCplt  stm32f4xx_hal_uart.o
    0x080033ec   0x0000001a   Code   RO         4994    i.UART_DMARxHalfCplt  stm32f4xx_hal_uart.o
    0x08003406   0x00000042   Code   RO         4996    i.UART_DMATransmitCplt  stm32f4xx_hal_uart.o
    0x08003448   0x0000000a   Code   RO         4998    i.UART_DMATxHalfCplt  stm32f4xx_hal_uart.o
    0x08003452   0x0000004e   Code   RO         5000    i.UART_EndRxTransfer  stm32f4xx_hal_uart.o
    0x080034a0   0x0000001c   Code   RO         5001    i.UART_EndTxTransfer  stm32f4xx_hal_uart.o
    0x080034bc   0x000000c0   Code   RO         5002    i.UART_Receive_IT   stm32f4xx_hal_uart.o
    0x0800357c   0x0000010c   Code   RO         5003    i.UART_SetConfig    stm32f4xx_hal_uart.o
    0x08003688   0x00000090   Code   RO         5004    i.UART_Start_Receive_DMA  stm32f4xx_hal_uart.o
    0x08003718   0x0000000c   Code   RO         1545    i.USART1_IRQHandler  stm32f4xx_it.o
    0x08003724   0x00000002   Code   RO         1546    i.UsageFault_Handler  stm32f4xx_it.o
    0x08003726   0x00000030   Code   RO         5460    i.__ARM_fpclassify  m_wm.l(fpclassify.o)
    0x08003756   0x00000020   Code   RO         2828    i.__NVIC_SetPriority  stm32f4xx_hal_cortex.o
    0x08003776   0x00000002   PAD
    0x08003778   0x00000360   Code   RO         5376    i.__hardfp_asin     m_wm.l(asin.o)
    0x08003ad8   0x000002d8   Code   RO         5426    i.__hardfp_atan     m_wm.l(atan.o)
    0x08003db0   0x000001f0   Code   RO         5390    i.__hardfp_atan2    m_wm.l(atan2.o)
    0x08003fa0   0x000000f8   Code   RO         5462    i.__kernel_poly     m_wm.l(poly.o)
    0x08004098   0x00000014   Code   RO         5441    i.__mathlib_dbl_infnan  m_wm.l(dunder.o)
    0x080040ac   0x00000014   Code   RO         5442    i.__mathlib_dbl_infnan2  m_wm.l(dunder.o)
    0x080040c0   0x00000020   Code   RO         5443    i.__mathlib_dbl_invalid  m_wm.l(dunder.o)
    0x080040e0   0x00000020   Code   RO         5446    i.__mathlib_dbl_underflow  m_wm.l(dunder.o)
    0x08004100   0x00000018   Code   RO         1668    i._mav_trim_payload  cmavlink.o
    0x08004118   0x00000010   Code   RO         5428    i.atan              m_wm.l(atan.o)
    0x08004128   0x0000001c   Code   RO         1669    i.crc_accumulate    cmavlink.o
    0x08004144   0x00000018   Code   RO         5456    i.fabs              m_wm.l(fabs.o)
    0x0800415c   0x00000150   Code   RO          318    i.get_eulerAngle    icm20602.o
    0x080042ac   0x00000030   Code   RO          319    i.get_icm20602_accdata_spi  icm20602.o
    0x080042dc   0x00000030   Code   RO          320    i.get_icm20602_gyro_spi  icm20602.o
    0x0800430c   0x000000ac   Code   RO          321    i.gyroOffsetInit    icm20602.o
    0x080043b8   0x0000006a   Code   RO          322    i.icm20602_init_spi  icm20602.o
    0x08004422   0x00000020   Code   RO          323    i.icm20602_self_check  icm20602.o
    0x08004442   0x00000002   PAD
    0x08004444   0x00000098   Code   RO          324    i.icm20602_update   icm20602.o
    0x080044dc   0x000001c0   Code   RO          325    i.icmAHRSupdate     icm20602.o
    0x0800469c   0x00000180   Code   RO          326    i.icmGetValues      icm20602.o
    0x0800481c   0x0000004c   Code   RO          327    i.icm_spi_r_reg_byte  icm20602.o
    0x08004868   0x0000003c   Code   RO          328    i.icm_spi_r_reg_bytes  icm20602.o
    0x080048a4   0x0000003c   Code   RO          329    i.icm_spi_w_reg_byte  icm20602.o
    0x080048e0   0x000000b0   Code   RO          442    i.init_flightcontrol  flightcontrol.o
    0x08004990   0x00000024   Code   RO          182    i.led_blink         led.o
    0x080049b4   0x00000070   Code   RO         1206    i.main              main.o
    0x08004a24   0x000001d8   Code   RO         1670    i.mavlink_finalize_message_buffer  cmavlink.o
    0x08004bfc   0x00000020   Code   RO         1671    i.mavlink_finalize_message_chan  cmavlink.o
    0x08004c1c   0x000002d4   Code   RO         1672    i.mavlink_frame_char_buffer  cmavlink.o
    0x08004ef0   0x000000be   Code   RO         1673    i.mavlink_msg_to_send_buffer  cmavlink.o
    0x08004fae   0x00000002   PAD
    0x08004fb0   0x00000124   Code   RO         1674    i.mavlink_sha256_calc  cmavlink.o
    0x080050d4   0x0000008c   Code   RO         1675    i.mavlink_sha256_final_48  cmavlink.o
    0x08005160   0x00000048   Code   RO         1676    i.mavlink_sha256_init  cmavlink.o
    0x080051a8   0x0000007e   Code   RO         1677    i.mavlink_sha256_update  cmavlink.o
    0x08005226   0x00000002   PAD
    0x08005228   0x00000170   Code   RO         1678    i.mavlink_signature_check  cmavlink.o
    0x08005398   0x00000008   Code   RO         1679    i.mavlink_start_checksum  cmavlink.o
    0x080053a0   0x0000001c   Code   RO         1680    i.mavlink_update_checksum  cmavlink.o
    0x080053bc   0x0000006c   Code   RO          247    i.motor_init        motor.o
    0x08005428   0x00000028   Code   RO          248    i.motor_speed_update  motor.o
    0x08005450   0x0000003c   Code   RO          330    i.myRsqrt           icm20602.o
    0x0800548c   0x00000100   Code   RO         1681    i.receive_mavlink_data  cmavlink.o
    0x0800558c   0x00000154   Code   RO          284    i.sbus_update       sbus.o
    0x080056e0   0x00000002   Code   RO          285    i.send_channels     sbus.o
    0x080056e2   0x00000002   PAD
    0x080056e4   0x00000220   Code   RO         1682    i.send_mavlink      cmavlink.o
    0x08005904   0x0000006e   Code   RO         5467    i.sqrt              m_wm.l(sqrt.o)
    0x08005972   0x00000002   PAD
    0x08005974   0x00000240   Code   RO          443    i.update_flightcontrol  flightcontrol.o
    0x08005bb4   0x00000072   Code   RO          424    i.update_pid        pid.o
    0x08005c26   0x00000002   PAD
    0x08005c28   0x00000090   Code   RO          212    i.voltage_read      voltage.o
    0x08005cb8   0x00000018   Code   RO         5409    x$fpl$basic         fz_wm.l(basic.o)
    0x08005cd0   0x00000062   Code   RO         5360    x$fpl$d2f           fz_wm.l(d2f.o)
    0x08005d32   0x00000002   PAD
    0x08005d34   0x00000150   Code   RO         5411    x$fpl$dadd          fz_wm.l(daddsub_clz.o)
    0x08005e84   0x000002b0   Code   RO         5363    x$fpl$ddiv          fz_wm.l(ddiv.o)
    0x08006134   0x00000026   Code   RO         5366    x$fpl$dfltu         fz_wm.l(dflt_clz.o)
    0x0800615a   0x00000002   PAD
    0x0800615c   0x00000154   Code   RO         5372    x$fpl$dmul          fz_wm.l(dmul.o)
    0x080062b0   0x0000009c   Code   RO         5417    x$fpl$dnaninf       fz_wm.l(dnaninf.o)
    0x0800634c   0x0000000c   Code   RO         5419    x$fpl$dretinf       fz_wm.l(dretinf.o)
    0x08006358   0x00000016   Code   RO         5412    x$fpl$drsb          fz_wm.l(daddsub_clz.o)
    0x0800636e   0x00000002   PAD
    0x08006370   0x00000198   Code   RO         5501    x$fpl$dsqrt         fz_wm.l(dsqrt_umaal.o)
    0x08006508   0x000001d4   Code   RO         5413    x$fpl$dsub          fz_wm.l(daddsub_clz.o)
    0x080066dc   0x00000056   Code   RO         5374    x$fpl$f2d           fz_wm.l(f2d.o)
    0x08006732   0x0000008c   Code   RO         5421    x$fpl$fnaninf       fz_wm.l(fnaninf.o)
    0x080067be   0x0000000a   Code   RO         5590    x$fpl$fpinit        fz_wm.l(fpinit.o)
    0x080067c8   0x0000000a   Code   RO         5423    x$fpl$fretinf       fz_wm.l(fretinf.o)
    0x080067d2   0x00000000   Code   RO         5425    x$fpl$usenofp       fz_wm.l(usenofp.o)
    0x080067d2   0x00000002   PAD
    0x080067d4   0x00000bbc   Data   RO         1684    .constdata          cmavlink.o
    0x08007390   0x00000008   Data   RO         2545    .constdata          stm32f4xx_hal_dma.o
    0x08007398   0x00000010   Data   RO         5307    .constdata          system_stm32f4xx.o
    0x080073a8   0x00000008   Data   RO         5308    .constdata          system_stm32f4xx.o
    0x080073b0   0x00000050   Data   RO         5379    .constdata          m_wm.l(asin.o)
    0x08007400   0x00000098   Data   RO         5429    .constdata          m_wm.l(atan.o)
    0x08007498   0x00000008   Data   RO         5464    .constdata          m_wm.l(qnan.o)
    0x080074a0   0x00000020   Data   RO         5646    Region$$Table       anon$$obj.o


    Execution Region RW_IRAM1 (Base: 0x20000000, Size: 0x000017d0, Max: 0x0001c000, ABSOLUTE, COMPRESSED[0x000000a8])

    Base Addr    Size         Type   Attr      Idx    E Section Name        Object

    0x20000000   0x00000064   Data   RW           15    .data               scheduler.o
    0x20000064   0x0000000c   Data   RW          213    .data               voltage.o
    0x20000070   0x00000008   Data   RW          249    .data               motor.o
    0x20000078   0x00000015   Data   RW          287    .data               sbus.o
    0x2000008d   0x00000003   PAD
    0x20000090   0x0000005c   Data   RW          332    .data               icm20602.o
    0x200000ec   0x00000068   Data   RW          444    .data               flightcontrol.o
    0x20000154   0x0000010c   Data   RW         1685    .data               cmavlink.o
    0x20000260   0x0000000c   Data   RW         2972    .data               stm32f4xx_hal.o
    0x2000026c   0x00000004   Data   RW         5309    .data               system_stm32f4xx.o
    0x20000270   0x0000003a   Zero   RW          286    .bss                sbus.o
    0x200002aa   0x00000002   PAD
    0x200002ac   0x00000030   Zero   RW          331    .bss                icm20602.o
    0x200002dc   0x00000180   Zero   RW         1207    .bss                main.o
    0x2000045c   0x00000048   Zero   RW         1283    .bss                adc.o
    0x200004a4   0x000000a8   Zero   RW         1350    .bss                i2c.o
    0x2000054c   0x00000058   Zero   RW         1397    .bss                spi.o
    0x200005a4   0x00000048   Zero   RW         1440    .bss                tim.o
    0x200005ec   0x00000208   Zero   RW         1488    .bss                usart.o
    0x200007f4   0x00000004   PAD
    0x200007f8   0x00000978   Zero   RW         1683    .bss                cmavlink.o
    0x20001170   0x00000060   Zero   RW         5504    .bss                c_w.l(libspace.o)
    0x200011d0   0x00000200   Zero   RW            2    HEAP                startup_stm32f405xx.o
    0x200013d0   0x00000400   Zero   RW            1    STACK               startup_stm32f405xx.o


    Execution Region RW_IRAM2 (Base: 0x2001c000, Size: 0x00000000, Max: 0x00004000, ABSOLUTE)

    **** No section assigned to this execution region ****


==============================================================================

Image component sizes


      Code (inc. data)   RO Data    RW Data    ZI Data      Debug   Object Name

       196         24          0          0         72       1633   adc.o
      3304        126       3004        268       2424      38073   cmavlink.o
       108          4          0          0          0        802   dma.o
       752        102          0        104          0       7777   flightcontrol.o
       160         14          0          0          0        935   gpio.o
       300         46          0          0        168       2282   i2c.o
      1982        138          0         92         48       9724   icm20602.o
        36          4          0          0          0        484   led.o
       384         56          0          0        384       3775   main.o
       148         20          0          8          0       1300   motor.o
       114          0          0          0          0        893   pid.o
       342         10          0         21         58       1734   sbus.o
        72         10          0        100          0     672740   scheduler.o
       176         22          0          0         88       1621   spi.o
        64         26        392          0       1536        828   startup_stm32f405xx.o
       180         28          0         12          0       9273   stm32f4xx_hal.o
      1200         52          0          0          0       5793   stm32f4xx_hal_adc.o
       198         14          0          0          0      33839   stm32f4xx_hal_cortex.o
      1084         16          8          0          0       7194   stm32f4xx_hal_dma.o
       516         46          0          0          0       2787   stm32f4xx_hal_gpio.o
       392         16          0          0          0       3083   stm32f4xx_hal_i2c.o
        48          6          0          0          0        822   stm32f4xx_hal_msp.o
      1344         72          0          0          0       5136   stm32f4xx_hal_rcc.o
      1300         12          0          0          0       6332   stm32f4xx_hal_spi.o
      1526        108          0          0          0      12728   stm32f4xx_hal_tim.o
       228         28          0          0          0       2112   stm32f4xx_hal_tim_ex.o
      2094         44          0          0          0      15810   stm32f4xx_hal_uart.o
        92         36          0          0          0       6757   stm32f4xx_it.o
        16          4         24          4          0       1079   system_stm32f4xx.o
       372         30          0          0         72       2380   tim.o
       572         56          0          0        520       2735   usart.o
       144         24          0         12          0        838   voltage.o

    ----------------------------------------------------------------------
     19488       1194       3460        624       5376     863299   Object Totals
         0          0         32          0          0          0   (incl. Generated)
        44          0          0          3          6          0   (incl. Padding)

    ----------------------------------------------------------------------

      Code (inc. data)   RO Data    RW Data    ZI Data      Debug   Library Member Name

        90          0          0          0          0          0   __dczerorl2.o
         8          0          0          0          0         68   __main.o
         0          0          0          0          0          0   __rtentry.o
        12          0          0          0          0          0   __rtentry2.o
         6          0          0          0          0          0   __rtentry4.o
        52          8          0          0          0          0   __scatter.o
        28          0          0          0          0          0   __scatter_zi.o
        22          0          0          0          0        100   _rserrno.o
        18          0          0          0          0         80   exit.o
         6          0          0          0          0        152   heapauxi.o
         0          0          0          0          0          0   indicate_semi.o
         2          0          0          0          0          0   libinit.o
         6          0          0          0          0          0   libinit2.o
         2          0          0          0          0          0   libshutdown.o
         2          0          0          0          0          0   libshutdown2.o
         8          4          0          0         96         68   libspace.o
       238          0          0          0          0        100   lludivv7m.o
        88          0          0          0          0         76   memcmp.o
         8          4          0          0          0         68   rt_errno_addr_intlibspace.o
        68          0          0          0          0         68   rt_memclr.o
        78          0          0          0          0         80   rt_memclr_w.o
       138          0          0          0          0         68   rt_memcpy_v6.o
       100          0          0          0          0         80   rt_memcpy_w.o
         2          0          0          0          0          0   rtexit.o
        10          0          0          0          0          0   rtexit2.o
       128          0          0          0          0         68   strcmpv7m.o
        12          4          0          0          0         68   sys_exit.o
        74          0          0          0          0         80   sys_stackheap_outer.o
         2          0          0          0          0         68   use_no_semi.o
        24          0          0          0          0        164   basic.o
        98          4          0          0          0        140   d2f.o
       826         16          0          0          0        492   daddsub_clz.o
       688        140          0          0          0        256   ddiv.o
        38          0          0          0          0        116   dflt_clz.o
       340         12          0          0          0        152   dmul.o
       156          4          0          0          0        140   dnaninf.o
        12          0          0          0          0        116   dretinf.o
       408         56          0          0          0        168   dsqrt_umaal.o
        86          4          0          0          0        132   f2d.o
       140          4          0          0          0        132   fnaninf.o
        10          0          0          0          0        116   fpinit.o
        10          0          0          0          0        116   fretinf.o
         0          0          0          0          0          0   usenofp.o
       864         94         80          0          0        280   asin.o
       744        106        152          0          0        352   atan.o
       496         64          0          0          0        192   atan2.o
       104         16          0          0          0        496   dunder.o
        24          0          0          0          0        124   fabs.o
        48          0          0          0          0        124   fpclassify.o
       248          0          0          0          0        152   poly.o
         0          0          8          0          0          0   qnan.o
       110          0          0          0          0        148   sqrt.o

    ----------------------------------------------------------------------
      6700        540        240          0         96       5400   Library Totals
        18          0          0          0          0          0   (incl. Padding)

    ----------------------------------------------------------------------

      Code (inc. data)   RO Data    RW Data    ZI Data      Debug   Library Name

      1208         20          0          0         96       1292   c_w.l
      2836        240          0          0          0       2240   fz_wm.l
      2638        280        240          0          0       1868   m_wm.l

    ----------------------------------------------------------------------
      6700        540        240          0         96       5400   Library Totals

    ----------------------------------------------------------------------

==============================================================================


      Code (inc. data)   RO Data    RW Data    ZI Data      Debug   

     26188       1734       3700        624       5472     851275   Grand Totals
     26188       1734       3700        168       5472     851275   ELF Image Totals (compressed)
     26188       1734       3700        168          0          0   ROM Totals

==============================================================================

    Total RO  Size (Code + RO Data)                29888 (  29.19kB)
    Total RW  Size (RW Data + ZI Data)              6096 (   5.95kB)
    Total ROM Size (Code + RO Data + RW Data)      30056 (  29.35kB)

==============================================================================

