:020000040800F2
:10000000D017002069020008272E0008752A000872
:10001000252E0008B1070008253700080000000061
:100020000000000000000000000000003D2F00085C
:100030008908000800000000292E0008892F000808
:10004000830200088302000883020008830200087C
:10005000830200088302000883020008830200086C
:10006000830200088302000883020008830200085C
:1000700083020008B507000883020008C1070008D2
:10008000830200088302000883020008830200083C
:10009000830200088302000883020008830200082C
:1000A000830200088302000883020008830200081C
:1000B000830200088302000883020008830200080C
:1000C00083020008830200088302000883020008FC
:1000D0008302000819370008830200088302000821
:1000E00083020008830200088302000883020008DC
:1000F00083020008830200088302000883020008CC
:1001000083020008830200088302000883020008BB
:1001100005330008830200088302000883020008F8
:100120008302000883020008CD070008830200084C
:1001300083020008000000000000000083020008A5
:10014000830200088302000883020008830200087B
:100150008302000883020008D90700088302000810
:10016000830200088302000883020008830200085B
:100170008302000883020008000000000000000065
:10018000830200088302000800F002F800F05CF827
:100190000AA090E8000C82448344AAF10107DA45E2
:1001A00001D100F051F8AFF2090EBAE80F0013F0D8
:1001B000010F18BFFB1A43F001031847E472000057
:1001C000047300000A444FF0000C10F8013B13F0D8
:1001D000070408BF10F8014B1D1108BF10F8015BA0
:1001E000641E05D010F8016B641E01F8016BF9D193
:1001F00013F0080F1EBF10F8014BAD1C0C1B09D1EA
:100200006D1E58BF01F801CBFAD505E014F8016B5B
:1002100001F8016B6D1EF9D59142D6D370470000ED
:100220000023002400250026103A28BF78C1FBD8FF
:10023000520728BF30C148BF0B6070471FB506F09A
:10024000BEFA1FBD10B510BD00F0E8F91146FFF76A
:10025000F5FF04F0AFFB00F006FA03B4FFF7F2FF7E
:1002600003BC00F009FA000009488047094800472C
:10027000FEE7FEE7FEE7FEE7FEE7FEE7FEE7FEE756
:10028000FEE7FEE704480549054A064B70470000B3
:100290002130000889010008D0110020D01700206B
:1002A000D0130020D013002053EA020C00F0698024
:1002B0002DE9F04B4FF00006002B1FBFB3FA83F57A
:1002C00003FA05F424FA05F65E4012BF1643B2FAAB
:1002D00082F502FA05F4C5F120051EBF22FA05FCDD
:1002E00044EA0C04203556EA044C4FEA144418BF83
:1002F000641C4FF000084FF00009904271EB030CB2
:1003000039D3002919BFB1FA81F701FA07F6B0FA1B
:1003100080F700FA07F6C7F120071EBF20FA07FC96
:1003200046EA0C062037B6FBF4FCA7EB0507103FA6
:1003300007F01F0BCBF120060CFA0BFB2CFA06F68C
:1003400044BFB3460026202FA4BF5E464FF0000BEB
:100350005BEA060C08BF4FF0010B19EB0B09ABFB76
:10036000027C48EB0608C01B06FB02CC0BFB03CC4F
:1003700071EB0C01C1E70B46024641464846BDE819
:10038000F08B13B54FF000004FF00001AFF3008089
:10039000BDE81C40704740EA010310B59B070FD130
:1003A000042A0DD310C808C9121F9C42F8D020BAE5
:1003B00019BA884201D9012010BD4FF0FF3010BD9D
:1003C0001AB1D30703D0521C07E0002010BD10F86B
:1003D000013B11F8014B1B1B07D110F8013B11F831
:1003E000014B1B1B01D1921EF1D1184610BD032AEF
:1003F00040F2308010F0030C00F0158011F8013B42
:10040000BCF1020F624498BF11F801CB00F8013B28
:1004100038BF11F8013BA2F1040298BF00F801CBEC
:1004200038BF00F8013B11F0030300F02580083AC3
:10043000C0F0088051F8043B083A51F804CBA0E81A
:100440000810F5E7121D5CBF51F8043B40F8043B6F
:10045000AFF30080D20724BF11F8013B11F801CBA4
:1004600048BF11F8012B24BF00F8013B00F801CB75
:1004700048BF00F8012B704710B5203AC0F00B8040
:10048000B1E81850203AA0E81850B1E81850A0E898
:100490001850BFF4F5AF5FEA027C24BFB1E81850F2
:1004A000A0E8185044BF18C918C0BDE810405FEA62
:1004B000827C24BF51F8043B40F8043B08BF7047DE
:1004C000D20728BF31F8023B48BF11F8012B28BFE3
:1004D00020F8023B48BF00F8012B70474FF00002A4
:1004E0000429C0F0128010F0030C00F01B80CCF146
:1004F000040CBCF1020F18BF00F8012BA8BF20F8B4
:10050000022BA1EB0C0100F00DB85FEAC17C24BF07
:1005100000F8012B00F8012B48BF00F8012B7047B1
:100520004FF0000200B5134694469646203922BF8C
:10053000A0E80C50A0E80C50B1F12001BFF4F7AFD7
:10054000090728BFA0E80C5048BF0CC05DF804EBB9
:10055000890028BF40F8042B08BF704748BF20F827
:10056000022B11F0804F18BF00F8012B70470000DC
:100570004FF0013C50F8042B51F8043B9A4221D132
:10058000A2EB0C03934313EACC1317D150F8042BBE
:1005900051F8043B9A4215D1A2EB0C03934313EAA2
:1005A000CC130BD150F8042B51F8043B9A4209D1DB
:1005B000A2EB0C03934313EACC13DBD04FF0000003
:1005C000704700BFD01A01BAB1FA81F101F01801E9
:1005D00022FA01F0CB40C1F12001DBB2C0B2C01A57
:1005E0002CFA01F3D11A914311EAC311E6D17047F5
:1005F00070477047704710B500F008F8006810BDEC
:1006000010B5044600F002F8046010BD00487047C1
:100610007011002000487047701100207546FFF7E8
:10062000F9FFAE4605006946534620F007008546AF
:1006300018B020B5FFF726FEBDE820404FF00006B9
:100640004FF000074FF000084FF0000B21F00701BA
:10065000AC46ACE8C009ACE8C009ACE8C009ACE8FD
:10066000C0098D46704710B50446AFF300802046A0
:10067000BDE81040FFF7F1BD01491820ABBEFEE711
:100680002600020070470000464910B54A6822F46F
:1006900040324A604A6843681A434A6001684A68BF
:1006A00022F480724A6001684A68036942EA0322C0
:1006B0004A6001684A6822F040724A6001684A68EC
:1006C00083681A434A6001688A6822F400628A607B
:1006D00001688A68C3681A438A60816A6FF0706231
:1006E000D14201688A6822F070628A6001688A6873
:1006F0000CD0836A1A438A6001688A6822F04052EB
:100700008A6001688A68C36A1A4301E022F0405295
:100710008A6001688A6822F002028A6001688A6839
:10072000037E42EA43028A6090F8201000290168A3
:100730004A680FD042F400624A6001684A6822F4B5
:1007400060424A6001684A68174C436A04EB4333CD
:100750001A4301E022F400624A600168CA6A22F486
:100760007002CA620168CA6A838B104C04EB03539F
:100770001A43CA6201688A6822F400728A600168BA
:100780008A6890F8303042EA43228A6001688A68B9
:1007900022F480628A6001688A68406942EA8020A7
:1007A000886010BD0023014000E0FFFF0000F0FF63
:1007B000FEE70000014800F0BDBA0000740600200A
:1007C000014800F0B7BA0000D4060020014800F04C
:1007D000B1BA000034070020014800F0ABBA0000B5
:1007E0009407002001681823CAB2103AB2FBF3F252
:1007F000054B6FF30901032A9B5CC36500D9091DF2
:1008000081650846704700009073000810B50146E6
:1008100000208B698A6A4FF0C07453B1B3F5005F52
:1008200015D072B1012A0CD0022A0AD0032A09D1AC
:1008300004E01AB1012A06D0022A03D1C96AC9010B
:1008400000D5012010BDC96AA142FAD010BD002A0E
:10085000F7D0012AF2D0022AF3D0032AF3D010BD38
:1008600030B50468256825F4802525600468636038
:100870008368402B036803D099600068C26030BD74
:100880009A600068C16030BD704772B6FEE7000034
:1008900078B50024009490F83C20012A19D0012258
:1008A00080F83C200A6807230568092A13D9EE68F6
:1008B0000A3A02EB420293409E43EE600B788A684C
:1008C0000A3B03EB43039A400368DD682A43DA607E
:1008D00010E0022078BD2E6902EB420293409E4355
:1008E0002E610B788A6803EB43039A4003681D6905
:1008F0002A431A614A681F23072A13D205686E6BC0
:10090000521E02EB820293409E436E630B790A886B
:100910005B1E92B203EB83039A4003685D6B2A432C
:100920005A6327E005680D2A12D22E6BD21F02EB04
:10093000820293409E432E630B790A88DB1F92B29A
:1009400003EB83039A4003681D6B2A431A6311E08B
:10095000EE6A0D3A02EB820293409E43EE620B79FF
:100960000A880D3B92B203EB83039A400368DD6A69
:100970002A43DA62164B0568144A9D4206D10D6877
:10098000122D03D1556845F48005556005689D42D8
:1009900018D10B68102B01D0112B13D1536843F4DD
:1009A00000035360096810290CD10A490A4A0968F2
:1009B000B1FBF2F101EB8101490000E0491E009119
:1009C0000029FBD180F83C40002078BD0023014085
:1009D000002001406C02002040420F000068C06C03
:1009E000704770B504004FF0000503D0206C00265E
:1009F00010B107E0012070BD204600F01DF86664CC
:100A000084F83C60206CC00610D4206C20F4885020
:100A100040F0020020642046FFF736FE6664206C3A
:100A200020F0020040F00100206400E0012584F87D
:100A30003C60284670BD000010B586B00446142105
:100A40006846FFF76DFD1149206888421CD11048A7
:100A50000021026842F480720260006800F4807035
:100A600005900B481438026842F0040202600068E6
:100A700000F004000590042000900320CDE901015E
:100A80006946044800F0DAFA06B010BD00200140C3
:100A900044380240000802402DE9F0410446006855
:100AA0000D4681684FF0000749050BD58068C005E9
:100AB00008D5206C40F02000206484F83C700120B0
:100AC000BDE8F08100F0BCFB064613E0681C11D0C5
:100AD00025B100F0B5FB801BA8420BD92068006847
:100AE000800707D4206C40F00400206484F83C7038
:100AF0000320E5E7206800688007E7D521686FF0EC
:100B000012000860206C40F4007020642068816846
:100B100011F0405F13D1217E89B9C16A11F4700FC1
:100B200002D0806840050AD4206C20F480702064D4
:100B3000206CC00403D4206C40F00100206400202D
:100B4000BEE7000018B50021009190F83C20012A72
:100B500007D0012280F83C2002689368DB0702D0AE
:100B600011E0022018BD936843F0010393602E4A00
:100B70002E4B1268B2FBF3F202EB420200E0521E6F
:100B80000092002AFBD102689368DB0742D0036C15
:100B900040F20164A34343F48073036453685B052C
:100BA00005D5036C23F4005343F480530364036CB2
:100BB000DB0404D5436C23F00603436400E0416486
:100BC00080F83C101A496FF02203136049680068EE
:100BD000CA06184906D0884224D1816811F0405FC6
:100BE00013D01FE08842F8D0134A904203D1D1F8C5
:100BF0000423D206F1D0114A904213D1D1F8041344
:100C000001F01F011029E8D30CE0816841F0804118
:100C1000816007E0016C41F010010164416C41F01A
:100C200001014164002018BD6C02002040420F0009
:100C3000002301400020014000210140002201402A
:100C400090F83C1001290CD0012180F83C1001687B
:100C50008A6822F001028A6001688968C90702D0A7
:100C600007E002207047016C21F4885141F0010136
:100C70000164002180F83C10084670472DE9F041DE
:100C80000446876D00F0DCFA064694F8350000252E
:100C9000022806D08020606584F834500120BDE829
:100CA000F0812068016821F0160101602068416927
:100CB00021F080014161206C08B9A06C20B120684E
:100CC000016821F0080101602068016821F001013C
:100CD00001600CE000F0B4FA801B052807D9202041
:100CE0006065032084F8350084F83450D7E7206825
:100CF0000068C007EED194F85C103F208840B860CF
:100D0000012084F8350084F834500020C7E790F8BB
:100D10003510022903D0802141650120704705214B
:100D200080F835100068016821F0010101600020A1
:100D3000704700002DE9F84304464FF00009CDF854
:100D4000009063484FF41651A56D0068B0FBF1F7B1
:100D50002E6894F85C10082000FA01F131420FD09F
:100D600021680A6852070BD50A6822F004020A605B
:100D700094F85C108840A860606D40F001006065E8
:100D800094F85C104FF0010808FA01F0304208D0E6
:100D900021684969090604D5A860606D40F0020029
:100DA000606594F85C1004208840304208D02168C7
:100DB0000968890704D5A860606D40F0040060658B
:100DC00094F85C1010208840304218D021680968DF
:100DD000090714D5A86020680168490304D5006894
:100DE000000308D5A16C07E00168C90503D40168B8
:100DF00021F008010160216C09B12046884794F870
:100E00005C1020208840304231D021680968C90632
:100E10002DD5A86094F8350005282068016806D013
:100E2000490347D5006800031DD4616C1CE021F024
:100E3000160101602068416921F080014161206C48
:100E400008B9A06C20B12068016821F00801016098
:100E500094F85C103F208840A86084F8358084F8BE
:100E60003490216D1FE0E16B09B120468847606D29
:100E700000282BD0606DC00714D0052084F8350001
:100E80002068016821F0010101600098401C009079
:100E9000B84203D820680068C007F6D184F83580CE
:100EA00084F83490E16C002910D001B02046BDE8F0
:100EB000F04308470168C905D5D4016821F0100145
:100EC000016084F8358084F83490CCE7BDE8F8837D
:100ED0006C0200202DE9F041044600F0B1F906460D
:100EE0005CB1022084F83500002584F83450206875
:100EF000016821F0010101600DE00120BDE8F081F1
:100F000000F09EF9801B052805D92020606503208C
:100F100084F83500F2E720680068C007F0D1226845
:100F2000116820480140D4E901031843D4E903368D
:100F30003343184363691843A3691843E3691843AB
:100F4000236A18430843616A042903D1D4E90B13C7
:100F500019430843106020684069666A20F0070161
:100F600030460E43012704280CD1A06A0643E06AEC
:100F700040B12046FFF74AFC20B14020606584F86C
:100F80003570BAE7206846612046FFF72BFC94F8DD
:100F90005C203F2191408160656584F835700020B8
:100FA000ACE700003F8010F02DE9F0410446866D6B
:100FB00090F83400002501280DD0012084F8340079
:100FC00094F835700020012F07D084F834000225F2
:100FD0002846BDE8F0810220FBE7022784F835703F
:100FE00060652046FFF73CFC94F85C103F20884089
:100FF000B0602068016841F016010160206C20B1EA
:101000002068016841F0080101602068016841F032
:1010100001010160DCE7000070B5044600F010F942
:101020000546601C02D004480078044400F008F92A
:10103000401BA042FAD370BD600200202DE9F84F9A
:10104000DFF8BCA1002201250AF1040B03264FF0B2
:101050000F090BF1040E00BF0B6805FA02F42340E0
:10106000A34270D10F7907F00307012F01D0022F9F
:1010700016D187684FEA420806FA08FC27EA0C07EF
:10108000D1F80CC00CFA08FC4CEA070CC0F808C0F8
:101090004768A7430C79C4F3001494403C43446070
:1010A0000C79E443A4070AD0C4684FEA420C06FA5C
:1010B0000CF7BC438F6807FA0CF72743C7600C791D
:1010C00004F00304022C12D1D40800EB840CDCF8E9
:1010D00020405707FF0E09FA07F824EA0804D1F860
:1010E000108008FA07F848EA0408CCF82080046861
:1010F0004FEA420C06FA0CF7BC430F7907F00307DE
:1011000007FA0CF7274307604C6814F4403F70D08F
:101110003C4C276847F480472760246822F0030787
:1011200004F480440094384C07EB040CDCF80848C5
:1011300097074FEA177809FA08F7BC43334FB842CC
:1011400002D1002724E054E0314FB84201D10127F9
:101150001EE0304FB84201D1022719E02E4FB842AD
:1011600001D1032714E02D4FB84201D104270FE02D
:101170002B4FB84201D105270AE02A4FB84201D1CE
:10118000062705E0284FB84201D1072700E00827CD
:1011900007FA08F72743CCF80878DAF800405746F2
:1011A000D1F804C09C435FEACC3C00D51C433C60B2
:1011B000DBF800405F46D1F804C09C435FEA8C3CFA
:1011C00000D51C433C60DEF800407746D1F804C0EF
:1011D0009C435FEACC2C00D51C433C60084F0C3785
:1011E0003C68D1F804C09C435FEA8C2C00D51C43BA
:1011F0003C60521C102AFFF42FAFBDE8F88F0000AE
:10120000003C0140443802400030014000000240F0
:101210000004024000080240000C0240001002409E
:101220000014024000180240001C024000690840FF
:1012300000D0012070470AB1816170470904FBE7C3
:1012400001488068704700006002002070B504000B
:1012500025D094F83D00002520B984F83C50204664
:1012600000F0B8F8242084F83D002068016821F0DF
:10127000010101602068016841F4004101602068BB
:10128000016821F40041016000F02EFA4D4A6168C6
:10129000914201D84C4900E04C49884201D20120DA
:1012A00070BD4B492368B0FBF1F15E6826F03F0644
:1012B0000E435E606368934206D94FF496735943B8
:1012C0004FF47A73B1FBF3F12368491C1E6A26F0D0
:1012D0003F06314319626168914210D84900401EAF
:1012E000B0FBF1F2521CC2F30B02042A01D204201B
:1012F00022E0B0FBF1F0401CC0F30B001CE0A26840
:10130000F2B301EBC10303EB0116431EB3FBF6F38B
:101310005B1C43F480431B0549D092B301EBC1022F
:1013200002EB0111401EB0FBF1F0401CC0F30B00BA
:1013300040F4804040F400402168CA694CF6FF73D5
:101340009A431043C861D4E907100143206802683A
:1013500022F0C00211430160D4E903010143206877
:10136000826848F2FF339A4311438160D4E9050152
:1013700008432168CA6822F0FF021043C86001E0F8
:101380000EE016E02068016841F00101016025646B
:10139000202084F83D00256384F83E50002070BD75
:1013A00001EB4106431EB3FBF6F35B1CB3E70120E0
:1013B000C2E701EB4101401EB0FBF1F0401CC0F35D
:1013C0000B00B7E7A086010080841E0000093D00E5
:1013D00040420F00F0B587B0044614216846FFF77D
:1013E0009FF82768234CDFF888C000222149122388
:1013F0000325042620481034674518D10F6847F0AC
:1014000002070F60096802AF01F002010591C021D7
:10141000CDE9001387E864006946FFF70FFE2068F6
:1014200040F400102060206800F400101CE0DFF899
:101430004CC0674519D10F6847F002070F60096873
:1014400002AF01F0020105914FF44061CDE90013B4
:1014500087E864006946FFF7F1FD206840F48000EA
:101460002060206800F48000059007B0F0BD000007
:101470000054004030380240000402400058004050
:101480000248816802781144816070476002002040
:101490000B4810B5016841F400710160016841F426
:1014A00080610160016841F480710160032000F0F7
:1014B0006FF80F2000F006F800F024F8002010BDAF
:1014C000003C024070B50D4D04464FF47A71287807
:1014D000B1FBF0F00A490968B1FBF0F000F040FD03
:1014E00048B9102C07D200222146501E00F030F8D7
:1014F00000206C6070BD012070BD00006002002003
:101500006C0200200A4808B5016841F4804101607E
:10151000006800F4804000900548001F016841F019
:1015200080510160006800F08050009008BD00000C
:1015300044380240002809DB00F01F0201219140DD
:101540004009800000F1E020C0F800117047000061
:10155000F0B40E4B1B680C46C3F30223C3F107051E
:10156000042D00D90425191D072901D2002300E00C
:10157000DB1E012606FA05F1491E214099409E40D6
:10158000761E16403143F0BC02F0E5B80CED00E0E9
:10159000064900F0070208684FF6FF03184040EACA
:1015A0000220034A10430860704700000CED00E081
:1015B0000000FA052DE9F0470E46050065D0DFF87A
:1015C0001481D8F80000F7B200F00700B04207D24B
:1015D00088F80070D8F8000000F00700B04254D13D
:1015E00028683D4C810712D5400703D5206840F498
:1015F000E05020602878000703D5206840F4604060
:1016000020602068A96820F0F00008432060287856
:10161000C0072DD0304968680839012812D0022847
:1016200013D0032811D00968890700292DDA216811
:1016300021F0030101432160FFF702FE814641F2E0
:10164000883A0EE009688903EFE709688901ECE749
:10165000FFF7F6FDA0EB0901514502D90320BDE8D3
:10166000F0872068696800F00C00B0EB810FEFD1C3
:10167000D8F80010404601F00701B14207D90770C1
:10168000006800F00700B04201D00120E7E72878A9
:10169000400705D52068E96820F4E0500843206041
:1016A0002878000706D52068296920F4604040EAC0
:1016B000C100206000F038F82168084AC1F3031126
:1016C000515CC8400649086006480068FFF7FAFE0A
:1016D0000020C4E7003C024008380240987300082C
:1016E0006C02002064020020044805490068096873
:1016F000044AC1F38221515CC84070476C0200204B
:1017000008380240A87300080448054900680968C1
:10171000044AC1F34231515CC84070476C0200205A
:1017200008380240A8730008154810B5006810F08A
:101730000C02144813D04110042A0FD0082A0ED1ED
:101740000F4C241F2268236802F03F025B0207D57A
:101750002068C0F38810A0FB010106E0084610BD18
:101760002168C1F38811A1FB00010023FEF79CFD55
:101770002168C1F30141491C4900B0FBF1F010BDE3
:10178000083802400024F4002DE9F84F04006ED020
:101790002078DFF84C93C007A9F104054AD009F17D
:1017A00004000168C1F38101012908D00068C0F379
:1017B000810002280AD1D9F80000400206D5286825
:1017C000800337D560680028E1D033E06068B0F569
:1017D000803F10D0B0F5A02F286810D020F48030C2
:1017E0002860286820F4802028606068A8B1FFF78E
:1017F00027FD06460DE0286840F48030F4E740F409
:1018000080202860F7E700BFFFF71AFD801B6428DF
:1018100073D828688003F7D50CE0FFF711FD064662
:1018200005E000BFFFF70CFD801B6428F0D8286896
:101830008003F7D42078DFF8AC8280074FF0000AED
:101840003ED5A748001D016811F00C0F08D00068B4
:10185000C0F3810002280BD1D9F80000400207D460
:101860002868800716D5E068012800D112E033E12E
:10187000E068B8B10120C8F80000FFF7E1FC0646B7
:1018800005E000BFFFF7DCFC801B0228C0D82868F9
:101890008007F7D52868216920F0F80040EAC100E8
:1018A00028600DE0C8F800A0FFF7CAFC064604E077
:1018B000FFF7C6FC801B02281FD828688007F7D4D2
:1018C0002078000722D5864F87486169703771B14B
:1018D00001210160FFF7B4FC064604E0FFF7B0FC0D
:1018E000801B022809D838688007F7D50EE0C0F8B9
:1018F00000A0FFF7A5FC064605E082E0FFF7A0FC8C
:10190000801B02287DD838688007F7D420784007EC
:1019100068D5DFF8CCB100270BF13C0BDBF80000F9
:10192000C0000BD4DBF8001041F08051CBF8001060
:10193000DBF80000012700F0805000906B4E30680B
:10194000C00510D4306840F480703060FFF778FC38
:10195000009005E0FFF774FC0099401A022850D867
:101960003068C005F6D55E4EA0686C3601280FD0F1
:101970000528306810D020F001003060306820F079
:1019800004003060A068B8B1FFF75AFC00900FE087
:10199000306840F00100F4E740F004003060F7E701
:1019A000FFF74EFC0099411A41F28830814266D817
:1019B00030688007F4D50EE0FFF742FC009007E0A6
:1019C000FFF73EFC0099411A41F28830814256D817
:1019D00030688007F4D42FB1DBF8001021F080517B
:1019E000CBF80010A069C8B33D49091D0968C1F3CF
:1019F000810102294AD00228504607D0C8F8600069
:101A000000E03CE0FFF71CFC04463BE04746C8F81A
:101A10006000FFF715FC064605E000BFFFF710FC6D
:101A2000801B02282BD828688001F7D4D4E907014D
:101A30000843A16A2E4A490802EB0141626A41EA61
:101A40008211084394F82C1040EA0161C9F8001093
:101A500001203866FFF7F4FB044606E03EE000BFD5
:101A6000FFF7EEFB001B022809D828688001F7D594
:101A700034E000BFFFF7E4FB001B022802D903207B
:101A8000BDE8F88F28688001F4D427E00128F7D05A
:101A9000D9F80000E26900F4800191421CD1226A69
:101AA00000F03F01914217D147F6C071626A0140D0
:101AB000B1EB821F10D1A26A4FF0FF3300F4403126
:101AC00003EB5202B1EB024F06D194F82C1000F058
:101AD0007060B0EB016F01D00120D1E70020CFE7AB
:101AE0000438024000004742800E47420070004028
:101AF0000000FFFF70B5040009D0606A002540B106
:101B000025616561A56294F8510040B10CE00120A7
:101B100070BD6068B0F5827FF4D0E561F2E784F8CB
:101B20005050204600F044F8022084F8510020680C
:101B3000016821F040010160A088218900F48270D1
:101B400001F404410843A18901F400610843217CA8
:101B500001F002010843217D01F001010843218BBE
:101B600001F400710843217F01F03801084394F823
:101B7000201001F080010843218D01F40051084339
:101B800021680860A069042101EA104094F824103B
:101B900001F010010843216848602068C16921F400
:101BA0000061C1616565012084F85100002070BDAD
:101BB00010B586B0044614216846FEF7B1FC1349FF
:101BC0002068884220D112480021026842F48052E5
:101BD0000260006800F4805005900D4814380268D7
:101BE00042F001020260006800F001000590E02070
:101BF00000900220CDE9010103200390052004900C
:101C000069460448FFF71AFA06B010BD00300140DB
:101C100044380240000002402DE9F84F044690F895
:101C2000500000271D461646894601280DD04FF06A
:101C3000010B84F850B0FFF703FB804694F8510085
:101C4000BA46012804D0022793E00220BDE8F88FAD
:101C5000B9F1000F73D0002E71D0032084F8510029
:101C6000C4F854A0C4F83090A686E686C4F838A01C
:101C7000A4F83CA0A4F83EA0C4F844A0C4F840A036
:101C8000A068B0F5004F09D12068016821F040013B
:101C900001602068016841F48041016020680168AA
:101CA000490603D4016841F040010160E068B0F5E5
:101CB000006F606803D030B3012E24D041E008B13A
:101CC000012E1CD1206B21680088C86006E02068C6
:101CD0008168890709D5216B0988C160206B801C48
:101CE0002063E08E401EE08609E0FFF7A9FAA0EB32
:101CF0000800A84202D3681C01D031E07DB3E08E19
:101D00000028E4D120E0206B21680078087306E009
:101D100020688168890709D5216B09780173206BD8
:101D2000401C2063E08E401EE0860AE0FFF788FA40
:101D3000A0EB0800A84203D3681C02D010E017E013
:101D40006DB1E08E0028E3D142462946204601F0DD
:101D50006DF808B120206065A06818B106E0FFE7C3
:101D6000032706E02068C16880680090606D00B1BC
:101D7000012784F851B084F850A0384666E72DE971
:101D8000F84F044690F8500000270A9E1D469246E0
:101D90008B464FF0010901280ED0012084F8500035
:101DA000FFF74EFA804694F85100616801280CD084
:101DB000B1F5827F07D102E00220BDE8F88FA1686B
:101DC00009B9042801D00227C2E0BBF1000F27D0D7
:101DD000BAF1000F24D01DB394F85100042802D0AA
:101DE000052084F8510000206065C4F838A0E5871C
:101DF000A587C4F830B0E586A586206460642068B5
:101E00000168490603D4016841F040010160E068BF
:101E1000B0F5006F606805D0E8B3012D46D07FE0D3
:101E2000012795E008B1012D39D1206B2168008888
:101E3000C860206B801C2063E08E401EE0862EE090
:101E40002068816889070FD5E18E69B1B9F1010F6A
:101E50000AD1216B0988C160206B801C2063E08E51
:101E6000401EE0864FF0000920688168C9070CD049
:101E7000E18F51B1C068A16B0880A06B801CA0638A
:101E8000E08F401EE0874FF00109FFF7D9F9A0EB82
:101E90000800B04200E009E001D3701C50D1E08E90
:101EA0000028CDD1E08F0028CAD13FE0206B216807
:101EB00000780873206B401C2063E08E401EE08693
:101EC0002EE02068816889070FD5E18E69B1B9F1EC
:101ED000010F0AD1216B09780173206B401C20632C
:101EE000E08E401EE0864FF0000920688168C90737
:101EF0000CD0E18F51B1C068A16B0870A06B401C81
:101F0000A063E08F401EE0874FF00109FFF798F9CA
:101F1000A0EB0800B04202D3701C01D010E07EB1EB
:101F2000E08E0028CDD1E08F0028CAD1424631464C
:101F3000204600F07BFF28B101272020606507E0E4
:101F4000032705E0A06818B92068C1688068009080
:101F5000012084F85100002084F8500038462CE716
:101F600010B5401EB0F1807F01D3012010BD4FF0AD
:101F7000E02460610F21601701F0EDFB0020A061FB
:101F800007202061002010BD10B590F83C20012AE8
:101F900022D0012280F83C20CA688C6822F440726A
:101FA00022434C6822F4806222430C6822F40062CF
:101FB00022430C6922F4805222434C6922F40052DD
:101FC0002243C969002322F480420A4301684A641B
:101FD00080F83C30002010BD022010BD70B590F894
:101FE0003C20012A32D0012480F83C40022280F8B3
:101FF0003D2003685A689D6822F070060A683243E3
:102000005A60134B02689A4214D0B2F1804F11D03B
:10201000104B9A420ED0104B9A420BD00F4B9A4263
:1020200008D00F4B9A4205D00E4B9A4202D00E4B6D
:102030009A4204D1496825F080031943916080F8E1
:102040003D40002180F83C10084670BD022070BD64
:10205000000001400004004000080040000C004067
:1020600000040140004001400018004010B5040089
:1020700003D094F83D0010B107E0012010BD00200E
:1020800084F83C00204600F01FF8022084F83D0050
:10209000211D206800F0CCFF012084F8460084F860
:1020A0003E0084F83F0084F8400084F8410084F842
:1020B000420084F8430084F8440084F8450084F822
:1020C0003D00002010BD000008B5006806498842A8
:1020D00008D10648016841F002010160006800F083
:1020E0000200009008BD0000000401404438024096
:1020F00070B5044690F83C000025012817D0012651
:1021000084F83C60022084F83D002068826822F058
:10211000770222F47F4282600868502838D00DDCB4
:1021200020284FD005DC90B3102811D14AE00220BE
:1021300070BD302846D040280AD13BE060282FD01F
:1021400070280DD0B0F5805F03D0B0F5005F12D0DD
:10215000012584F83D60002084F83C00284670BDCD
:10216000CB68D1E90121206800F0D3FF20688168A5
:1021700041F0770109E0CB68D1E90121206800F046
:10218000C8FF2068816841F480418160E1E719E07F
:10219000CA684968206801F091F85021206806E07B
:1021A000CA684968206801F09AF86021206800F048
:1021B000BAFFCEE7CA684968206801F07FF840217D
:1021C0002068F4E7226801461046F0E710B586B0B3
:1021D000044614216846FEF7A3F90E492068884298
:1021E00016D10D480021026842F004020260006826
:1021F00000F0040005904FF4707000900220CDE9CB
:1022000001010320CDE9031069460448FEF716FFDB
:1022100006B010BD00040140303802400008024002
:1022200070B5044690F83C0000260D4601280FD0FA
:10223000012084F83C006AB1042A1DD0082A2FD05E
:102240000C2A3FD00126002084F83C00304670BDA7
:10225000022070BD206800F06FFF2068816941F0A6
:10226000080181612068816921F004018161206891
:1022700081692A69114311E0206800F08DFF206810
:10228000816941F4006181612068816921F4806184
:102290008161206881692A6941EA02218161D2E76E
:1022A000206800F0AFFF2068C16941F00801C161FA
:1022B0002068C16921F00401C1612068C1692A69EF
:1022C000114311E0206800F0D1FF2068C16941F49A
:1022D0000061C1612068C16921F48061C161206829
:1022E000C1692A6941EA0221C161ACE710B5040065
:1022F00003D094F83D0010B107E0012010BD00208C
:1023000084F83C00204600F01EF8022084F83D00CE
:10231000211D206800F08CFE012084F8460084F81E
:102320003E0084F83F0084F8400084F8410084F8BF
:10233000420084F8430084F8440084F8450084F89F
:102340003D00002010BD704710B50446022249B17F
:1023500004290ED0082913D094F84100012816D082
:10236000012010BD94F83E000128F9D184F83E20E8
:102370000FE094F83F000128F2D184F83F2008E0F4
:1023800094F840000128EBD184F8402001E084F863
:1023900041200122206800F0AFFE16492068164A4D
:1023A000884201D0904203D1436C43F4004343641C
:1023B0002068884213D0B0F1804F10D00F49884276
:1023C0000DD00F4988420AD00E49884207D090426A
:1023D00005D00D49884202D00C49884204D1816859
:1023E00001F00701062903D0016841F001010160F5
:1023F000002010BD00000140000401400004004026
:1024000000080040000C004000400140001800405F
:1024100038B5044690F83E00202822D181B17AB127
:1024200094F83C0001281CD0012084F83C00206373
:10243000204601F029F9002803D1216B012901D0A0
:10244000012038BD21680A684968009121680C3173
:1024500051E8002F42F0100241E80023002BF5D193
:1024600038BD022038BD000070B50C46154A016821
:1024700091420DD100F034F84FF48075AC4203D88E
:10248000E1B2114803F002F82A460F490F4814E060
:102490000F4A914215D100F023F8192C0AD10D49A9
:1024A00008780F2806D10C4A00200B5C1354401CFE
:1024B0001928FADB074909488022BDE87040FFF778
:1024C000A7BF70BD00100140DC02002030060020D4
:1024D000004C0040DC03002070020020EC050020CE
:1024E00010B504460068406994F83D10C0F3C01070
:1024F000212911D180B12068143050E8001F21F04B
:10250000800140E80012002AF5D1606B08B1FEF7A7
:10251000B5FB204600F0C4FF2068406994F83E10E7
:10252000C0F38010222911D180B12068143050E806
:10253000001F21F0400140E80012002AF5D1A06BF5
:1025400008B1FEF79BFB204600F083FF002010BD82
:1025500070470000F8B5016804460868CA684B690E
:1025600010F00F0F4FF000055AD003F0010602F4EF
:102570009077374365D0C10705D0D10503D5216CCD
:1025800041F001012164410705D5D90703D0216C31
:1025900041F002012164810705D5D90703D0216CE0
:1025A00041F004012164010707D502F02001314305
:1025B00003D0216C41F008012164216C00293BD03B
:1025C000800604D5900602D5204600F077FF2068EB
:1025D0004069216CC0F3801001F0080101432046DE
:1025E0002BD000F036FF20684069400621D52068D6
:1025F000143050E8001F21F0400140E80012002A8A
:10260000F5D1A06BA8B16C490165A06BFEF77FFB0B
:10261000002811D0A06B016D01B0BDE8F040084763
:1026200083060ED593060CD52046BDE8F84000F091
:1026300045BF2046FFF78CFFF8BDFFF789FF2564F3
:10264000F8BD266B2023012E79D1C60677D5D60694
:1026500075D50868486800904869400640D5A16B68
:10266000086840680004000CEAD0A28D8242E7D9D5
:10267000E085C869B0F5807F2DD020680C3050E827
:10268000001F21F4807140E80012002AF5D1206873
:10269000143050E8001F21F0010140E80012002A28
:1026A000F5D12068143050E8001F21F0400140E8C7
:1026B0000012002AF5D184F83E30256320680C30E2
:1026C00050E8001F21F0100140E80012002AF5D167
:1026D000A06BFEF7D3FAA08DE18D401A81B229E0FC
:1026E000A08DE18D401A81B2E08D0028A8D000298C
:1026F000A6D020680C3050E8002F22F4907240E8F9
:102700000026002EF5D12068143050E8002F22F06A
:10271000010240E80026002EF5D184F83E30256302
:1027200020680C3050E8002F22F0100240E800230F
:10273000002BF5D12046FFF797FEF8BDFFE7050611
:102740002BD5150629D594F83D002128F5D1A06890
:10275000B0F5805F01D12069B0B1206A411C2162CF
:10276000216800784860E08C401E0004000CE08482
:10277000E3D12068C16821F08001C1602068C16890
:1027800041F04001C160D8E7206A0088C0F308002A
:102790004860206A801C2062E5E74006CDD55006DF
:1027A000CBD5CA68204622F04002CA6084F83D308A
:1027B00000F05EF9C1E700001133000870B50400B5
:1027C00004D094F83D00002510B106E0012070BD52
:1027D00084F83C50204600F023F8242084F83D0083
:1027E0002068C16821F40051C160204600F0C6FE97
:1027F0002068016921F4904101612068416921F05C
:102800002A0141612068C16841F40051C16025641A
:10281000202084F83D0084F83E00002070BD0000B8
:102820002DE9F04F87B0044614216846FDF778FE85
:10283000634B2168634802260327634A00254FF053
:10284000006A4FF4806B99425FD15E4910310B688A
:1028500043F400230B60096801F40021059101682D
:1028600041F00101016000684FF0010900F0010032
:102870004FF00808CDF80090CDE904800397CDE92A
:10288000016569461046FEF7D9FB0096CDE901695E
:10289000CDE9037869464C48FEF7D0FB4C4E4B48D7
:1028A0004FF480393060C6E901A5C6E9035B756164
:1028B000B561C6E907595746D84630467562FEF7F6
:1028C00009FB08B1FDF7E1FFA663B463404E3F4842
:1028D00060363030E6E802074020A6E821013C4897
:1028E00046F814596030B561C6E907597562FEF7BC
:1028F000F1FA08B1FDF7C9FF6663002211463420E2
:10290000B463FEF725FE342054E0324B994253D194
:102910002C4914310B6843F010030B60096801F077
:1029200010010591016841F0010101600068029504
:1029300000F0010005904FF4C060CDE900060720CB
:10294000CDE9037069461046FEF778FB204E224819
:10295000C0364FF480393060C6E901A5C6E9035B93
:102960007561B561C6E90759D0465F463046756264
:10297000FEF7B0FA08B1FDF788FFA663B463164806
:10298000164E7830E6E802084020A1C6134846F803
:102990001459B561C6E907597562FEF79BFA08B18B
:1029A000FDF773FF6663002211462520B463FEF72E
:1029B000CFFD2520FEF7BEFD07B0BDE8F08F00007B
:1029C000004C0040303802400000024040600240AD
:1029D000740600200010014040640240940700206B
:1029E0007047704770B5044690F83D00202836D1F6
:1029F00091B38AB394F83C00012830D0012084F8C8
:102A00003C002162A284E28400252564212084F810
:102A10003D00636B1348D863636B13481864636BA2
:102A20001248D864606B134605652668606B321DDA
:102A3000FEF7BAFA21686FF04000086084F83C5055
:102A40002068143050E8001F41F0800140E8001277
:102A5000002AF5D1002070BDFFE70120FBE702202E
:102A6000F9E7000007340008493400082133000862
:102A700070477047FEE700007FB5002415480094BA
:102A8000019402941249039401604FF48031C0E92B
:102A900001140461047680F820400F49C0E90A144B
:102AA0000125C561C46080F830404561FDF799FF9C
:102AB00008B1FDF7EAFE0C20CDE900056946029455
:102AC0000448FDF7E5FE002801D0FDF7DEFE7FBDDE
:102AD000002001405C0400200100000F194808B5E7
:102AE000016841F480010160016801F480010091F6
:102AF000016841F4001101600068002200F4001038
:102B0000009011460D20FEF723FD0D20FEF712FD6B
:102B1000002211460F20FEF71BFD0F20FEF70AFDD5
:102B2000002211463A20FEF713FD3A20FEF702FD7F
:102B3000002211464620FEF70BFDBDE80840462066
:102B4000FEF7F8BC30380240F0B587B01421684673
:102B5000FDF7E6FC21480025016841F08001016095
:102B6000016801F080010591016841F004010160F4
:102B7000016801F004010591016841F00101016063
:102B8000016801F001010591016841F00201016055
:102B90000068134E00F0020005900122102130461B
:102BA000FEF749FB0F4F002220213846FEF743FB7A
:102BB00010200124CDE900040220CDE9024069463D
:102BC0003046FEF73BFA20208DE831006946384652
:102BD0000395FEF733FA07B0F0BD0000303802402D
:102BE00000000240000402400D4810B50B4901608E
:102BF0000C49416000214FF480428160C0E903121A
:102C000041618161C1610162FEF720FB002803D0B0
:102C1000BDE81040FDF739BE10BD00000054004073
:102C2000A4040020A08601000D4810B50B490160E6
:102C30000C49416000214FF480428160C0E90312D9
:102C400041618161C1610162FEF700FB002803D090
:102C5000BDE81040FDF719BE10BD0000005800404F
:102C6000F8040020A0860100104810B50E4901604C
:102C70004FF482714160002102228160C0E9031299
:102C8000012242615202C0E9062101624162816271
:102C90000A21C162FEF72EFF002803D0BDE81040D4
:102CA000FDF7F3BD10BD0000003001404C050020D1
:102CB00010B596B000240F941094119412941394AC
:102CC0001C2168461494FDF72BFC202107A8FDF772
:102CD00027FC344832490160A721C0E9011440F6BD
:102CE000C311C0E9031444618461FFF7BFF908B15F
:102CF000FDF7CBFD4FF480500F900FA92948FFF747
:102D0000F7F908B1FDF7C1FD2648FFF7EFFA08B162
:102D1000FDF7BBFD139413A922481494FFF75EF945
:102D200008B1FDF7B2FD6020CDE9000402940394E0
:102D300004940594002269461A480694FFF770FA35
:102D400008B1FDF7A2FD042269461648FFF768FAAC
:102D500008B1FDF79AFD082269461248FFF760FAAC
:102D600008B1FDF792FD0C2269460E48FFF758FAAC
:102D700008B1FDF78AFD0794089409944FF40050B8
:102D80000A94CDE90B4007A906480E94FFF7FCF81A
:102D900008B1FDF77AFD0348FFF718FA16B010BD29
:102DA00000040140A40500200E4810B50C49016044
:102DB0000D4941604FF4805181604900C160C910E4
:102DC00001610C21416100218161C161FFF7F6FCC5
:102DD000002803D0BDE81040FDF757BD10BD00002E
:102DE000004C0040EC050020A08601000C4810B506
:102DF0000A4901604FF4E1314160002181600C22F9
:102E0000C160C0E904128161C161FFF7D7FC0028ED
:102E100003D0BDE81040FDF738BD10BD00100140E3
:102E200030060020FEE7FEE77047000038B5044694
:102E30001248134B0068B0FBF3F04FF47A73584319
:102E400000906068B0F5827F0DD10B4600920022A1
:102E50008021204600F016F870B1606D40F020002F
:102E60006065032038BD009830B1401E0090206896
:102E70008068C0430006F6D5002038BD6C020020F3
:102E800000366E012DE9F8431E46914688460446F9
:102E9000089DFEF7D5F9401B351AFEF7D1F9074614
:102EA00025480068C0F3CB30684338E0701C37D049
:102EB000FEF7C6F9C01BA84203D215B1009860B353
:102EC0002CE02068416821F0E00141606068B0F5C5
:102ED000827F0BD1A068B0F5004F02D0B0F5806FB3
:102EE00004D12068016821F040010160A06AB0F5BA
:102EF000005F09D12068016821F400510160206859
:102F0000016841F400510160012084F85100002063
:102F100084F850000320BDE8F8830025401E00908F
:102F20002068816838EA010004D000214945BDD1FC
:102F30000020F0E70121F9E76C0200207047000053
:102F40000149082008707047000000202DE9F04179
:102F50000C4C0025261F0FE0FEF772F905EB450229
:102F600004EB82018B688F88C31ABB4203D388604D
:102F700054F8220080476D1C30788542ECDBBDE8B8
:102F8000F081000004000020FEF77ABA30B593B05B
:102F900030216846FDF7C4FA14210CA8FDF7C0FAE9
:102FA0001D480025016841F080510160006800F073
:102FB000805011901948016841F480410160006817
:102FC000022400F480401190012000900004019040
:102FD0008001CDE9064008AA0420A82182E8130058
:102FE0000B906846FEF7D0FB08B172B6FEE70CA95D
:102FF0000F2081E831004FF4A0500F904FF4805023
:10300000109005210CA8FEF7D5FA002801D072B661
:10301000FEE713B030BD00004038024000700040B1
:103020000248016841F470010160704788ED00E0DA
:10303000F0B50268254C264D264E274F274B4FF002
:10304000804CA04209D0604507D0A84205D0B042CC
:1030500003D0B84201D0984204D122F0700E4A68E1
:1030600042EA0E02A0421BD0604519D0A84217D0F8
:10307000B04215D0B84213D0984211D0184DA84292
:103080000ED0184DA8420BD0174DA84208D0174DAE
:10309000A84205D0164DA84202D0164DA84203D131
:1030A00022F44075CA682A434D6922F080022A43FF
:1030B00002608A68C2620A688262A04201D09842B5
:1030C00001D10969016301214161F0BD00000140A6
:1030D0000004004000080040000C004000040140D3
:1030E00000400140004401400048014000180040F9
:1030F000001C00400020004010B501F01F0301211A
:10310000046A99408C430462016A9A401143016247
:1031100010BD10B5846842EA032224F47F440A43B8
:103120002243826010BD826822F070020A4342F09E
:103130000701816070470000F0B5026A22F00102C9
:103140000262036A42688469124E24F073050C68B7
:103150002C4323F002058B682B430D4DA84201D070
:10316000B04205D123F00807CB683B4323F00403AA
:10317000A84201D0B04205D14D6922F440721543F6
:103180008A692A4342608461496841630362F0BDF1
:103190000000014000040140F0B5026A22F0100274
:1031A0000262026A436884690D6824F4E64444EAD2
:1031B00005248D6822F0200242EA05120F4D104EC0
:1031C000A84201D0B04206D1CF6822F0800242EA84
:1031D000071222F04002A84201D0B04207D14D6947
:1031E00023F4406343EA85038D6943EA8503436022
:1031F0008461496881630262F0BD00000000014003
:1032000000040140F0B5026A22F480720262026A90
:103210004368C46922F4007224F073050C68124EEE
:103220002C438D6842EA05220E4DA84201D0B042DF
:1032300006D1CF6822F4006242EA072222F48062BB
:10324000A84201D0B04207D14D6923F4405343EA6C
:1032500005138D6943EA05134360C4614968C1637E
:103260000262F0BD000001400004014030B5026A76
:1032700022F480520262046A4268C3690D6823F432
:10328000E64343EA05238D6824F4005444EA0534F8
:10329000084DA84202D0084DA84204D14D6922F43D
:1032A000804242EA85124260C36149680164046257
:1032B00030BD0000000001400004014010B5036A69
:1032C000046A24F001040462846924F0F00444EAEE
:1032D000021423F00A020A438461026210BD10B591
:1032E000036A23F0100303628369046A23F47043C2
:1032F00043EA023224F0A00343EA01118261016231
:1033000010BD00000148FFF725B90000EC050020C2
:1033100010B5806B0021C185C184FFF719F910BD7C
:1033200070B5846B2068406994F83D10C0F3C010FC
:103330000025212904D118B1E584204600F0B0F819
:103340002068406994F83E10C0F38010222904D10F
:1033500018B1E585204600F07CF8206C40F01000A4
:1033600020642046FFF7F4F870BD10B50146806B6D
:1033700009680968C9052FD40021C18501680C318D
:1033800051E8002F22F4807241E80023002BF5D190
:103390000168143151E8002F22F0010241E80023B6
:1033A000002BF5D10168143151E8002F22F04002C2
:1033B00041E80023002BF5D1202180F83E10016B5D
:1033C000012909D101680C3151E8002F22F01002C7
:1033D00041E80023002BF5D1016B012902D0FFF752
:1033E000FFFA10BD818DFFF73FF810BD10B5806B5F
:1033F000016B012902D0FFF7F4FA10BD818D490855
:10340000FFF732F810BD10B50146806B09680968F6
:10341000C90516D40021C1840168143151E8002F78
:1034200022F0800241E80023002BF5D101680C3125
:1034300051E8002F42F0400241E80023002BF5D173
:1034400010BDFFF715FB10BD10B5806BFFF711FB2A
:1034500010BD01680C3151E8002F22F4907241E850
:103460000023002BF5D10168143151E8002F22F020
:10347000010241E80023002BF5D1016B012909D19C
:1034800001680C3151E8002F22F0100241E80023BE
:10349000002BF5D1202180F83E10002101637047F8
:1034A00001680C3151E8002F22F0C00241E80023EE
:1034B000002BF5D1202180F83D10704708B590F819
:1034C0003E10222901D0022008BD82684FF48053AB
:1034D0009A4201D1016921B1816A9A421BD04AB155
:1034E0000AE00268816A5268C2F308020A80816AAF
:1034F000891C08E0026972B10268526802F07F021A
:103500000A70816A491C8162C18D491E0904090C37
:10351000C18503D019E002685268F1E70168CA6802
:1035200022F02002CA600168CA6822F48072CA6070
:1035300001684A6922F001024A61202180F83E10A8
:10354000016B012903D0FFF74BFA002008BD0021D1
:10355000016301680C3151E8002F22F0100241E8AC
:103560000023002BF5D101680A68D20602D50A684B
:1035700049680091818DFEF777FFE6E770B5044654
:1035800000680169E26821F4405111430161216939
:10359000A068E26908436169114308432168CA6869
:1035A00049F20C639A430243CA6020684169A269E8
:1035B00021F440711143416131492068884202D0B1
:1035C0003049884202D1FEF79FF801E0FEF78CF8FF
:1035D000E2690023192164253226B2F5004F6268A2
:1035E00028D0A0FB0101930F9200FCF75DFE01467D
:1035F000B0FBF5F06FF01802504301EB800006EBD2
:103600000010B0FBF5F000F0F002B1FBF5F002EBBA
:103610000012B1FBF5F06FF01803584301EB800086
:1036200006EB0010B0FBF5F000F00F00216810442D
:10363000886070BDA0FB010192185B41FCF734FE6D
:103640000146B0FBF5F00201B1FBF5F06FF0180395
:10365000584301EB800006EBC000B0FBF5F000F032
:10366000F80002EB4002B1FBF5F0584301EB80009B
:1036700006EBC000B0FBF5F000F00700D6E7000055
:10368000001001400014014038B581628285002598
:10369000134604460564222084F83E00A26B1B48B2
:1036A000D063A26B1A481064A26B1A48D064A06B56
:1036B0000A4605652168A06B091DFDF775FC2068A9
:1036C00001684068009084F83C5020680C3050E855
:1036D000001F41F4807140E80012002AF5D12068F3
:1036E000143050E8001F41F0010140E80012002AA8
:1036F000F5D12068143050E8001F41F0400140E847
:103700000012002AF5D1002038BD00006B330008FC
:10371000ED330008213300080148FEF71BBF00000D
:1037200030060020FEE703B401984100009850EAFB
:10373000C12018BF04204A0D18BF40F0010040F21C
:10374000FF72B2EB515F08BF40F00200012808BFD2
:10375000052002B070470907090E002804DB00F1BC
:10376000E02080F80014704700F00F0000F1E02026
:1037700080F8141D7047000070B5C1482DED020B94
:103780002DED0E8B82B0119D25F000449FEDBEDB28
:103790009FEDBFEB84423EDBA4F140511098A1F1B4
:1037A0007F6108430FD0BC48844202DC28D11098C6
:1037B00030B39DED100B02B0BDEC0E8B02B0BDE836
:1037C000704000F069BC9DED100B53EC1D2B51ECCB
:1037D000100B02F0C3FC9DED100B41EC180B53ECE9
:1037E0001E2B51EC100B02F0B9FC53EC182B02F01D
:1037F000A1FA41EC100B02B0BDEC0E8B02B070BD13
:103800000120FCF7FDFE02B0BDEC0E8B02B0BDE85E
:10381000704000F055BCA1489FEDA18B844256DA60
:103820009DED100BB4F1795F0ADA51EC100BFFF744
:103830007AFF042808BF00F053FC9DED100BDAE777
:1038400053EC102B51EC100B02F088FC41EC190BDF
:1038500095480621B0EE490AF0EE690A784400F076
:103860009FFB53EC192B51EC100B02F077FC41EC51
:103870001A0B8E48B0EE490AF0EE690A042178442A
:1038800000F08EFB53EC192B51EC100B02F066FC90
:1038900053EC182B02F04EFA41EC100B51EC1A0BC2
:1038A00053EC102B02F0EEFACDE900019DED000B78
:1038B00053EC102B9DED100B51EC100B02F04EFC55
:1038C0009DED101B53EC112B02F034FAD2E09DED6C
:1038D000100B51EC100B00F035FC53EC182B02F0E0
:1038E0003BFD9FED730BCDE9000153EC102B9DEDDB
:1038F000000B51EC100B02F031FC41EC190B6E483F
:103900000621B0EE490AF0EE690A784400F048FB5F
:1039100053EC192B51EC100B02F020FC41EC1B0B6B
:103920006648B0EE490AF0EE690A0421784400F0D6
:1039300037FB53EC192B51EC100B02F00FFC53EC3E
:10394000182B02F0F7F941EC1C0B51EC190B01F0AC
:10395000D9FF41EC180B5A489FED5BABA04222DC2B
:1039600053EC1C2B51EC1B0B02F08CFACDE900013F
:103970009DED000B51EC180B53EC102B02F0EEFBFD
:1039800053EC182B02F0D6F953EC1A2B02F0E6FB9D
:1039900053EC1D2B02F0B8FD53EC1E2B02F0DCFCA7
:1039A00041EC100B5FE08DED008B002000909DED51
:1039B000000B51EC180B53EC102B02F0BBF99DEDF2
:1039C000000B41EC1E0B53EC102B51EC100B02F0D2
:1039D000C5FB53EC192B02F0BFFC53EC1E2B02F07D
:1039E00051FA41EC190B53EC1C2B51EC1B0B02F060
:1039F00049FA41EC1B0B53EC1A2B51EC190B02F05A
:103A0000ADFB53EC1D2B02F0A7FC41EC190B53EC62
:103A10001A2B51EC180B02F0A1FB53EC1B2B02F0FC
:103A20009DFB53EC192B02F06FFD9DED000B41EC5B
:103A3000180B53EC1A2B51EC100B02F08FFB9FED7F
:103A4000249B53EC192B02F087FC41EC100B51EC3A
:103A5000180B53EC102B02F057FD53EC192B02F00E
:103A60007BFC41EC100B002D3FF7C5AE51EC100B69
:103A700002F022F941EC100BBDE60000000000004E
:103A80000000F03F00000000075C143326A6913CC4
:103A9000182D4454FB21F93F0000F07F0000E03F67
:103AA000000000000000F03F503B00005E3B0000C3
:103AB000000000000000E03FA23A0000B03A000021
:103AC0003333EF3F00000000000000000000004022
:103AD000182D4454FB21E93F70B59B482DED020B96
:103AE0002DED068B079D25F00044A04218DC974879
:103AF000844202DC0AD1069840B19DED060BBDEC74
:103B0000068B02B0BDE8704000F0C6BA002DCCBFF5
:103B10009FED8F0B9FED900BBDEC068B02B070BD3F
:103B20008F48A04215DD8F48A042D8BF4FF0FF3428
:103B300058DD9DED060B51EC100BFFF7F4FD04284A
:103B400008BF00F0CDFA9DED060BBDEC068B02B070
:103B500070BD9DED060B51EC100B00F0F3FACDE9B2
:103B6000060181489FED828BA0423CDD8248A04245
:103B70001FDD00249FED82AB9DED060B53EC1A2B4D
:103B800051EC100B02F0D6F89DED060B41EC190B31
:103B900053EC1A2B51EC100B02F0E0FA53EC182BFB
:103BA00002F0B2FC53EC192B02F06CF9CDE90601DE
:103BB00049E09DED060B012453EC182B51EC100B42
:103BC00002F0B8F89DED060B41EC190B53EC182BE5
:103BD00051EC100B02F098FC53EC192B02F052F947
:103BE000CDE906012FE06848A0421FDD02249FEDC9
:103BF000689B9DED060B53EC192B51EC100B02F05A
:103C0000ADFA53EC182B02F095F89DED060B41EC44
:103C1000180B53EC192B51EC100B02F075FC53EC04
:103C2000182B02F02FF9CDE906010CE09DED060BF3
:103C3000032453EC102B9FED580B51EC100B02F0AA
:103C400021F9CDE906019DED060B53EC102B51EC4B
:103C5000100B02F083FA41EC180B53EC182B02F016
:103C60007DFA41EC190B4E480621B0EE490AF0EE00
:103C7000690A784400F094F953EC182B51EC100BBE
:103C800002F06CFA41EC180B4648B0EE490AF0EE2F
:103C9000690A0521784400F083F953EC192B51ECA3
:103CA000100B02F05BFA41EC100B51EC180B53ECCB
:103CB000102B002C0EDA02F03DF89DED061B53ECA4
:103CC000112B02F04BFA9DED061B53EC112B02F069
:103CD00043FB35E002F02EF89DED061B53EC112B53
:103CE00002F03CFA41EC100B2F48784400EBC40082
:103CF00090ED001B51EC100B53EC112B02F004FC67
:103D00009DED061B53EC112B02F0FEFB41EC100B5A
:103D10002648784400EBC40090ED001B51EC100BDA
:103D200053EC112B02F018FB41EC100B002DA2BF3D
:103D3000BDEC068B02B070BD51EC100B01F0BCFF66
:103D400041EC100B01E70000000010440000F07F80
:103D5000182D4454FB21F93F182D4454FB21F9BF81
:103D60000000DC3F0000203E0000F33F00000000A8
:103D7000000000000000F03F0000E63F00000000EF
:103D80000000000000000040008003400000000030
:103D9000000000000000F83F000000000000F0BF3D
:103DA000F2370000A837000032370000EA36000082
:103DB00070B56B4E2DED040B2DED028B82B0DDF84E
:103DC0001CC0DDE905235C422CF000411C4341EAA4
:103DD000D474049D22F00040B44205D86C422C43B8
:103DE00040EAD474B4420BD99DED061B9DED040B43
:103DF00002B0BDEC028B04B0BDE8704000F056B9D3
:103E0000ACF14054A4F17F641C430BD0022404EABB
:103E1000AC7444EAD27405439FED538B9FED542B51
:103E200007D015E09DED040B51EC100B00F074F978
:103E300042E0002C11BF012C9DED040B02B0BDEC43
:103E4000028B04BF04B070BD022C38D0032C3BD0D1
:103E50000B439FED491B9FED4A0B0AD0B14218D18D
:103E6000B04209D121F0804120F0804007910590B7
:103E70000FE0002A15DA10E0434B7B44002C08BF0A
:103E800093ED000B0DD0012C10D0022C17D0032C79
:103E90001AD0B0421DD1002A03DAB0EE410AF0EE8A
:103EA000610A02B0BDEC028B04B070BD93ED000B53
:103EB00051EC100B01F000FF41EC100BF1E7B0EEFC
:103EC000480AF0EE680AECE7B0EE420AF0EE620A49
:103ED000E7E7401A00153C28C8BF8DED000B19DC40
:103EE000BCF1000FBEBF10F13C0F9FED290B8DED13
:103EF000000B0FDB9DED060B53EC102B9DED040B1F
:103F000051EC100B01F0BEFF00F01CF900F004F9B9
:103F1000CDE90001002C08BF9DED000BC1D0012CA4
:103F200010D0022C9FED1C0B53EC102B9DED000BC1
:103F300051EC100B0DD002F0E7FA53EC182B02F005
:103F4000E3FAB9E7019880F0004001909DED000B85
:103F5000A7E702F0D9FA53EC182B02F0FDF9ABE712
:103F60000000F07F00000000182D4454FB210940A0
:103F7000182D4454FB2109C0182D4454FB21F9BFCE
:103F8000182D4454FB21F93F1A36000000000000B0
:103F90000000000000000000075C143326A6A13CCE
:103FA00070B504462DED028B4D1E00EBC500B0EE42
:103FB000408AF0EE608A90ED000B35F0060017D0D5
:103FC00053EC182B51EC100B02F0C8F841EC100B1D
:103FD0006D1E04EBC50090ED001B51EC100B53EC73
:103FE000112B01F0A7FE41EC100B35F00600E7D1D4
:103FF000022D36D0042D1CD0062D1CBFBDEC028B2B
:1040000070BD53EC182B51EC100B02F0A7F894ED97
:104010000A1B53EC112B01F08DFE53EC182B02F010
:104020009DF894ED081B53EC112B01F083FE41EC3D
:10403000100B53EC182B51EC100B02F08FF894ED91
:10404000061B53EC112B01F075FE53EC182B02F0FC
:1040500085F894ED040B53EC102B01F06BFE41EC52
:10406000100B53EC182B51EC100B02F077F894ED79
:10407000021B53EC112B01F05DFE53EC182B02F0E8
:104080006DF894ED001B53EC112B01F053FEBDECC9
:10409000028B41EC100B70BD10B553EC102B51ECA2
:1040A000100B01F047FE41EC100B10BD10B553ECA6
:1040B000112B51EC100B01F03DFE41EC100B10BD2B
:1040C0009FED050B10B553EC102B51EC100B01F0CC
:1040D000D9FE41EC100B10BD0000000000000000F4
:1040E0009FED050B10B553EC102B51EC100B02F0AB
:1040F00035F841EC100B10BD00000000000000106E
:1041000001E0491EC9B2012904D9421812F8012C54
:10411000002AF6D00846704710B541EC100BFFF7A7
:10412000DBFC51EC100B10BD0A88504080EA0010F7
:10413000C0B2120A82EA002282EAC00282EA1010A9
:104140000880704782B0CDE9000121F00040019065
:104150009DED000B02B051EC100B704710B54D48AF
:104160002DED108BF0EE009A90ED000A90ED019A83
:1041700090ED028A20EE29AA69EE29AAD0ED038AE1
:104180002AEE080A0AEEE80A10EE100A02F0A6FA71
:1041900041EC100BFFF7F0FA9FED3FBB51EC100B19
:1041A00053EC1B2B01F0DAFF9FED3DCB53EC1C2BA6
:1041B00001F068FE01F08CFDF8EE00EA28EE29EA35
:1041C00029EE2E0AB7EE00FA374C20EE090A2060DD
:1041D0000EEE480A30EE0F0A10EE100A02F07EFAD8
:1041E0002EEE280A41EC1D0B0AEE090A10EE100A09
:1041F00002F074FA41EC100BB0EE4D1AF0EE6D1AAD
:10420000FFF7D6FD53EC1B2B51EC100B01F0A6FF72
:1042100053EC1C2B01F036FE01F05AFD28EE2E0A5D
:1042200068EEA90A606020EE080A00EEE80A30EEA7
:104230000F0A10EE100A02F051FA2AEE880A41EC39
:10424000190B0AEE280A10EE100A02F047FA41ECA8
:10425000100BB0EE491AF0EE691AFFF7A9FD53EC06
:104260001B2B51EC100B01F079FF53EC1C2B01F0D0
:1042700009FE01F02DFD0749A06094ED000A4C39BC
:1042800081ED0B0A94ED010A81ED0A0A0863BDEC89
:10429000108B10BDDC000020000000000080664094
:1042A00000000040FB210940AC0200201CB5BB20EF
:1042B0008DF800000721684600F0D6FABDF801002D
:1042C00041BA0548C181BDF8031049BA0182BDF861
:1042D000051049BA41821CBD900000201CB5C320C6
:1042E0008DF800000721684600F0BEFABDF8010015
:1042F00041BA05480181BDF8031049BA4181BDF8B2
:10430000051049BA81811CBD9000002070B5274C72
:104310009FED250A002584ED000A84ED010A84ED55
:10432000020A234EFFF7DAFFB6F90800D4ED000ABF
:1043300000EE100AB8EEC00A30EE800A84ED000AE2
:10434000B6F90A00D4ED010A00EE100AB8EEC00A70
:1043500030EE800A84ED010AB6F90C00D4ED020AB1
:1043600000EE100A0520B8EEC00A30EE800A84ED97
:10437000020AFCF751FE6D1CADB2642DD2D3D4ED10
:10438000000A9FED0C0A80EE801A84ED001AD4ED2D
:10439000010A80EE801A84ED011AD4ED020A80EE43
:1043A000801A84ED021A70BD00000000D0020020C7
:1043B000900000200000C84208B500208DF80000E1
:1043C0000A20FCF729FE00F02CF880216B2000F079
:1043D00069FA0220FCF720FE69466B2000F01EFA05
:1043E0009DF800004128F7D101216B2000F05AFA16
:1043F00000216C2000F056FA01211A2000F052FA38
:104400000721192000F04EFA18211B2000F04AFA6B
:1044100010211C2000F046FA03211D2000F042FA72
:1044200008BD08B500208DF800006946752000F031
:10443000F5F90A20FCF7F0FD9DF800001228F4D1F0
:1044400008BD000010B5FFF731FFFFF747FF00F090
:1044500025F9204800F042F8FFF780FE1E48017859
:10446000491CC9B20170642932D91A4900220C3999
:104470000270D1ED010AB2EE040A60EE800AFDEE90
:10448000E00A10EE903A4380D1ED000A60EE800A17
:10449000FDEEE00A10EE903A8380D1ED020A20EEA4
:1044A000800ABDEEC00A10EE101AC1804188A0F843
:1044B0004410A0F84630C188A0F8481040300021D0
:1044C0008272435CD2B21A44491C82720A29F8DB18
:1044D00010BD0000B80200209000002000B5024688
:1044E0002DED028B9FED6B4A6B4B90ED030AD0EDE7
:1044F000040A92ED051AD3ED003A60EE201AD3EDCE
:10450000014A93ED023AD3ED032A61EE811A23EEBC
:10451000A36A63EEA45A23EE835A64EEA46A64EE9F
:10452000A28A23EE037A23EE228A62EEA27AF5EEC5
:10453000C01AF1EE10FA7CD020EE000A00EEA00ABC
:1045400001EE010A00F084FFD2ED030A38EEC51A2D
:10455000514860EE801A4C38C2ED031AD2ED040ABD
:1045600020EE802A82ED042AD2ED050A20EE800A90
:10457000F0EE000A21EE205A35EE881A82ED050A87
:1045800061EE205A76EE660A20EE051A70EEC70A32
:1045900030EEA76A62EE060A01EEC61A61EEA51AAF
:1045A00040EE650A42EE451A90ED072A04EE202AF5
:1045B00080ED072A90ED080A04EE010A80ED080A52
:1045C00090ED090A04EE210A80ED090A92ED000A35
:1045D00090ED055A05EE200AD0ED060A00EE820A9B
:1045E00082ED000AD2ED010A90ED052A90ED065AFF
:1045F00042EE010A90ED081A45EE010AC2ED010AE9
:1046000092ED021A02EE211AD0ED091A05EE211AD6
:1046100064EEC01A43EE601A82ED021A42EEC11A2D
:1046200041EE843A60EE231A43EE011A42EEE01A9C
:1046300000E02BE041EE844A60EEA31A44EEC11A7A
:1046400021EE231A04EEA01A42EE801A01EE843AFB
:1046500003EE401A23EEA30A04EEA40A41EE042A54
:1046600003EE030A02EEA20A00F0F2FE63EE800AF5
:10467000C3ED000A64EE800AC3ED010A63EE000A8E
:1046800022EE800AC3ED020A83ED030ABDEC028B21
:1046900000BD00006F12033ADC00002010B59FED52
:1046A000550A554991ED031ADFED540A544861EE5D
:1046B000201AB0F90E2001EE102AB8EEC11A21EE30
:1046C000002A9FED501A42EE011AC1ED031AB0F90B
:1046D0001020D1ED041A02EE102A61EEA01AB8EEF5
:1046E000C22A22EE002A42EE011AC1ED041AD1EDCF
:1046F000051AB0F9122061EEA00A01EE902A01F12C
:104700001802F8EEE11A21EE800A40EE010A9FED50
:104710003E1AC1ED050AB0F90830D2ED001A00EEDC
:10472000103ADFED3A0AB8EEC00A30EE610A20EE28
:10473000010A80EE202A9FED360AC2EE002AC1ED62
:10474000002AB0F90A40D2ED012A02EE104AB8EE72
:10475000C22A32EE622A22EE013A83EE202A82EE4B
:10476000003A81ED013A92ED022AB0F90C2003EEF5
:10477000102AB8EEC33A33EE423A23EE013A83EE02
:10478000201AC1EE000AC1ED020A00EE903A90ED47
:104790000D3AF8EEE00A70EEE10A80EE801ADFEDE5
:1047A0001D0A61EE201A9FED1C1A43EE011AC0ED9E
:1047B0000D1A01EE904AF8EEE11A71EEE22AC2EE0D
:1047C000801AD0ED0E2A61EEA01A42EE811AC0EDD9
:1047D0000E1A01EE902AF8EEE11A71EEC21A81EE7D
:1047E000802A22EE200AD0ED0F0A00EE810A80ED29
:1047F0000F0A10BD9A99993EB80200203333333F17
:104800009000002000008039DA0F49400000344356
:1048100033338341CDCC4C3ECDCC4C3F7CB5104E98
:104820000C460546002210213046FCF704FD45F0F9
:1048300080008DF8040020788DF805004FF4FA70A0
:1048400001AA0090022311460648FDF798FA0122BA
:1048500010213046FCF7EFFC9DF8050020707CBD70
:10486000000002404C050020F8B50C4E0D460446F1
:10487000002210213046FCF7DEFC4FF4FA7022468D
:1048800000902B4611460648FDF779FA3046BDE800
:10489000F84001221021FCF7CEBC000000000240CD
:1048A0004C050020F8B50C4E0C46054600221021A0
:1048B0003046FCF7C0FC8DF800508DF801404FF4F5
:1048C000FA73022269460548FDF7A6F90122102174
:1048D0003046FCF7B0FCF8BD000002404C0500205B
:1048E00026489FED250ADFED261A80ED050A80EDAA
:1048F000060A80ED070A80ED110A80ED120A80EDAC
:10490000130A9FED201AC0ED081A80ED091AF2EE85
:10491000000AC0ED0A0AC0ED0B1A80ED0C1A9FEDDB
:104920001A2AC0ED0D0A80ED0E2A80ED0F0A80EDE7
:10493000100A0021017080ED140A80ED150A80ED47
:10494000160A80ED170A80ED180A80ED190A0F4843
:10495000C0ED001A80ED071AC0ED0E0AC0ED151A61
:1049600080ED1C1AC0ED230A80ED2A2A80ED310A61
:1049700080ED380A7047000000000000EC000020C5
:104980009A99993F0AD7233CCDCCCC3F64010020B3
:1049900010B5074C20212046FCF748FC30B100221E
:1049A0002046BDE810402021FCF745BC0122F7E776
:1049B00000040240FCF76CFDFEF7E8FAFEF7C4F8CD
:1049C000FEF78CF8FEF712FAFEF756F8FEF7ECF950
:1049D000FEF76EF9FEF748F9FEF706F9FEF724F93F
:1049E0004FF480720B490C48FDF712FD80220B49F1
:1049F0000B48FDF70DFDFEF7A3FA00F0DFFCFFF713
:104A0000DBFCFFF783FCFFF76BFF00BFFEF79EFAAE
:104A1000FCE70000DC02002030060020DC03002060
:104A2000EC0500202DE9FF4FA3B08A460446DDE9DE
:104A300030011A7B1D46C2F340063EB92A692AB1ED
:104A40001278D20702D001270D2201E000273A4652
:104A5000934604F110024FF00A09904626B1FE2158
:104A6000A1704FF0060904E0FD20A0701046FFF78A
:104A700047FBE07084F807A0259820720020207181
:104A80000FB1012121716071A879A071A879401C32
:104A9000A871A0788DF86C00E0788DF86D006EB18B
:104AA000A0798DF86E00E0798DF86F00207A8DF88E
:104AB00070002089000A8DF871001AE020798DF8C5
:104AC0006E0060798DF86F00A0798DF87000E07944
:104AD0008DF87100207A8DF872002089000A8DF817
:104AE0007300A068000C8DF87400A068000E8DF8AB
:104AF0007500A9F1010086B24FF6FF700DF16D0A45
:104B0000ADF8000005E000BF1AF8010B6946FFF799
:104B10000BFB761EB6B2F7D2BDF80000ADF8680008
:104B20001AA80090E678C24605E000BF1AF8010B0B
:104B30000099FFF7F9FA761EB6B2F7D21AA93298A1
:104B4000FFF7F2FAE278BDF8680002F80800BDF855
:104B50006800E278010A04F111001154BDF8680000
:104B60002080E7B32D691BA81E90E078474604F526
:104B70008D76824600EB07088DB32878C00735D0C4
:104B800068783070D5E90201CDE92001C6F801004E
:104B9000BDF88400A6F80500D5E90201401C41F1EA
:104BA0000001C5E90201684600F0DAFA202205F1A9
:104BB0001001684600F0F8FA4A4668461E9900F06F
:104BC000F3FA52463946684600F0EEFA02224146B0
:104BD000684600F0E9FA07223146684600E005E041
:104BE00000F0E2FAF11D684600F074FAE1780BF18A
:104BF0000200494427B00844BDE8F08FFEB508AF75
:104C000003EB430397E87000034F8DE8700007EB58
:104C1000C303FFF707FFFEBDF80900202DE9F05F91
:104C200005464FF0000A0A9F81F800A00C46C8789C
:104C300002219946164605F1100B4FF00108102885
:104C400021D2DFE800F008082133444A51585F724E
:104C50007D8694D4D4FDFD2E02D0FE2E08D022E114
:104C6000E17085F803A0AE70207B20F0010006E023
:104C7000E17085F803A0AE70207B40F00100207346
:104C8000284600F089FB03E1EE7084F804A0314669
:104C9000284600F085FB207BC00705D085F804A0DE
:104CA00085F805A0052049E0032047E02E71700833
:104CB00007D0A078401CA07084F800A084F803807E
:104CC000F1E03146284600F06BFB042036E06E71BF
:104CD0003146284600F064FBE4E7AE7131462846D1
:104CE00000F05EFB062029E0EE713146284600F018
:104CF00057FB072022E02E723146284600F050FB79
:104D000008201BE0A868314666F31F20A8602846EB
:104D100000F046FB207BC00705D0E87808B10B20E7
:104D20000CE00C200AE0092008E0A868314640EABF
:104D30000640A860284600F033FB0A20E070A7E098
:104D4000A868314640EA0660A860284600F028FBC3
:104D5000E3E72179481C207101F80B6031462846B1
:104D600000F01EFB2079E9788842DAD090E0A8684C
:104D700000215E4B4FEA102CE4228818401C4008AA
:104D800000EB400853F82880E0450BD9A0F1010260
:104D90009142F2D301EB410053F82010614504D059
:104DA000D0460AE00146F3D3F4E703EB80005FEA64
:104DB000000802D098F8041000E00021284600F016
:104DC000EFFA2878B04201D00E2000E00D20E0700C
:104DD00085F81861B8F1000F5AD0207998F80610BC
:104DE000884255D2091A5844FBF778FB50E00E2848
:104DF00003D02888B6EB102F01D0217001E084F891
:104E0000008085F819612879C00709D00F20E0706B
:104E10000D2060732078022845D084F800A042E07D
:104E2000206958B3026B22B1A868010A2046904756
:104E300020BB2078022821D0032020701EE0FFE74D
:104E4000607BC0F10D00284480F81A61607B401E31
:104E500010F0FF0060731BD1D4E904012A4600F072
:104E6000E3F948B92069026B002AE5D0A868010A75
:104E7000204690470028DFD084F8008084F8038023
:104E8000B9F1000004D04FF494722946FBF7F4FA0C
:104E90002078012807D1A8796071208908B9A4F881
:104EA0000AA0401C2081B9F1000F02D0E97889F8EE
:104EB000031067B1E078F870207938716079401C90
:104EC000787120893881A0787881207B387384F8C4
:104ED00002A02078022806D1B9F1000F03D0B5F85E
:104EE0001811A9F800102078BDE8F09FD4680008D8
:104EF0002DE9F0470C46CE780546897804F110007C
:104F00008046FE2929D03146FFF7FAF80646A078F8
:104F100028706E702079A8706079E870A079287187
:104F2000E0796871207AA87120894FF00909000A98
:104F3000E871A0683246000C2872A0684146000E55
:104F4000687205F10A00FBF752FA0935A8192179B0
:104F5000401CC90718D00D2717E029706E70A07982
:104F6000A870E079E870207A287120890027000A6B
:104F700068714FF00509E2784146A81DFBF737FA42
:104F8000E0782844801D00E0002721780170218806
:104F9000090A41702FB13A4604F58D71801CFBF768
:104FA00026FA09EB06003844C01CBDE8F087000073
:104FB0002DE9F04FC8B0836888464793C168469191
:104FC0000469459442694492964682694392C56950
:104FD0004295A946056A4195466A4096B346002621
:104FE0004FEA0D0758F826C047F826C0761C102E49
:104FF000F8DB102607EB860A5AF8087C4FEA774C54
:105000008CEAF74C8CEA972C5AF83C7C4FEAF7185C
:1050100088EAB74888EAD707BC445AF81C8C5AF883
:10502000407C4744BC444DF826C0761C6F46402E59
:10503000E0DB00264FEAB21787EAF22787EA726CB4
:1050400002EA090725EA020887EA0807BC44204F5C
:1050500057F8268008EB0B07BC445DF82670AB467A
:105060000CEB070A4FEAB30787EA733787EAB35CAA
:1050700081EA04074D4601EA040891461F400EEB01
:105080000A02A64687EA08070C46BC441946761C65
:105090000AEB0C03402ECDDB479E33448360469BD6
:1050A0001944C160459921440161449971444161A9
:1050B00043991144816142994944C161419929440C
:1050C000016240995944416248B0BDE8F08F000048
:1050D000D46700082DE9F0410446008892B0C0F37F
:1050E000C500C0F1770000F03F0680200D468DF826
:1050F000000004F108074721E8460DF10100761C85
:10510000FBF7ECF908EB06002178C171218806F164
:105110000802090A81712168090C41712168090E90
:1051200001712179C170A188090A81706168090C37
:1051300041706068010E08F806106946204600F0CC
:1051400033F8F8782870B87868707878A87038786C
:10515000E870F8792871B879687112B0BDE8F0810B
:10516000002101604160084981600849C160084927
:10517000016108494161084981610849C1610849E3
:10518000016208494162704767E6096A85AE67BBFC
:1051900072F36E3C3AF54FA57F520E518C68059B19
:1051A000ABD9831F19CDE05B2DE9F04104460068BF
:1051B0001546884600EBC50190B02160814202D2BD
:1051C0006168491C6160C0F3C50727E0C7F140066C
:1051D000B54200D22E46E019324641462830FBF750
:1051E00006F93744AD1BB044402F17D104F1280312
:1051F00000206E4603EB800106EB8002CF7817702B
:105200008F7857704F7897700978401CD1701028AC
:10521000F0DB31462046FFF7CBFE0027002DD5D12D
:1052200010B0BDE8F08100002DE9F043A1B01446B4
:105230000F46050030D004F1020804F58D7604F223
:1052400021196846FFF78CFF202205F110016846FE
:10525000FFF7AAFF0A2241466846FFF7A5FFE2785A
:1052600004F110016846FFF79FFF022204F58C71DC
:105270006846FFF799FF072231466846FFF794FF1B
:105280001EA96846FFF726FF062249461EA8FBF71F
:1052900082F828B1022062E0012021B0BDE8F0834D
:1052A00032780020CDE91A00D6F801001A90B6F83D
:1052B0000500ADF86C0017B10020398816E0032016
:1052C0004DE000BF00EBC0033B4494F807C093F8E7
:1052D0000380C44508D194F808C093F80480C445FD
:1052E00002D19B78934203D0401C80B28142E9D81E
:1052F000814220D1102901D3042030E0DDE91A31A8
:10530000DFF890C013EB0C08D5E9023C41F1000135
:10531000B8EB030371EB0C0101D205201FE000EB99
:10532000C0013944E379CB70237A0B718A703988D4
:10533000491C398017E00021CDE91C1100EBC001A8
:10534000394451F8052F1C9214468988DDE91A3238
:10535000ADF874101D99E31A914104D3062085F825
:105360003400002099E700EBC000384456F8011FD4
:1053700040F8051FB1888180D5E90232DDE91A01C4
:105380001B1A8A4101D2C5E90201012085F83400C7
:1053900082E70000808D5B004FF6FF71018070474F
:1053A00038B504460A460088ADF800006946104644
:1053B000FEF7BAFEBDF80000208038BD70B50021B0
:1053C0001748FCF7C1FF164C4FF4FA662068466395
:1053D00004212046FCF7B8FF206886630821204698
:1053E000FCF7B2FF2068C6630C212046FCF7ACFF37
:1053F000206806643046FBF70FFE20687510456391
:10540000206885632068C563206805643046FBF723
:1054100003FE0448058045808580C58070BD00007E
:10542000A405002070000020084907480B68028886
:105430005A630B6842889A630B688288DA6309684A
:10544000C08808647047000070000020A405002098
:1054500010EE100AF6EE000A0B4960EE200AA1EBEE
:10546000600000EE100AB7EE081A20EE802AF0EE77
:10547000411A42EE401A21EE800A60EE800A00EEE8
:10548000C01A21EE000A7047865A375F2DE9F34FA4
:10549000DFF8E89081B00E46002509F1600ADFF8D8
:1054A000E0B044E09BF80000019900EB4004354B6C
:1054B0004F5D00EB800808EB4018A3F1180C09EBD6
:1054C000C4040AEBC8003A4621468046CDF800C025
:1054D000FFF7A4FB02280DD003280BD000B3294FFF
:1054E000B868000A16D014281DD0152819D017281E
:1054F0001CD120E0A1780122491CA170002121705B
:105500004046E270FD2F11D10222E270C170FFF718
:1055100043FF0BE0F9798BF80310397A8BF804100C
:1055200004E0012000E002208BF80A006D1CB54267
:10553000B8DBBDE8FE8F13491022163101F23A2084
:10554000FAF755FFDFF83880002408F1100800BF93
:10555000C4EBC40008EB800707F108000A49FBF719
:1055600007F830B9074890ED040A87ED000A8BF878
:105570000C40641C092CEBDBD3E70000F809002089
:1055800054010020100F002060110020F0B5524897
:10559000B0F80110C1F30A0200F11A010A80827802
:1055A000D308C27843EA4213C3F30A034B8003795A
:1055B000920942EA8303427943EA8223C3F30A034E
:1055C0008B805308827943EAC213C3F30A03CB806A
:1055D0001309C27943EA0213C3F30A030B81037A66
:1055E000D20942EA4303427A43EA4223C3F30A035D
:1055F0004B819308827A43EA8213C3F30A038B81B7
:10560000C37A520942EAC302CA818289C2F30A02FA
:105610000A82427BD308827B43EA4213C3F30A0324
:105620004B82C37B920942EA8303027C43EA8223D2
:10563000C3F30A038B825308427C43EAC213C3F3C9
:105640000A03CB821309827C43EA0213C3F30A03E1
:105650000B83C37CD20942EA4303027D6FF00A0741
:1056600043EA4223C3F30A034B839308427D40F28B
:10567000BB4543EA8213C3F30A038B83807D52093F
:1056800042EAC000C88300221448144664264FF042
:105690000C0C00BF31F81230A3F5C873BB4202DA1C
:1056A00083181C710AE0AB4202DD83181E7105E00D
:1056B00093FBFCF300EB020E8EF80430521C102A10
:1056C000E8DB04750021027D435C491C1A44027525
:1056D0001429F8DBF0BD00007002002078000020E3
:1056E000704700002DE9F0437C4C7D4F2046A27AA4
:1056F000417885788BB04FF0000912B1012A7DD036
:10570000E6E0607A132836D988466079A179E27993
:10571000237A8DF810008DF81110714E8DF812203B
:1057200003204FF0010C8DF81400103ECDF80CC092
:105730008DF81330092203A93846FAF79DFE307A16
:10574000B060092032210090CDE9010100232A46F2
:1057500041463046FFF752FA3146A1F50460FFF7A3
:10576000C7FBE0810246A6F504615E48FDF73AF901
:1057700084F80990ACE0012807D0052805D0092855
:1057800003D00D2801D0112850D1FBF759FD5649FF
:10579000534D94F80180A67891ED000A103DDFED9D
:1057A000530A20EE201A9FED520A5249C1EE001A08
:1057B00091ED001A504921EE202A82EE001A91ED57
:1057C000002A22EE202AC2EE000A9FED4C0A039026
:1057D000CDED041A8DED051A1C2203A93846CDED36
:1057E000060A8DED070A8DED080A8DED090AFAF714
:1057F00043FE287A272100F5F05000E017E0A8606A
:105800001C200090CDE90101002332464146284684
:10581000FFF7F4F92946A1F50460FFF769FBE08181
:105820000246A5F504612F48FDF7DCF850E0E07A68
:105830008846C0EBC0012948294E103000EB810199
:10584000103E11F1080091ED000A0B7E8A88C9888C
:105850008DED030AADF81020ADF812108DF824304C
:1058600005AB4FF010012BD00A4601461846FAF757
:10587000BEFD192203A93846FAF7FEFD307ADC2175
:1058800000F5B050B06019200090CDE9010100236F
:105890002A4641463046FFF7B1F911491039A1F5C2
:1058A0000460FFF725FBE081024615490D48FDF72E
:1058B00099F8E07A401CC0B2E072092804D007E0F1
:1058C0001846FAF70BFED4E784F80B9084F80A9098
:1058D000607A401C60720BB0BDE8F0835401002078
:1058E0004810002030060020B8000020DA0F4940A0
:1058F00000003443BC000020C00000200000000075
:10590000F807002000B52DED048B83B041EC190B96
:1059100000F02EFD41EC180B18EE100A18EE901A4C
:105920008DED008B002818BF0120084320F00040B7
:10593000C0F17F6000F1E040C00F14D019EE101AE2
:1059400019EE900A8DED009B002918BF0121084334
:1059500020F00040C0F17F6000F1E040C00F04BFC4
:105960000120FAF74DFE51EC180B03B0BDEC048B8F
:1059700000BD00002DE9F0417B484FF448722DED49
:10598000028B8179794C01EB810102EB410100EE40
:10599000101AB8EE400A84ED010A027A22700179E9
:1059A00000EE101AB8EE400ADFED710AB0EE041AEC
:1059B00070EE601A81EE810A84ED170A417901EEDA
:1059C000901A6C49F8EE611A71EEE01A81EE812AA4
:1059D00084ED182A91ED001A30EE410ADFED662AB7
:1059E000664B20EE220A10EE101A84ED140A9FED89
:1059F000641A644DDFED641A994202DD84ED141AD5
:105A000005E010EE101AA94201D9C4ED141A5F493D
:105A100091ED000A32EE400A20EE220A10EE101A32
:105A200084ED150A994202DD84ED151A05E010EEA9
:105A3000101AA94201D9C4ED151AC079544D00EECF
:105A4000100A544E544FB8EE400ADFF85081462AEF
:105A500030EE600AFEEE000A20EE200A84ED160AFF
:105A600077D94F48D4ED140A404990ED000A4431EB
:105A700030EE600A9FED4B8AF0EE482ADFED4A8A4D
:105A800004F12002A1F13000D2EC030AB0EE682A42
:105A900000F090F8454884ED020AD4ED150A90ED27
:105AA000000A324904F12C0230EE600A4831D2EC8F
:105AB000030AF0EE482AB0EE682AA1F1300000F0A7
:105AC00079F83B4884ED030AD4ED160A90ED000AFC
:105AD000264904F1380230EE600A4C31D2EC030A58
:105AE000F0EE482AB0EE682AA1F1300000F062F82A
:105AF00084ED040AD4ED011A94ED021AD4ED030AE0
:105B000031EE812A31EEC11A72EE202A32EE602A7D
:105B100071EE601A71EE200A72EE802A32EE402A8F
:105B200071EE801A30EEC00AFCEEE22ABCEEC22A08
:105B3000FCEEE11A12EE900ABCEEC00A288012EECA
:105B4000100A308011EE900A388010EE100A05E03D
:105B5000FFE74FF47A70288030803880A8F8000082
:105B6000BDEC028BBDE8F08178000020EC00002045
:105B700000004842B80000209A99193F00003442C2
:105B800000003442000034C2000034C2BC000020D7
:105B900070000020720000207400002076000020B9
:105BA000C4000020000096430080BB44C8000020D1
:105BB000CC000020B0EE403A90ED000A30EE030A2F
:105BC00080ED000AB4EEC20AF1EE10FA01DD80EDBC
:105BD000002AD0ED003AB1EE420AF4EEC03AF1EEFE
:105BE00010FA01D280ED000A20EE830AD0ED000AFF
:105BF00001EE200AD1ED000A73EE600A01EEA00A60
:105C0000B4EEE20AF1EE10FA01DDB0EE620AF1EE56
:105C1000620AB4EEE00AF1EE10FA01D2B0EE600AC8
:105C200081ED003A7047000010B51D482DED028B44
:105C3000FAF788FF64211A48FAF72EFF1848FAF796
:105C4000CDFE184C60801648FAF7FAFF606800F045
:105C500045FD41EC180B608800F06CFA9FED121BBB
:105C600053EC112B00F07AFA9FED111B53EC112B22
:105C700000F074FA53EC182B00F070FA00F028F8DA
:105C800000EE100AF2EE040A84ED020A20EE200A69
:105C9000BCEEC00A10EE100A2070BDEC028B10BDE5
:105CA0005C040020640000206666666666664A3F03
:105CB000000000000000264081F00041704780F0A5
:105CC0000040704721F00041704720F000407047CD
:105CD00021F00042A2F16052B2F5801F01F00043B2
:105CE00028BFD2F17F6C0BD95FEA001C43EAC202E5
:105CF00042EB507018BF704728BF20F0010070477A
:105D0000B2F5801FBCBF184670474FEA410C1CF526
:105D1000001F02D2084600F057BD70B500F0C8FA67
:105D200000000089FFF7F6BF4FF00040A0F58000AB
:105D30007047000010B591EA030F48BF83F000439D
:105D400000F1EA83841A71EB030C05D2121943EBBC
:105D50000C03001B61EB0C01DFF824E14FEA115446
:105D6000A4EB135C1EEA430F18BF9EEA445F73D096
:105D700023EA0E03DCF1200E21EA045143F48013E0
:105D800032D322FA0CFE10EB0E0023FA0CFE41EB8C
:105D90000E01CCF1200E03FA0EFE10EB0E0051F1B5
:105DA0000001B1F5801FCCF1200E32D201EB04517D
:105DB00012FA0EF2BDE8104058BF7047401C38BFC1
:105DC0005FEA420218BF7047002814BF20F00100AC
:105DD00041F100014FEA410313F5001F38BF70473E
:105DE000A1F1C04100F0B2BA012A43EB0302ACF1C9
:105DF000200CDCF11F0E32BF4FF0000E23FA0CF323
:105E000010EB030041EB0451B4EB115FD0D0A1EBD8
:105E1000045101F5801149085FEA300001EB04519B
:105E20000ED350F1000038BF12FA0EFE08D1BDE8C3
:105E30001040C9E7401C38BF5FEA4202CAD1C3E73D
:105E4000BDE810404FEA410313F5001F38BF70470B
:105E5000A1F1C04100F07ABA9EEA445F08D011EA8D
:105E60005E0FBDE8104004BF01F000410020704704
:105E7000BDE8104070B500F01BFA00BF64FBBE3EE9
:105E80000000E0FF2DE9C04130B4DFF8A0C23CEAD9
:105E9000111418BF3CEA131400F0EC8081EA0305EA
:105EA0001CEA111444EAD57418BF1CEA131500F05B
:105EB000C780A4EB05044FF0004545EAC12145EA3F
:105EC000C32341EA505143EA525304F17F7499428B
:105ED00004F500344FEAC0204FEAC22208BF9042C6
:105EE00000F09C804FEA13650FF24016765D4FEA92
:105EF000134506FB05F7C7F1807706FB07F74FEA66
:105F0000D737A7FB03687642C8F58038A7FB06CED3
:105F100038BFA8F1010807FB08E64FF0000EA6FB0A
:105F2000028CE6FB03CEDCF1000CCEF1004E38BF54
:105F3000AEF1010EA6FB0C584FF000074FF0000524
:105F4000E6FB0E87A1FB08C6A0FB07CE16EB0E06EC
:105F500045F10005E1FB076515F1E04E7EBFA4F5B4
:105F600080345FEA46066D4116F1800745F1000571
:105F70004FEA17274FEA066647EA0567A6F1DE46AD
:105F8000B6F1805F4FEA15251FD9384624F0010C81
:105F900005EBC471BCF1FE6F01EB0C1102D8F0BC33
:105FA000BDE8008124425CBF01F5801E9EEAC47FEB
:105FB00002D4F0BCBDE80081244238D4F0BCA1F189
:105FC000C041BDE8004100F0C1B94FEAD22242EA27
:105FD00043524FEAD323A7FB02864FEAD02040EA80
:105FE000415007FB03661EEA0E0F4FEAD12105FB65
:105FF000026658BFA6EB0056B6EB00564FEA520EAB
:106000004EEAC37E18EB0E0E56EB530EBDD518EBC1
:1060100002085E417F1C55F10005B6E74FF480157C
:106020004FF000074FF000064FF00008ADE7F0BC5E
:106030004FF0000001F1C04101F00041BDE80081D6
:1060400011EA0C1F0CEA131500D00CE013EA0C1F28
:1060500000F025804FF00000F0BC81EA030101F060
:106060000041BDE80081F0BCBDE8004181EA0301C8
:1060700000F06CB9F0BCBDE8004170B500F018F953
:10608000097EFC3E00F007B881EA03014FF00000F2
:1060900001F00041704781EA030100F057B9F0BCFC
:1060A000BDE800414FF0000021497047FFFDFBF9BA
:1060B000F7F5F4F2F0EEEDEBE9E8E6E4E3E1E0DE3B
:1060C000DDDBDAD8D7D5D4D3D1D0CFCDCCCBCAC8AD
:1060D000C7C6C5C4C2C1C0BFBEBDBCBBBAB9B8B7D4
:1060E000B6B5B4B3B2B1B0AFAEADACABAAA9A8A8C7
:1060F000A7A6A5A4A3A3A2A1A09F9F9E9D9C9C9B95
:106100009A9999989797969595949393929191903F
:106110008F8F8E8E8D8C8C8B8B8A898988888787D0
:106120008685858484838382828181800000FF0745
:106130000000F87FB0FA80F310FA03F10AD0C3F13F
:106140001D0303F580634FEA41504FEA035202EB0F
:10615000D12170474FF0000070470000DFF848C1C0
:1061600070B51CEA111E1EBF1CEA13159EEA0C0F27
:1061700095EA0C0F00F06F8081EA030423EA4C13C8
:106180004EEAD47E21EA4C1141F4801143F480138D
:10619000AE44A1FB024CA0FB0365AEF17F7E361935
:1061A00055EB0C05A1FB034C4CF10003A0FB021CBA
:1061B00016EB0C06654153F10003094218BF46F087
:1061C000010613F4007F0BD14FEA03314FEA05308B
:1061D000340341EA155140EA16506FF003020AE019
:1061E0004FEAC3214FEAC520F40241EA555140EA83
:1061F00056506FF0020202EB2E4201EB025585EA87
:10620000CE710AD05FEA440C18BF24F0004450F16C
:10621000000041F1000120EAD47040F2FE7C6245AA
:1062200000D270BDA84214BF4FF080444FF04044EC
:10623000002E08BF0024BEF1806FA8BFA1F1C041AD
:10624000BDE8704080F282804FF0000001F1C04153
:1062500001F0004170479EEA0C0F0CEA131518BFBD
:1062600095EA0C0F06D04FF0000081EA030E0EF005
:10627000004170BD00F01CF88900013E00F007B835
:1062800000F009B84FEA430C5FEA5C5C08D081EA91
:10629000030100F05BB84FEA410C5FEA5C5CF6D1A9
:1062A0004FF00000014970470000FF070000F87F31
:1062B0000EF1020E2EF0030E5EF8046B364205D48A
:1062C000012A43EB030515F5001F12D8012841EB05
:1062D000010C1CF5001F0CD80ED14FEAD17C15F52E
:1062E000001F0CEB4C0C0CF1020C08BF4CEBD37CE8
:1062F00004E04FF0080C01E04FEAD37C0CEB4C05B6
:1063000026FA05F606F00706B6F1040C06D20EEBE7
:10631000860CBDE870404CF0010C6047DFE80CF0E3
:10632000090B02024FF000414FF00000A1F50021DF
:1063300070BD19461046012851EB010418BFD4F571
:10634000001484BF002001F0004170BD0808A0F5D2
:1063500000114FEA3101704791EA030F10B581F047
:1063600000413FF5EFAC83F0004300F0D5B80000EA
:106370002DE9F04101F5801CBCF5001FC0F2A98099
:106380004FEA115C21EA0C510CF1FD0C41F4801133
:106390005FEA5C0C0CF5C07C01D34000494130A49D
:1063A000890241EA905187028E0E0A0CA45D04FB1B
:1063B00004F602FB06F6C6F14046A4FB0662F60DA3
:1063C00046EA422606FB06F4A4FB01235242C3F12F
:1063D000404338BF5B1EA6FB02420024E6FB0324B9
:1063E000D20B42EA4446A6FB0623A1FB02E2A3FB32
:1063F00007E4E3FB61426442C2F1404E38BFAEF1B4
:10640000010EA6FB04234FF00002E6FB0E32A2FBB6
:1064100003463400E2FB6264A1FB06E6A4FB07E846
:10642000E4FB61687642C8F1405838BFA8F1010822
:10643000A2FB06E4A3FB08E5E2FB6854A1FB05E62A
:10644000A7FB04E8E1FB648618F1200556F100067D
:10645000A809A8F11B08B10908F03F08B8F10A0F14
:1064600040EA86601CD901EB0C51BDE8F08100BF09
:10647000FCF5EEE8E2DDD8D3CFCBC7C3C0BDB9B6DB
:10648000B4B1AEACA9A7A5A3A19F9D9B9A989695E0
:106490009392908F8D8C8B89888786858483828167
:1064A000A0FB006800FB01F208EB4208B8EB87286C
:1064B00007D5341858EB0104D5D5401C51F1000123
:1064C000D1E7341A78EB0104CDD4401E71F10001FC
:1064D000C9E75FEA4C0C5FEA9C5C0DD105D34FF035
:1064E000000001F00041BDE8F081BDE8F04170B569
:1064F000FFF7DEFE6DDBFFBEBDE8F0414FF00000B0
:10650000004970470000F87F10B591EA030F48BFBB
:1065100083F000433FF516AC841A71EB030C07D2ED
:1065200012198CF0004C43EB0C03001B61EB0C01C7
:10653000DFF8A4E14FEA1154A4EB135C1EEA430F09
:1065400018BF9EEA445F00F0B08023EA6E03524217
:1065500021EA0451C3EB6E0338BF5B1EDCF1200E51
:1065600025D322FA0CFE10EB0E0043FA0CFE41EB91
:106570000E01CCF1200E03FA0EFE10EB0E0051F1CD
:106580000001CCF1200E29D412FA0EF201EB0451D5
:10659000BDE8104058BF7047401C1CBFB2F1004F0F
:1065A000704700280CBF491C20F00100704712EB17
:1065B000020E43EB030218BF4FF0010E4EEA4202F7
:1065C000ACF1200CDCF11E0E54D943FA0CFE10EB9A
:1065D0000E0051F1FF31CCF11E0ED5D50EF1010E9A
:1065E00012FA0EFE404141EB010101EB445C5FEA0F
:1065F0005C5C10D910EBDE7001EB045138BFBEF1CA
:10660000004FBDE8104018BF704700280CBF491C60
:1066100020F00100704730D24FEAD42C11F5001160
:1066200024F400641BD0B1FA81F20B3AA41AA41E20
:10663000D2F12003914030FA03F31943904001EB6B
:10664000CC71002C01EB0451BDE81040A8BF70478D
:1066500001F1C0414FF0000001F000417047B0FA75
:1066600080F310FA03F100D110BDE41A173C48057D
:10667000C90AE4E701EB045110BD491001EB0451D4
:10668000BDE810404FEA300002E04FF000017047D3
:106690004A0008BF0042F8D0B2F5001F28BF70477B
:1066A00001F000414FF0000070479EEA445F07D0C0
:1066B00011EA5E0FBDE8104004BF002100207047C2
:1066C000BDE8104070B5FFF7F3FD00BF40DFF63EB8
:1066D00083F00041104670470000E0FF43004FEA9E
:1066E000D30C4FEA3C0C43401FBF40070CF16051F4
:1066F00013F0FE4F70471CF0006F03D100200CF028
:10670000004170470CF0004343EA507010B540EA76
:10671000CC0000F00EF800BF000000924FEA00012C
:10672000FFF714BE4FF000414FF00000A1F500212B
:1067300070470EF1020E2EF0030E5EF8044B244259
:1067400004D44FEA4102B2F17F4F11D84FEA40031F
:10675000B3F17F4F0CD80ED14FEAD07CB2F17F4F0E
:106760000CEB4C0C0CF1020C08BF4CEBD17C04E0A0
:106770004FF0080C01E04FEAD17C0CEB4C0324FAFB
:1067800003F404F00704B4F1040C06D20EEB840CFD
:10679000BDE810404CF0010C6047DFE80CF0070842
:1067A00002024FF00040A0F5800010BD08464200F4
:1067B00018BFD2F1807288BF00F0004010BD4FF0CA
:1067C0004070E1EE100A7047FF2141EAD050C00549
:1067D00070470000982F8A4291443771CFFBC0B5B3
:1067E000A5DBB5E95BC25639F111F159A4823F929C
:1067F000D55E1CAB98AA07D8015B8312BE853124F5
:10680000C37D0C55745DBE72FEB1DE80A706DC9BB5
:1068100074F19BC1C1699BE48647BEEFC69DC10F61
:10682000CCA10C246F2CE92DAA84744ADCA9B05C9D
:10683000DA88F97652513E986DC631A8C82703B060
:10684000C77F59BFF30BE0C64791A7D55163CA066E
:1068500067292914850AB72738211B2EFC6D2C4D7A
:10686000130D385354730A65BB0A6A762EC9C28168
:10687000852C7292A1E8BFA24B661AA8708B4BC2FE
:10688000A3516CC719E892D1240699D685350EF428
:1068900070A06A1016C1A419086C371E4C774827DF
:1068A000B5BCB034B30C1C394AAAD84E4FCA9C5B55
:1068B000F36F2E68EE828F746F63A5781478C884A6
:1068C0000802C78CFAFFBE90EB6C50A4F7A3F9BE88
:1068D000F27871C6000000003209090000000000D3
:1068E000010000007C1F2B000000000002000000DF
:1068F000890C0C000000000004000000ED0E0E03E7
:106900000C0D000005000000D91C1C010000000057
:1069100006000000680303000000000007000000FC
:1069200077202000000000000800000075242400EB
:10693000000000000B0000005906060104000000E2
:1069400014000000D6141403020300001500000018
:106950009F0202030001000016000000DC1919006C
:106960000000000017000000A8171703040500002E
:1069700018000000181E340000000000190000007C
:1069800017656500000000001A000000AA16180034
:10699000000000001B000000901A1D000000000015
:1069A0001C00000043101000000000001D0000004B
:1069B000730E1000000000001E000000271C1C00C9
:1069C000000000001F000000F62030000000000062
:1069D00020000000B91C1C00000000002100000085
:1069E000681C1C000000000022000000ED161600CC
:1069F0000000000023000000F41616000000000054
:106A000024000000DE152500000000002500000025
:106A1000D40607030405000026000000090607034A
:106A20000405000027000000FE25260320210000A9
:106A300028000000E604050302030000290000000E
:106A40001C040403020300002A0000001C021200C0
:106A5000000000002B00000084020303000100007E
:106A60002C000000DD040903020300002D000000DB
:106A7000E8020303000100002E0000000B020200E8
:106A8000000000002F00000099030803000100002F
:106A900030000000290D15010C000000310000003D
:106AA000270C140000000000320000004E252503D2
:106AB0001213000033000000C404050302030000A9
:106AC000360000000F1B1B031819000037000000E0
:106AD00003191900000000003D000000A74848000D
:106AE000000000003E000000B71A1A00000000007D
:106AF0003F00000077B5B500000000004000000036
:106B0000BFE1E1000000000041000000762A2A00F9
:106B1000000000004200000094060603020300008B
:106B200043000000150404000000000045000000C0
:106B3000F30B1E010A000000460000007C12260331
:106B40001011000049000000262526032021000026
:106B50004A00000014141400000000004B00000064
:106B60009E2323031E1F00004C00000098212103D8
:106B70001E1F00004D0000008F030A0308090000DB
:106B8000500000000E040403020300005100000046
:106B90006A1616000000000052000000312733037F
:106BA00024250000530000001625250000000000E9
:106BB000540000008F3535033233000055000000CB
:106BC0008C3333000000000056000000053535030B
:106BD00032330000570000009633330000000000FD
:106BE00059000000E71C1C00000000005A000000D3
:106BF000B7383800000000005B0000003F2A2A0080
:106C0000000000005C0000003621210000000000B0
:106C10005D0000002F5151000000000064000000E2
:106C2000AF1A220000000000650000006620750019
:106C300000000000660000009E20750000000000BB
:106C400067000000D0143900000000006800000058
:106C50003820740000000000690000005D3E3F0025
:106C6000000000006A0000008A2C2C0000000000D8
:106C70006B0000006C404100000000006C00000050
:106C800020545C00000000006D000000B9090900FC
:106C9000000000006E00000054FEFE030102000030
:106CA0006F0000002210120310110000700000009D
:106CB000AE0C0C0000000000710000007C242700D6
:106CC0000000000072000000ED2C2C00000000000D
:106CD0007300000004404000000000007400000049
:106CE0004C16180000000000750000008006060326
:106CF0000405000076000000380E0E0000000000C1
:106D000077000000740C0C030A0B000078000000F0
:106D1000866161000000000079000000ED020203BE
:106D2000000100007A000000CB0202030001000015
:106D30007B000000FA717103000100007C0000007C
:106D400057233900000000007D000000CB0606003C
:106D5000000000007E000000DC4F51034F50000097
:106D60007F000000192323000000000080000000C5
:106D7000E223230000000000810000002E1618000E
:106D800000000000820000001D0D0D00000000004A
:106D900083000000DFFFFF0000000000840000000F
:106DA000550E2700000000008500000006121200AA
:106DB0000000000086000000E52B2B000000000012
:106DC00087000000CB0808000000000088000000D9
:106DD000011616000000000089000000C30E10001C
:106DE000000000008A0000006D2478000000000010
:106DF0008B000000A82B2B03292A00008C00000028
:106E0000B5292900000000008D0000002F2020007F
:106E1000000000008E00000048F3F30000000000B6
:106E20008F000000830E10000000000090000000A2
:106E30007F5D5D0000000000920000006764640058
:106E400000000000930000009A24360000000000BB
:106E500094000000B23C4E000000000095000000CD
:106E6000C81E3C0000000000A2000000BD08090090
:106E700000000000C0000000242C360000000000CC
:106E8000E1000000D041490000000000E6000000E1
:106E9000A32A2A0000000000E7000000692828005B
:106EA00000000000E8000000973F410000000000E3
:106EB000E900000023B6B60000000000EA00000070
:106EC0009628280000000000EB000000B32A2A00EA
:106ED00000000000F10000005A2020000000000027
:106EE000F200000068343C0000000000F3000000E5
:106EF00055353D0134000000F40000005F06060037
:106F000000000000F5000000820202000000000006
:106F1000F6000000B826260000000000F700000080
:106F20005113130000000000F800000008FEFE03EB
:106F300003040000F9000000CC242400000000003D
:106F4000FA000000311E1E0000000000FB000000DF
:106F5000AA12120000000000FC0000002C12120017
:106F600000000000FD000000533336000000000068
:106F7000FE0000002E0909000000000000010000D2
:106F8000472A2A03080900000101000083090900BB
:106F90000000000002010000BB20E8030001000027
:106FA000030100005CEBED000000000004010000A4
:106FB00092050E000000000005010000B31B3D001B
:106FC00000000000060100000C1217000000000085
:106FD0000701000085FFFF0000000000080100001D
:106FE000311C200000000000090100001A101400EC
:106FF000000000000A010000C1FFFF0302030000BF
:107000000B01000023FFFF03020300000C0100003E
:107010000E040403020300000D0100006DD5D7002B
:10702000000000000E0100003B13140000000000EF
:107030000F010000163435000000000013010000AD
:107040007E1F2000000000001401000012313200F9
:1070500000000000150100003E1E1E0000000000A0
:107060001801000046212100000000001901000065
:10707000300D0D00000000001A0100007B232303E7
:10708000202100001B0100004A9091000000000038
:107090001C010000632020031E1F00001D010000D2
:1070A00089283103262700001E010000D23539034C
:1070B000323300001F0100000117170314150000F0
:1070C000200100001417170314150000220100000E
:1070D000FB2E2E0000000000230100000A393900B9
:1070E000000000002B01000013606200000000009F
:1070F0002C010000D9161600000000002D01000030
:10710000F33A3A0000000000360100001C111100A3
:1071100000000000370100005F74740000000000F0
:1071200040010000F31414030203000041010000B9
:10713000580202030001000042010000F39595008F
:1071400000000000430100004E9393030001000083
:107150004401000084929200000000004A010000F7
:10716000179EA700000000004B0100005BE6E9004D
:10717000000000004C010000ECEFEF0000000000F8
:107180004D010000E76D6D00000000004E010000A1
:10719000480A0A00000000004F010000E118180032
:1071A0000000000050010000F554540000000000F1
:1071B00053010000C7050500000000005401000055
:1071C00063464600000000005E010000E814FC0079
:1071D00000000000680100000B1919000000000009
:1071E000720100004B576D000000000073010000A9
:1071F0000A1A1A0000000000740100001A8C8C00AA
:107200000000000075010000752A2A00000000003F
:1072100077010000FB8C8C00000000007C01000066
:10722000E81414000000000081010000938585032C
:107230000203000082010000841010030405000016
:107240008301000004484803040500008401000095
:107250000825250320210000860100009CEEEE0099
:10726000000000008B01000000D4D40000000000EA
:107270008C01000032A0A000000000008D01000081
:10728000B66C6C0000000000900100006EFEFE0372
:107290000405000091010000B70606030405000084
:1072A0009A010000A0353500000000009B0100009D
:1072B0006A030300000000009C0100002106060391
:1072C000040500009D0100004D07070304050000B0
:1072D000B3010000862E2E0000000000B401000063
:1072E000C109090000000000B50100001E010100F5
:1072F00000000000B801000042232300000000004D
:107300002823000071898900000000002D2300005F
:10731000752222000000000064320000722C2C0351
:107320000001000065320000FE3B3B031E1F000011
:10733000663200008C35350304050000673200001A
:10734000F92E2E0300010000683200004D3636038E
:107350001C1D000069320000312B2B0300010000CE
:10736000733200005EF9F90300010000763200007C
:107370008B33330000000000773200000712120345
:107380001011000078320000140505000000000014
:107390000006101600061016000000000000000095
:1073A00001020304060708090000000001020304AB
:1073B000555555555555C53F7D6FEB0312D6D4BF76
:1073C0005544880E55C1C93F3B8F68B52882A4BF7C
:1073D00088B20175E0EF493F09F7FD0DE13D023F3D
:1073E0004B2D8A1C273A03C0C88A599CE52A0040C5
:1073F00059018D1B6C06E6BF82922EB1C5B8B33F12
:107400004FBB610567ACDD3F182D4454FB21E93FBC
:107410009BF681D20B73EF3F182D4454FB21F93FAB
:10742000E2652F227F2B7A3C075C143326A6813C31
:10743000BDCBF07A8807703C075C143326A6913CDC
:10744000C4EB98999999C9BF711623FEC671BCBF48
:107450006D9A74AFF2B0B3BF9AFDDE522DDEADBFB0
:107460002F6C6A2C44B4A2BF0D5555555555D53FC8
:10747000FF8300922449C23F6E204CC5CD45B73FE3
:10748000513DD0A0660DB13FEB0D76244B7BA93F5B
:1074900011DA22E33AAD903F000000000000000046
:1074A000C07400080000002070020000C401000841
:1074B00068750008700200206015000020020008B6
:1074C000411345447308011375597308058B2954FA
:1074D0000C138D5573080A13E15673086413914910
:1074E0005B08F43D13295C7308C81AE524B232C561
:1074F0003333833F052AFEEF15810724403F0AD727
:10750000A33BA5FEEF0B82BA80740169230101122F
:1075100002B301033209CF524F4C4C5F501449085B
:107520004A011C0A12491C4A021C0A12441C12037A
:107530009E504954434855891C5A041C8955891C3E
:107540005A051C8955891C1206AC594157A7991C2C
:107550003A071C99A7991C3A081C99A7391C3201B3
:0875600082101324F400000066
:040000050800018965
:00000001FF
